{
  "contractName": "PeerBrothers",
  "abi": [
    {
      "inputs": [
        {
          "internalType": "contract SafeBEP20",
          "name": "_sToken",
          "type": "address"
        }
      ],
      "stateMutability": "nonpayable",
      "type": "constructor"
    },
    {
      "anonymous": false,
      "inputs": [
        {
          "indexed": true,
          "internalType": "address",
          "name": "previousbigBro",
          "type": "address"
        },
        {
          "indexed": true,
          "internalType": "address",
          "name": "newbigBro",
          "type": "address"
        }
      ],
      "name": "BigBrotherTransferred",
      "type": "event"
    },
    {
      "anonymous": false,
      "inputs": [
        {
          "indexed": true,
          "internalType": "address",
          "name": "brother",
          "type": "address"
        },
        {
          "indexed": false,
          "internalType": "uint256",
          "name": "amount",
          "type": "uint256"
        }
      ],
      "name": "Deposit",
      "type": "event"
    },
    {
      "anonymous": false,
      "inputs": [
        {
          "indexed": false,
          "internalType": "address",
          "name": "bigBro",
          "type": "address"
        },
        {
          "indexed": false,
          "internalType": "uint256",
          "name": "newRate",
          "type": "uint256"
        }
      ],
      "name": "PenaltyChanged",
      "type": "event"
    },
    {
      "anonymous": false,
      "inputs": [
        {
          "indexed": true,
          "internalType": "address",
          "name": "brother",
          "type": "address"
        },
        {
          "indexed": false,
          "internalType": "uint256",
          "name": "amount",
          "type": "uint256"
        }
      ],
      "name": "Received",
      "type": "event"
    },
    {
      "inputs": [],
      "name": "bigBro",
      "outputs": [
        {
          "internalType": "address",
          "name": "",
          "type": "address"
        }
      ],
      "stateMutability": "view",
      "type": "function",
      "constant": true
    },
    {
      "inputs": [],
      "name": "busd",
      "outputs": [
        {
          "internalType": "address",
          "name": "",
          "type": "address"
        }
      ],
      "stateMutability": "view",
      "type": "function",
      "constant": true
    },
    {
      "inputs": [
        {
          "internalType": "address",
          "name": "",
          "type": "address"
        }
      ],
      "name": "exist",
      "outputs": [
        {
          "internalType": "bool",
          "name": "",
          "type": "bool"
        }
      ],
      "stateMutability": "view",
      "type": "function",
      "constant": true
    },
    {
      "inputs": [
        {
          "internalType": "address",
          "name": "",
          "type": "address"
        }
      ],
      "name": "isAPeerBrother",
      "outputs": [
        {
          "internalType": "bool",
          "name": "",
          "type": "bool"
        }
      ],
      "stateMutability": "view",
      "type": "function",
      "constant": true
    },
    {
      "inputs": [
        {
          "internalType": "address",
          "name": "",
          "type": "address"
        }
      ],
      "name": "isAdmin",
      "outputs": [
        {
          "internalType": "bool",
          "name": "",
          "type": "bool"
        }
      ],
      "stateMutability": "view",
      "type": "function",
      "constant": true
    },
    {
      "inputs": [],
      "name": "peerGroupCount",
      "outputs": [
        {
          "internalType": "uint256",
          "name": "",
          "type": "uint256"
        }
      ],
      "stateMutability": "view",
      "type": "function",
      "constant": true
    },
    {
      "inputs": [
        {
          "internalType": "address",
          "name": "",
          "type": "address"
        }
      ],
      "name": "peerInfo",
      "outputs": [
        {
          "internalType": "uint8",
          "name": "peerSize",
          "type": "uint8"
        },
        {
          "internalType": "uint256",
          "name": "groupNum",
          "type": "uint256"
        },
        {
          "internalType": "uint8",
          "name": "iterator",
          "type": "uint8"
        },
        {
          "internalType": "uint256",
          "name": "tokenValue",
          "type": "uint256"
        },
        {
          "internalType": "uint256",
          "name": "balancer",
          "type": "uint256"
        }
      ],
      "stateMutability": "view",
      "type": "function",
      "constant": true
    },
    {
      "inputs": [
        {
          "internalType": "address",
          "name": "",
          "type": "address"
        }
      ],
      "name": "peerLedger",
      "outputs": [
        {
          "internalType": "uint256",
          "name": "",
          "type": "uint256"
        }
      ],
      "stateMutability": "view",
      "type": "function",
      "constant": true
    },
    {
      "inputs": [],
      "name": "renouncebigBrother",
      "outputs": [],
      "stateMutability": "nonpayable",
      "type": "function"
    },
    {
      "inputs": [
        {
          "internalType": "address",
          "name": "newbigBro",
          "type": "address"
        }
      ],
      "name": "transferbigBroship",
      "outputs": [],
      "stateMutability": "nonpayable",
      "type": "function"
    },
    {
      "inputs": [
        {
          "internalType": "address",
          "name": "",
          "type": "address"
        }
      ],
      "name": "upline",
      "outputs": [
        {
          "internalType": "address",
          "name": "",
          "type": "address"
        }
      ],
      "stateMutability": "view",
      "type": "function",
      "constant": true
    },
    {
      "stateMutability": "payable",
      "type": "receive",
      "payable": true
    },
    {
      "inputs": [
        {
          "internalType": "address",
          "name": "_newRole",
          "type": "address"
        },
        {
          "internalType": "bool",
          "name": "any",
          "type": "bool"
        }
      ],
      "name": "setRole",
      "outputs": [
        {
          "internalType": "bool",
          "name": "",
          "type": "bool"
        }
      ],
      "stateMutability": "nonpayable",
      "type": "function"
    },
    {
      "inputs": [
        {
          "internalType": "address",
          "name": "admin",
          "type": "address"
        },
        {
          "internalType": "uint256",
          "name": "amt",
          "type": "uint256"
        }
      ],
      "name": "rewardPeerMembers",
      "outputs": [
        {
          "internalType": "bool",
          "name": "",
          "type": "bool"
        }
      ],
      "stateMutability": "nonpayable",
      "type": "function"
    },
    {
      "inputs": [],
      "name": "getGroupActivityStatus",
      "outputs": [
        {
          "internalType": "bool",
          "name": "",
          "type": "bool"
        }
      ],
      "stateMutability": "view",
      "type": "function",
      "constant": true
    },
    {
      "inputs": [
        {
          "internalType": "bool",
          "name": "state",
          "type": "bool"
        }
      ],
      "name": "changePeerActivityStatus",
      "outputs": [
        {
          "internalType": "bool",
          "name": "",
          "type": "bool"
        }
      ],
      "stateMutability": "nonpayable",
      "type": "function"
    },
    {
      "inputs": [
        {
          "internalType": "uint256",
          "name": "_unitAmount",
          "type": "uint256"
        },
        {
          "internalType": "uint8",
          "name": "_interestInPercent",
          "type": "uint8"
        },
        {
          "internalType": "uint8",
          "name": "_useInDays",
          "type": "uint8"
        },
        {
          "internalType": "uint256",
          "name": "_penaltyFeeInBUSD",
          "type": "uint256"
        },
        {
          "internalType": "uint8",
          "name": "peerSize",
          "type": "uint8"
        }
      ],
      "name": "resetData",
      "outputs": [
        {
          "internalType": "bool",
          "name": "",
          "type": "bool"
        }
      ],
      "stateMutability": "nonpayable",
      "type": "function"
    },
    {
      "inputs": [
        {
          "internalType": "uint256",
          "name": "_unitAmount",
          "type": "uint256"
        },
        {
          "internalType": "uint8",
          "name": "interestInPercent",
          "type": "uint8"
        },
        {
          "internalType": "uint8",
          "name": "num_days",
          "type": "uint8"
        },
        {
          "internalType": "uint256",
          "name": "penalty",
          "type": "uint256"
        },
        {
          "internalType": "uint8",
          "name": "g_Size",
          "type": "uint8"
        }
      ],
      "name": "createPeerGroup",
      "outputs": [
        {
          "internalType": "bool",
          "name": "",
          "type": "bool"
        }
      ],
      "stateMutability": "nonpayable",
      "type": "function"
    },
    {
      "inputs": [
        {
          "internalType": "address",
          "name": "adminAddr",
          "type": "address"
        },
        {
          "internalType": "uint8",
          "name": "memberId",
          "type": "uint8"
        }
      ],
      "name": "getMemberInfo",
      "outputs": [
        {
          "internalType": "address",
          "name": "",
          "type": "address"
        },
        {
          "internalType": "uint256",
          "name": "",
          "type": "uint256"
        },
        {
          "internalType": "bool",
          "name": "",
          "type": "bool"
        },
        {
          "internalType": "uint256",
          "name": "",
          "type": "uint256"
        },
        {
          "internalType": "bool",
          "name": "",
          "type": "bool"
        },
        {
          "internalType": "uint256",
          "name": "",
          "type": "uint256"
        },
        {
          "internalType": "uint256",
          "name": "",
          "type": "uint256"
        },
        {
          "internalType": "uint256",
          "name": "",
          "type": "uint256"
        }
      ],
      "stateMutability": "view",
      "type": "function",
      "constant": true
    },
    {
      "inputs": [
        {
          "internalType": "address",
          "name": "adminAddr",
          "type": "address"
        }
      ],
      "name": "joinYourPeer",
      "outputs": [
        {
          "internalType": "uint8",
          "name": "",
          "type": "uint8"
        }
      ],
      "stateMutability": "nonpayable",
      "type": "function"
    },
    {
      "inputs": [
        {
          "internalType": "address",
          "name": "peerAdmin",
          "type": "address"
        },
        {
          "internalType": "uint8",
          "name": "pz",
          "type": "uint8"
        },
        {
          "internalType": "uint256",
          "name": "gn",
          "type": "uint256"
        },
        {
          "internalType": "uint8",
          "name": "iter",
          "type": "uint8"
        },
        {
          "internalType": "address",
          "name": "newAddr",
          "type": "address"
        },
        {
          "internalType": "address",
          "name": "_disputed",
          "type": "address"
        }
      ],
      "name": "resolve",
      "outputs": [
        {
          "internalType": "bool",
          "name": "",
          "type": "bool"
        }
      ],
      "stateMutability": "nonpayable",
      "type": "function"
    },
    {
      "inputs": [
        {
          "internalType": "address",
          "name": "adm",
          "type": "address"
        }
      ],
      "name": "getLastposition",
      "outputs": [
        {
          "internalType": "uint8",
          "name": "",
          "type": "uint8"
        }
      ],
      "stateMutability": "view",
      "type": "function",
      "constant": true
    },
    {
      "inputs": [
        {
          "internalType": "address",
          "name": "admin",
          "type": "address"
        }
      ],
      "name": "getLastPayDate",
      "outputs": [
        {
          "internalType": "uint256",
          "name": "",
          "type": "uint256"
        }
      ],
      "stateMutability": "view",
      "type": "function",
      "constant": true
    },
    {
      "inputs": [
        {
          "internalType": "address",
          "name": "adminAddr",
          "type": "address"
        }
      ],
      "name": "getFinance",
      "outputs": [
        {
          "internalType": "bool",
          "name": "",
          "type": "bool"
        }
      ],
      "stateMutability": "nonpayable",
      "type": "function"
    },
    {
      "inputs": [
        {
          "internalType": "address",
          "name": "adminAddr",
          "type": "address"
        }
      ],
      "name": "getPaymentInfo",
      "outputs": [
        {
          "internalType": "uint256",
          "name": "",
          "type": "uint256"
        },
        {
          "internalType": "uint256",
          "name": "",
          "type": "uint256"
        },
        {
          "internalType": "uint256",
          "name": "",
          "type": "uint256"
        },
        {
          "internalType": "uint256",
          "name": "",
          "type": "uint256"
        },
        {
          "internalType": "uint256",
          "name": "",
          "type": "uint256"
        },
        {
          "internalType": "uint256",
          "name": "",
          "type": "uint256"
        },
        {
          "internalType": "bool",
          "name": "",
          "type": "bool"
        }
      ],
      "stateMutability": "view",
      "type": "function",
      "constant": true
    },
    {
      "inputs": [
        {
          "internalType": "address",
          "name": "admin",
          "type": "address"
        }
      ],
      "name": "getYourPositionId",
      "outputs": [
        {
          "internalType": "uint8",
          "name": "",
          "type": "uint8"
        }
      ],
      "stateMutability": "view",
      "type": "function",
      "constant": true
    },
    {
      "inputs": [
        {
          "internalType": "address",
          "name": "admin",
          "type": "address"
        }
      ],
      "name": "getTotalPaidMembers",
      "outputs": [
        {
          "internalType": "uint256",
          "name": "",
          "type": "uint256"
        }
      ],
      "stateMutability": "view",
      "type": "function",
      "constant": true
    },
    {
      "inputs": [
        {
          "internalType": "address",
          "name": "adminAddr",
          "type": "address"
        }
      ],
      "name": "getDateInfo",
      "outputs": [
        {
          "internalType": "uint256",
          "name": "",
          "type": "uint256"
        },
        {
          "internalType": "uint256",
          "name": "",
          "type": "uint256"
        },
        {
          "internalType": "uint256",
          "name": "",
          "type": "uint256"
        }
      ],
      "stateMutability": "view",
      "type": "function",
      "constant": true
    },
    {
      "inputs": [
        {
          "internalType": "address",
          "name": "_adminAddr",
          "type": "address"
        },
        {
          "internalType": "uint256",
          "name": "amount",
          "type": "uint256"
        }
      ],
      "name": "payBack",
      "outputs": [
        {
          "internalType": "bool",
          "name": "",
          "type": "bool"
        }
      ],
      "stateMutability": "nonpayable",
      "type": "function"
    },
    {
      "inputs": [],
      "name": "getCurrentTimestamp",
      "outputs": [
        {
          "internalType": "uint256",
          "name": "",
          "type": "uint256"
        }
      ],
      "stateMutability": "view",
      "type": "function",
      "constant": true
    },
    {
      "inputs": [],
      "name": "getCurrentBlockNumber",
      "outputs": [
        {
          "internalType": "uint256",
          "name": "",
          "type": "uint256"
        }
      ],
      "stateMutability": "view",
      "type": "function",
      "constant": true
    },
    {
      "inputs": [
        {
          "internalType": "address",
          "name": "admin",
          "type": "address"
        }
      ],
      "name": "getDebtBalance",
      "outputs": [
        {
          "internalType": "uint256",
          "name": "",
          "type": "uint256"
        }
      ],
      "stateMutability": "view",
      "type": "function",
      "constant": true
    }
  ],
  "bytecode": "0x60a06040527fe9e7cea3dedca5984780bafc599bd69add087d560000000000000000000000006080523480156200003557600080fd5b50604051620032f7380380620032f78339810160408190526200005891620000db565b600080546001600160a01b031916339081178255604051909182917f30d42be0afda2a4552a38b1df0d6b81415532e5c4d31fb09350f1c6b8508abfc908290a350336000908152600460205260409020805460ff19166001179055600680546001600160a01b03929092166001600160a01b03199092169190911790556200010d565b600060208284031215620000ee57600080fd5b81516001600160a01b03811681146200010657600080fd5b9392505050565b60805160601c6131cb6200012c60003960006103d701526131cb6000f3fe6080604052600436106101dc5760003560e01c80636fd902e111610102578063b701974411610095578063d8cdb97d11610064578063d8cdb97d1461068a578063db5a11ae146106f7578063dbf5374214610717578063ff9a5cfd1461073757600080fd5b8063b701974414610615578063c17ae86e14610635578063ca17f6eb14610655578063cf3d25881461066a57600080fd5b806396b15599116100d157806396b1559914610581578063a864dce2146105b3578063b22d6a71146105d3578063b3be45451461060057600080fd5b80636fd902e1146104ff578063733e16be1461051257806381008200146105285780638b0eccc11461056357600080fd5b80633527c83e1161017a5780634dfefc4b116101495780634dfefc4b146104195780636787e03f146104495780636986013b146104695780636c9230db146104ec57600080fd5b80633527c83e14610377578063368972b2146103975780633ca5b234146103c55780633fb1bf3e146103f957600080fd5b8063149ecb37116101b6578063149ecb37146102d757806324d7806c146102f757806326da7cc0146103275780632ae9e96e1461035757600080fd5b806305bff65b146101fd5780630e3bd3521461023257806312c65b8c1461028057600080fd5b366101f85767016345785d8a00003410156101f657600080fd5b005b600080fd5b34801561020957600080fd5b5061021d610218366004612e0e565b610757565b60405190151581526020015b60405180910390f35b34801561023e57600080fd5b5061026861024d366004612dbc565b6005602052600090815260409020546001600160a01b031681565b6040516001600160a01b039091168152602001610229565b34801561028c57600080fd5b506102a061029b366004612dbc565b6108d8565b604080519788526020880196909652948601939093526060850191909152608084015260a0830152151560c082015260e001610229565b3480156102e357600080fd5b5061021d6102f2366004612f2b565b61096f565b34801561030357600080fd5b5061021d610312366004612dbc565b60046020526000908152604090205460ff1681565b34801561033357600080fd5b5061021d610342366004612dbc565b60026020526000908152604090205460ff1681565b34801561036357600080fd5b506101f6610372366004612dbc565b610ca5565b34801561038357600080fd5b5061021d610392366004612dd7565b610d90565b3480156103a357600080fd5b506103b76103b2366004612dbc565b610ed7565b604051908152602001610229565b3480156103d157600080fd5b506102687f000000000000000000000000000000000000000000000000000000000000000081565b34801561040557600080fd5b506103b7610414366004612dbc565b610f29565b34801561042557600080fd5b5061021d610434366004612dbc565b60016020526000908152604090205460ff1681565b34801561045557600080fd5b5061021d610464366004612e6b565b610fa2565b34801561047557600080fd5b506104b9610484366004612dbc565b6009602052600090815260409020805460018201546002830154600384015460049094015460ff938416949293909116919085565b6040805160ff9687168152602081019590955292909416918301919091526060820152608081019190915260a001610229565b3480156104f857600080fd5b50426103b7565b34801561050b57600080fd5b50436103b7565b34801561051e57600080fd5b506103b760075481565b34801561053457600080fd5b50610548610543366004612dbc565b611108565b60408051938452602084019290925290820152606001610229565b34801561056f57600080fd5b506000546001600160a01b0316610268565b34801561058d57600080fd5b506105a161059c366004612dbc565b611171565b60405160ff9091168152602001610229565b3480156105bf57600080fd5b506103b76105ce366004612dbc565b6114db565b3480156105df57600080fd5b506103b76105ee366004612dbc565b60036020526000908152604090205481565b34801561060c57600080fd5b506101f6611534565b34801561062157600080fd5b5061021d610630366004612e0e565b6115a8565b34801561064157600080fd5b5061021d610650366004612ed8565b611a0c565b34801561066157600080fd5b5061021d611af0565b34801561067657600080fd5b506105a1610685366004612dbc565b611b29565b34801561069657600080fd5b506106aa6106a5366004612e38565b611b7a565b604080516001600160a01b03909916895260208901979097529415159587019590955260608601929092521515608085015260a084015260c083019190915260e082015261010001610229565b34801561070357600080fd5b506105a1610712366004612dbc565b611c2f565b34801561072357600080fd5b5061021d610732366004612dbc565b611c90565b34801561074357600080fd5b5061021d610752366004612f2b565b612250565b3360009081526004602052604081205460ff1661078f5760405162461bcd60e51b815260040161078690612fd2565b60405180910390fd5b6001600160a01b038316600090815260096020526040902060050154806107e55760405162461bcd60e51b815260206004820152600a602482015269115b5c1d1e481b1a5cdd60b21b6044820152606401610786565b60005b818110156108cb576006546001600160a01b0386811660009081526009602052604090206005018054919092169163a9059cbb918490811061082c5761082c613171565b60009182526020909120015460405160e083901b6001600160e01b03191681526001600160a01b03909116600482015260248101879052604401602060405180830381600087803b15801561088057600080fd5b505af1158015610894573d6000803e3d6000fd5b505050506040513d601f19601f820116820180604052508101906108b89190612ef5565b50806108c381613120565b9150506107e8565b5060019150505b92915050565b3360009081526001602052604081205481908190819081908190819060ff166109135760405162461bcd60e51b815260040161078690612ffa565b505050506001600160a01b03939093166000908152600960209081526040808320600801909152902080546001820154600283015460038401546004850154600586015460069096015494999398509196509450929160ff1690565b3360009081526001602052604081205460ff1661099e5760405162461bcd60e51b815260040161078690612ffa565b33600081815260096020908152604080832060029092529091205460ff16610a085760405162461bcd60e51b815260206004820152601960248201527f4e6f20417574686f72697a6174696f6e206465746563746564000000000000006044820152606401610786565b6001600160a01b03821660009081526007820160205260409020600201546001820154428210801590610a3b5750600082115b610a925760405162461bcd60e51b815260206004820152602260248201527f506565722041646d696e3a20477261636520706572696f642065786861757374604482015261195960f21b6064820152608401610786565b6001600160a01b0384166000908152600260205260408120805460ff191690556007805460019290610ac59084906130e6565b9091555050825460ff168060005b818160ff161015610baf576001600160a01b0380881660008181526006808a0160209081526040808420888552825280842080549096168085526001808452828620805460ff19908116909155600580865284882080546001600160a01b03199081169091558a54168a55828a0188905560028a0180548316905560038a0188905560048a0188905589018790559488018054861690556007909701859055948452600a8c0182528084208585529091529091208054909116905590610b9990846130e6565b9250508080610ba79061313b565b915050610ad3565b506001600160a01b038616600090815260078601602090815260408083208381556001808201859055600291820185905560088a0184528285208581558082018690558083018690556003808201879055600480830188905560058084018990556006909301805460ff19908116909155600990975294872080548716815592830187905592820180549095169094559081018490559081018390559190610c5990830182612d5a565b5050610c698c8c8c8c8c8861228e565b5050506001600160a01b039094166000908152600960209081526040808320600701909152812060020155506001935050505095945050505050565b6000546001600160a01b03163314610ccf5760405162461bcd60e51b815260040161078690613022565b6001600160a01b038116610d355760405162461bcd60e51b815260206004820152602760248201527f4f776e61626c653a206e65772062696742726f20697320746865207a65726f206044820152666164647265737360c81b6064820152608401610786565b600080546040516001600160a01b03808516939216917f30d42be0afda2a4552a38b1df0d6b81415532e5c4d31fb09350f1c6b8508abfc91a3600080546001600160a01b0319166001600160a01b0392909216919091179055565b600080546001600160a01b03163314610dbb5760405162461bcd60e51b815260040161078690613022565b8115610e49576001600160a01b03831660009081526004602052604090205460ff1615610e1d5760405162461bcd60e51b815260206004820152601060248201526f20b63932b0b23c9030b71030b236b4b760811b6044820152606401610786565b506001600160a01b0382166000908152600460205260409020805460ff191660019081179091556108d2565b81610ece576001600160a01b03831660009081526004602052604090205460ff16610ead5760405162461bcd60e51b81526020600482015260146024820152732737ba1030b63932b0b23c9030b71030b236b4b760611b6044820152606401610786565b6001600160a01b0383166000908152600460205260409020805460ff191690555b50600192915050565b3360009081526004602052604081205460ff16610f065760405162461bcd60e51b815260040161078690612fd2565b506001600160a01b0381166000908152600960205260409020600501545b919050565b3360009081526001602052604081205460ff16610f585760405162461bcd60e51b815260040161078690612ffa565b506001600160a01b03166000818152600960209081526040808320600a81018352818420338552835281842054948452600601825280832060ff9094168352929052206001015490565b3360009081526004602052604081205460ff16610fd15760405162461bcd60e51b815260040161078690612fd2565b6001600160a01b03808816600090815260096020818152604080842094871684529390910190522054879060ff1661104b5760405162461bcd60e51b815260206004820181905260248201527f4e6f207072696f72207265706f727420666f722074686973206163636f756e746044820152606401610786565b6001600160a01b03811660009081526009602081815260408084209283019091529091205460ff9081169089161561108b57815460ff191660ff8a161782555b871561109957600182018890555b60028201805460ff191660ff89161790556001600160a01b038616156110f8576001600160a01b038381166000908152600684016020908152604080832060ff86168452909152902080546001600160a01b0319169188169190911790555b5060019998505050505050505050565b336000908152600160205260408120548190819060ff1661113b5760405162461bcd60e51b815260040161078690612ffa565b5050506001600160a01b031660009081526009602090815260408083206007019091529020805460018201546002909201549092565b3360008181526001602052604081205490919060ff16156111a45760405162461bcd60e51b815260040161078690612f82565b6001600160a01b038316600090815260096020526040902060028101543391859160ff16600181101561120a5760405162461bcd60e51b815260206004820152600e60248201526d1419595c881b9bdd08195e1a5cdd60921b6044820152606401610786565b6000611217826001613080565b835490915060ff90811690821611156112725760405162461bcd60e51b815260206004820152601d60248201527f4e6f20766163616e7420696e64657820666f72207468697320706565720000006044820152606401610786565b6001600160a01b03808516600090815260088501602090815260408083205460068801835281842060ff8716855290925290912054909116156112f75760405162461bcd60e51b815260206004820152601d60248201527f44656e6965643a204d756c7469706c6520726567697374726174696f6e0000006044820152606401610786565b6001600160a01b038516600090815260088501602052604090206001810154600490910154806113278385612930565b11611494576001600160a01b038781166000818152600689016020908152604080832060ff8a168452825280832080546001600160a01b031916958e1695909517855560028501805460ff19166001908117909155600790950188905592825260088a01905290812090910180548592906113a3908490613068565b90915550506001600160a01b038088166000818152600a890160209081526040808320948d16808452948252808320805460ff808c1660ff1992831617909255600180855283862080549092161790559383526005825280832080546001600160a01b031916909517909455600990529182206002018054909116916114288361313b565b91906101000a81548160ff021916908360ff16021790555050876001600160a01b03167fe1fffcc4923d04b559f4d29a8bfc6cda04eb5b0d3c460751c2402c5c5cc9109c8460405161147c91815260200190565b60405180910390a283995050505050505050506114d5565b60405162461bcd60e51b8152602060048201526016602482015275141bdbdb08185b5bdd5b9d081a5cc81c995858da195960521b6044820152606401610786565b50919050565b3360009081526001602052604081205460ff1661150a5760405162461bcd60e51b815260040161078690612ffa565b506001600160a01b0316600090815260096020908152604080832060070190915290206001015490565b6000546001600160a01b0316331461155e5760405162461bcd60e51b815260040161078690613022565b600080546040516001600160a01b03909116907f30d42be0afda2a4552a38b1df0d6b81415532e5c4d31fb09350f1c6b8508abfc908390a3600080546001600160a01b0319169055565b3360009081526001602052604081205460ff166115d75760405162461bcd60e51b815260040161078690612ffa565b6001600160a01b0383166000908152600960209081526040808320600a8101835281842033855290925290912054600282015485929160ff9081169161161f91166001613080565b60ff168160ff16146116735760405162461bcd60e51b815260206004820181905260248201527f596f752068617665206e6f206f626c69676174696f6e20746f2066756c66696c6044820152606401610786565b6001600160a01b0383166000818152600684016020908152604080832060ff808716808652828552838620600181015497875260088a01865293862060030154600485015491909652919093526002909101549091161580156116d65750600083115b61172e5760405162461bcd60e51b815260206004820152602360248201527f4e6f2070726576696f75732064656274204f72207061796261636b20746f6f206044820152626c6f7760e81b6064820152608401610786565b804211801561174857506117458162015180612930565b42105b1561175e576117578284613068565b92506117cb565b804211801561177957506117758162015180612930565b4210155b156117cb576001600160a01b038616600090815260088601602090815260408083206006018054600160ff199182161790915560098901909252909120805490911660ff86161790556117cb86612943565b82881080156117e057506117e0335b50600190565b1561187e576001600160a01b0386166000908152600686016020908152604080832060ff88168452909152812060010180548a92906118209084906130e6565b90915550506001600160a01b0386166000818152600687016020908152604080832060ff8916845282528083204260039091015592825260088801905290812060010180548a9290611873908490613068565b909155506119fd9050565b8288101580156118925750611892336117da565b156119fd576001600160a01b0386166000818152600687016020908152604080832060ff891684528252808320600190810184905593835260088901909152812090910180548a92906118e6908490613068565b90915550506001600160a01b0386166000818152600687016020908152604080832060ff891684528252808320600201805460ff19166001908117909155938352600789019091529020429101556005850161193f3390565b8154600180820184556000938452602080852090920180546001600160a01b0319166001600160a01b0394851617905591891683526008880190526040909120908101546004909101548082106119fa57600061199c8383612a39565b6001600160a01b038a16600090815260088a0160205260409020600501549091506119c79082612930565b50600588018054600181018255600091825260209091200180546001600160a01b031916331790556119f889612a45565b505b50505b50600198975050505050505050565b600080546001600160a01b03163314611a375760405162461bcd60e51b815260040161078690613022565b81611a905760085460ff16611a815760405162461bcd60e51b815260206004820152601060248201526f416c726561647920696e61637469766560801b6044820152606401610786565b6008805460ff19169055611ae8565b8115611ae85760085460ff1615611ada5760405162461bcd60e51b815260206004820152600e60248201526d416c72656164792061637469766560901b6044820152606401610786565b6008805460ff191660011790555b506001919050565b3360009081526004602052604081205460ff16611b1f5760405162461bcd60e51b815260040161078690612fd2565b5060085460ff1690565b3360009081526001602052604081205460ff16611b585760405162461bcd60e51b815260040161078690612ffa565b506001600160a01b031660009081526009602052604090206002015460ff1690565b33600090815260016020526040812054819081908190819081908190819060ff16611bb75760405162461bcd60e51b815260040161078690612ffa565b505050506001600160a01b0395861660009081526009602090815260408083206006908101835281842060ff998a1685529092529091208054600182015460028301546003840154948401546007850154600586015460049096015494909c169c929b918b169a959950909416965092945090925090565b3360009081526001602052604081205460ff16611c5e5760405162461bcd60e51b815260040161078690612ffa565b506001600160a01b03166000908152600960209081526040808320600a01825280832033845290915290205460ff1690565b6000816001600160a01b038116611ce95760405162461bcd60e51b815260206004820152601e60248201527f41646d696e3a205a65726f206164647265737320646973616c6c6f77656400006044820152606401610786565b6001600160a01b03811660009081526009602052604090206002015460ff1680611d485760405162461bcd60e51b815260206004820152601060248201526f139bc81c19595c8819195d1958dd195960821b6044820152606401610786565b6001600160a01b038281166000908152600960209081526040808320600601825280832060ff86168452909152902054163314611db65760405162461bcd60e51b815260206004820152600c60248201526b2bb937b7339031b0b63632b960a11b6044820152606401610786565b3360009081526001602052604090205460ff16611e065760405162461bcd60e51b815260206004820152600e60248201526d155cd95c881b9bdd08199bdd5b9960921b6044820152606401610786565b836000336001600160a01b03808416600081815260096020908152604080832060028101546006820180855283862060ff9092168087528286529386205496865290935295965093929092169181611e5f6001866130e6565b81526020810191909152604001600020546001600160a01b03161415611ed5576001600160a01b038516600090815260068401602052604081203091611ea66001866130e6565b8152602081019190915260400160002080546001600160a01b0319166001600160a01b03929092169190911790555b6001600160a01b038516600090815260088401602090815260408083206001015460078701909252822054909190611f109062015180612be5565b6001600160a01b0388166000908152600887016020526040812060020154600488015460038901549394509092611f4691612930565b6001600160a01b038a166000908152600889016020526040902060040154909150841015611faa5760405162461bcd60e51b8152602060048201526011602482015270506f6f6c206e6f7420636f6d706c65746560781b6044820152606401610786565b876001600160a01b0316856001600160a01b0316148015611ff457506001600160a01b03891660009081526006808901602090815260408084208a8552909152909120015460ff16155b6120335760405162461bcd60e51b815260206004820152601060248201526f105b1c9958591e481c9958d95a5d995960821b6044820152606401610786565b6001600160a01b0389166000908152600688016020908152604080832089845290915290206002015460ff1661209a5760405162461bcd60e51b815260206004820152600c60248201526b4e6f7420656c696769626c6560a01b6044820152606401610786565b6120a43082612bf1565b6120d95760405162461bcd60e51b815260206004820152600660248201526511985a5b195960d21b6044820152606401610786565b6120e34284612930565b6001600160a01b038a16600090815260068901602090815260408083208a84529091529020600401556121168483612930565b6001600160a01b03808b16600081815260068b01602090815260408083208c845282528083206005810187905560018082018890556002909101805460ff19169055948e1683526003825280832087905592825260088c01905290812090910180548792906121869084906130e6565b90915550506001600160a01b038a1660008181526006808b01602090815260408084208c85528252808420909201805460ff1916600190811790915593835260099052812060020180549091906121e190849060ff166130fd565b92506101000a81548160ff021916908360ff160217905550886001600160a01b03167fe1fffcc4923d04b559f4d29a8bfc6cda04eb5b0d3c460751c2402c5c5cc9109c8660405161223491815260200190565b60405180910390a25060019d9c50505050505050505050505050565b3360008181526001602052604081205490919060ff16156122835760405162461bcd60e51b815260040161078690612f82565b6119fd878787878760005b600854600090819033908990899060ff166122eb5760405162461bcd60e51b815260206004820152601a60248201527f4e6f7420617661696c61626c6520617420746869732074696d650000000000006044820152606401610786565b60018760ff1611801561230257506101008760ff16105b6123645760405162461bcd60e51b815260206004820152602d60248201527f4d6178206d656d626572206c696d6974206578636565646564206f722073697a60448201526c32903632b9b9903a3430b7101960991b6064820152608401610786565b60008960ff1611801561237b575060078960ff1611155b6123c05760405162461bcd60e51b8152602060048201526016602482015275109d5d081dda1e4fc810dbdb9cda59195c881c995cdd60521b6044820152606401610786565b600260006123db826123d58660ff8d16612be5565b90612d4e565b905060006123ef60646123d584600a612be5565b6001600160a01b038716600090815260096020526040812091925061241c60646123d58960ff8a16612be5565b60028301805491925060019160009061243990849060ff16613080565b92506101000a81548160ff021916908360ff1602179055508b8260000160006101000a81548160ff021916908360ff16021790555083826003018190555082826004018190555060405180606001604052808f60ff168152602001600081526020016124b1620151804261293090919063ffffffff16565b8152508260070160008a6001600160a01b03166001600160a01b031681526020019081526020016000206000820151816000015560208201518160010155604082015181600201559050506040518060e001604052808881526020018881526020018281526020018e81526020016125358e60ff168a612be590919063ffffffff16565b81526000602080830182905260409283018290526001600160a01b038c16825260088601815282822084518155908401516001820155918301516002830155606083015160038301556080830151600483015560a0830151600583015560c0909201516006909101805460ff19169115159190911790558c905b8d60ff168160ff16101561270a5760405180610100016040528060006001600160a01b031681526020016000815260200160001515815260200160008152602001600081526020016000815260200160001515815260200160008152508460060160008c6001600160a01b03166001600160a01b0316815260200190815260200160002060008460ff16815260200190815260200160002060008201518160000160006101000a8154816001600160a01b0302191690836001600160a01b031602179055506020820151816001015560408201518160020160006101000a81548160ff021916908315150217905550606082015181600301556080820151816004015560a0820151816005015560c08201518160060160006101000a81548160ff02191690831515021790555060e082015181600701559050506001826126f691906130fd565b9150806127028161313b565b9150506125af565b50888360060160008b6001600160a01b03166001600160a01b0316815260200190815260200160002060006001815260200190815260200160002060000160006101000a8154816001600160a01b0302191690836001600160a01b0316021790555060018360060160008b6001600160a01b03166001600160a01b0316815260200190815260200160002060006001815260200190815260200160002060020160006101000a81548160ff021916908315150217905550878360060160008b6001600160a01b03166001600160a01b0316815260200190815260200160002060006001815260200190815260200160002060070181905550600183600a0160008b6001600160a01b03166001600160a01b0316815260200190815260200160002060008b6001600160a01b03166001600160a01b0316815260200190815260200160002060006101000a81548160ff021916908360ff1602179055506001600260008b6001600160a01b03166001600160a01b0316815260200190815260200160002060006101000a81548160ff0219169083151502179055506128ba600160075461293090919063ffffffff16565b6007556001600160a01b0389166000908152600160208181526040808420805460ff191690931790925560059052902080546001600160a01b031916331790558b61290c576007546001840155612914565b600183018c90555b50506001908101549f909e509c50505050505050505050505050565b600061293c8284613068565b9392505050565b6001600160a01b03811660009081526009602090815260408083206002810154600682019093529083203393919260ff16919081612982846001613080565b60ff16815260208082019290925260409081016000908120546001600160a01b03908116808352600385528383208390553383526001808652848420805460ff1916905589831684526005865284842080546001600160a01b0319169055918a1683526006880190945291812092935091908290612a01908690613080565b60ff168152602081019190915260400160002080546001600160a01b0319166001600160a01b03929092169190911790555050505050565b600061293c82846130e6565b6001600160a01b03811660009081526009602090815260408083208054600882019093529220600101546003830154600484015460ff9093169282612abf5760405162461bcd60e51b815260206004820152601060248201526f506f6f6c2076616c756520656d70747960801b6044820152606401610786565b8454600586015460ff9091161415612bdd576000612ae08460ff8716612d4e565b905060005b6005870154811015612bbc576000876005018281548110612b0857612b08613171565b6000918252602090912001546001600160a01b03169050612b298585612930565b600360008a6005018581548110612b4257612b42613171565b60009182526020808320909101546001600160a01b031683528201929092526040019020541015612ba95760405162461bcd60e51b8152602060048201526011602482015270105b9bdb585b1b1e4819195d1958dd1959607a1b6044820152606401610786565b5080612bb481613120565b915050612ae5565b50506001600160a01b03861660009081526008860160205260408120600101555b505050505050565b600061293c82846130c7565b60065460009081906001600160a01b03166370a08231336040516001600160e01b031960e084901b1681526001600160a01b03909116600482015260240160206040518083038186803b158015612c4757600080fd5b505afa158015612c5b573d6000803e3d6000fd5b505050506040513d601f19601f82011682018060405250810190612c7f9190612f12565b905082811015612cc85760405162461bcd60e51b8152602060048201526014602482015273496e73756666696369656e742062616c616e636560601b6044820152606401610786565b60065460405163a9059cbb60e01b81526001600160a01b038681166004830152602482018690529091169063a9059cbb90604401602060405180830381600087803b158015612d1657600080fd5b505af1158015612d2a573d6000803e3d6000fd5b505050506040513d601f19601f820116820180604052508101906108cb9190612ef5565b600061293c82846130a5565b5080546000825590600052602060002090810190612d789190612d7b565b50565b5b80821115612d905760008155600101612d7c565b5090565b80356001600160a01b0381168114610f2457600080fd5b803560ff81168114610f2457600080fd5b600060208284031215612dce57600080fd5b61293c82612d94565b60008060408385031215612dea57600080fd5b612df383612d94565b91506020830135612e0381613187565b809150509250929050565b60008060408385031215612e2157600080fd5b612e2a83612d94565b946020939093013593505050565b60008060408385031215612e4b57600080fd5b612e5483612d94565b9150612e6260208401612dab565b90509250929050565b60008060008060008060c08789031215612e8457600080fd5b612e8d87612d94565b9550612e9b60208801612dab565b945060408701359350612eb060608801612dab565b9250612ebe60808801612d94565b9150612ecc60a08801612d94565b90509295509295509295565b600060208284031215612eea57600080fd5b813561293c81613187565b600060208284031215612f0757600080fd5b815161293c81613187565b600060208284031215612f2457600080fd5b5051919050565b600080600080600060a08688031215612f4357600080fd5b85359450612f5360208701612dab565b9350612f6160408701612dab565b925060608601359150612f7660808701612dab565b90509295509295909350565b60208082526030908201527f5065657242726f7468656572733a204d756c7469706c6520726567697374726160408201526f1d1a5bdb881b9bdd08185b1b1bddd95960821b606082015260800190565b6020808252600e908201526d139bdd08105d5d1a1bdc9a5e995960921b604082015260600190565b6020808252600e908201526d139bdd081c9958dbd9db9a5e995960921b604082015260600190565b60208082526026908201527f4f776e61626c653a2046554e4354494f4e204953205052495641544520544f2060408201526562696742726f60d01b606082015260800190565b6000821982111561307b5761307b61315b565b500190565b600060ff821660ff84168060ff0382111561309d5761309d61315b565b019392505050565b6000826130c257634e487b7160e01b600052601260045260246000fd5b500490565b60008160001904831182151516156130e1576130e161315b565b500290565b6000828210156130f8576130f861315b565b500390565b600060ff821660ff8416808210156131175761311761315b565b90039392505050565b60006000198214156131345761313461315b565b5060010190565b600060ff821660ff8114156131525761315261315b565b60010192915050565b634e487b7160e01b600052601160045260246000fd5b634e487b7160e01b600052603260045260246000fd5b8015158114612d7857600080fdfea2646970667358221220dd92d7c6208c514f8e6441a07023748079458f2174a996629721f3e7420a877164736f6c63430008060033",
  "immutableReferences": {
    "704": [
      {
        "length": 32,
        "start": 983
      }
    ]
  },
  "source": "// SPDX-License-Identifier: MIT\r\n\r\npragma solidity ^0.8.0;\r\n\r\nimport \"lib/Ownable.sol\";\r\nimport \"lib/SafeMath.sol\";\r\n\r\nimport './SafeBEP20.sol';\r\nimport 'lib/Slice.sol';\r\n\r\n\r\ninterface BUSD {\r\n    function deposit() external payable;\r\n    function transfer(address to, uint256 value) external returns (bool);\r\n    function withdraw(uint256) external;\r\n    function balanceOf(address user) external returns(uint256);\r\n}\r\n\r\n\r\ncontract PeerBrothers is Ownable, Slice{\r\n\r\n    using SafeMath for uint256;\r\n    \r\n    event Deposit(address indexed brother, uint amount);\r\n    \r\n    event Received(address indexed brother, uint amount);\r\n\r\n    event PenaltyChanged(address bigBro, uint newRate);\r\n    \r\n    SafeBEP20 _token;\r\n    \r\n    // BUSD stable_t;\r\n    \r\n    address public immutable busd = 0xe9e7CEA3DedcA5984780Bafc599bD69ADd087D56;\r\n    \r\n    uint public peerGroupCount;\r\n    \r\n    bool private groupStatus;\r\n\r\n    // AirdropInfo public currentInstance = airdrops[airdropCount];\r\n    \r\n    struct PeerInfo {\r\n        uint8 peerSize;\r\n        uint groupNum;\r\n        uint8 iterator;\r\n        uint tokenValue;\r\n        uint balancer;\r\n        address[] paid;\r\n        mapping(address => mapping(uint => BrotherInfo)) adminIndexed;\r\n        mapping(address => Date) timings;\r\n        mapping(address => Payment) payments;\r\n        mapping(address => uint8) disputed;\r\n        mapping(address => mapping(address => uint8)) ids;\r\n    }\r\n    \r\n    struct Date {\r\n        uint use_days;\r\n        uint lastPayDate;\r\n        uint permitTime;\r\n    }\r\n    \r\n    struct Payment {\r\n        uint unit;\r\n        uint actualPoolSize;\r\n        uint interest;\r\n        uint penaltyFee;\r\n        uint expectedPool;\r\n        uint accruedDiv;\r\n        bool dispute;\r\n    }\r\n\r\n    struct BrotherInfo {\r\n        address addr;\r\n        uint debt;\r\n        bool isCreditor;\r\n        uint lastPayBackDay;\r\n        uint expectedPayDate;\r\n        uint expectedRepaymentAmt;\r\n        bool isPaid;\r\n        uint credit;\r\n    }\r\n    \r\n    mapping(address => PeerInfo) public peerInfo;\r\n    \r\n    modifier isTied(address adm) {\r\n        require(adm != address(0), 'Admin: Zero address disallowed');\r\n        uint8 expected_pos = peerInfo[adm].iterator;\r\n        require(expected_pos > 0, 'No peer detected');\r\n        require(_msgSender() == peerInfo[adm].adminIndexed[adm][expected_pos].addr, 'Wrong caller');\r\n        require(exist[_msgSender()], 'User not found');\r\n        _;\r\n    }\r\n\r\n    constructor(SafeBEP20 _sToken) {\r\n        isAdmin[_msgSender()] = true;\r\n        _token = _sToken;\r\n    }\r\n    \r\n\r\n    receive () external payable {\r\n        if(msg.value < 1e17 wei) revert();\r\n    }\r\n    \r\n    function setRole(address _newRole, bool any) public PRIVATE returns(bool) {\r\n        if(any){\r\n            require(!isAdmin[_newRole], 'Already an admin');\r\n            isAdmin[_newRole] = true;\r\n            return true;\r\n        } else if(!any) {\r\n            require(isAdmin[_newRole], 'Not already an admin');\r\n            isAdmin[_newRole] = false;\r\n        }\r\n        return true;\r\n        \r\n    }\r\n    \r\n    function rewardPeerMembers(address admin, uint amt) public onlyRole returns(bool) {\r\n        uint ln = peerInfo[admin].paid.length;\r\n        require(ln > 0, 'Empty list');\r\n        // uint8 gSz = peerInfo[admin].peerSize;\r\n        for(uint i=0; i<ln; i++) {\r\n            _token.transfer(peerInfo[admin].paid[i], amt);\r\n        }\r\n        return true;\r\n    }\r\n    \r\n    \r\n    function getGroupActivityStatus() public view onlyRole returns(bool) {\r\n        return groupStatus;\r\n    } \r\n    \r\n    function changePeerActivityStatus(bool state) public PRIVATE returns(bool) {\r\n        if(!state){\r\n            require(groupStatus, 'Already inactive');\r\n            groupStatus = false;\r\n        } else if(state){\r\n            require(!groupStatus, 'Already active');\r\n            groupStatus = true;\r\n        }\r\n        return true;\r\n        \r\n    }\r\n    \r\n    function _deductFst(address recipient, uint value) internal returns(bool) {\r\n        uint actualBalance = _token.balanceOf(_msgSender());\r\n        require(actualBalance >= value, 'Insufficient balance');\r\n        _token.transfer(recipient, value);\r\n        return true;\r\n    }\r\n    \r\n    function _safeTransferBUSD(address sender, address recipient, uint _amount) internal pure returns(bool) {\r\n        // uint previousBalance = busd.balanceOf(sender);\r\n        // busd.transfer(recipient, _amount);\r\n        // require(busd.balanceOf(sender).add(_amount) == previousBalance, 'Something went wrong');\r\n        return true;\r\n        \r\n    }\r\n   \r\n    function resetData(\r\n        uint _unitAmount, \r\n        uint8 _interestInPercent,\r\n        uint8 _useInDays,\r\n        uint _penaltyFeeInBUSD,\r\n        uint8 peerSize\r\n        ) public isExist returns(bool) {\r\n            address s = _msgSender();\r\n            PeerInfo storage g = peerInfo[s];\r\n            require(isAPeerBrother[s], 'No Authorization detected');\r\n            uint pT = g.timings[s].permitTime;\r\n            uint gN = g.groupNum;\r\n            require(block.timestamp <= pT && pT > 0, 'Peer Admin: Grace period exhausted');\r\n            isAPeerBrother[s] = false;\r\n            peerGroupCount -= 1;\r\n            \r\n            uint8 old_size = g.peerSize;\r\n            uint n = old_size;\r\n            for(uint8 i=0; i<n; i++) {\r\n                address each = g.adminIndexed[s][n].addr;\r\n                exist[each] = false;\r\n                upline[each] = address(0);\r\n                delete g.adminIndexed[s][n];\r\n                delete g.ids[s][each];\r\n                n -= 1;\r\n            }\r\n            delete g.timings[s];\r\n            delete g.payments[s];\r\n            \r\n            delete peerInfo[s];\r\n            _createPeerGroup(_unitAmount, _interestInPercent, _useInDays, _penaltyFeeInBUSD, peerSize, gN);\r\n            \r\n            peerInfo[s].timings[s].permitTime = 0;\r\n            return true;\r\n            \r\n    }\r\n\r\n    // Any of the Peer brothers agreed as bigBrother initialises a finance group\r\n    function _createPeerGroup(uint _unitAmount, uint8 ratePercent, uint8 num_days, uint penalty, uint8 g_Size, uint allGrpCount) internal returns(uint, uint8) {\r\n        address s = _msgSender();\r\n        uint u = _unitAmount;\r\n        uint8 r = ratePercent;\r\n        require(groupStatus, 'Not available at this time');\r\n        require(g_Size > 1 && g_Size < 2**8, 'Max member limit exceeded or size less than 2');\r\n        require(num_days > 0 && num_days <= 7, 'But why? Consider rest');\r\n        // (uint tkv, uint balancer) = _deductFst(address(this), u);\r\n        uint p = getCurrentPrice();\r\n        uint token_value = u.mul(g_Size).div(p);\r\n        uint balancer = token_value.mul(10).div(100);\r\n        PeerInfo storage g = peerInfo[s];\r\n        if(_safeTransferBUSD(s, address(this), u)) {\r\n            uint it = u.mul(r).div(100);\r\n            g.iterator += 1;\r\n            g.peerSize = g_Size;\r\n            g.tokenValue = token_value;\r\n            g.balancer = balancer;\r\n            g.timings[s] = Date(num_days, 0, block.timestamp.add(1 days));\r\n            g.payments[s] = Payment(u, u, it, penalty, u.mul(g_Size), 0, false);\r\n            uint8 esc = g_Size;\r\n            for(uint8 i=0; i<g_Size; i++) {\r\n                g.adminIndexed[s][esc] = BrotherInfo(address(0), 0, false, 0, 0, 0, false, 0);\r\n                esc -= 1;\r\n            }\r\n            g.adminIndexed[s][1].addr = s;\r\n            g.adminIndexed[s][1].isCreditor = true;\r\n            g.adminIndexed[s][1].credit = u;\r\n            g.ids[s][s] = 1;\r\n            isAPeerBrother[s] = true;\r\n            peerGroupCount = peerGroupCount.add(1);\r\n            exist[s] = true;\r\n            upline[s] = _msgSender();\r\n            if(allGrpCount == 0) {\r\n                g.groupNum = peerGroupCount;\r\n            } else {\r\n                g.groupNum = allGrpCount;\r\n            }\r\n            \r\n        } else {\r\n            revert('Request failed');\r\n        }\r\n        return (g.groupNum, 1);\r\n    }\r\n\r\n    function createPeerGroup(uint _unitAmount, uint8 interestInPercent, uint8 num_days, uint penalty, uint8 g_Size) public isNotExisting(_msgSender()) returns(bool) {\r\n        \r\n        _createPeerGroup(_unitAmount, interestInPercent, num_days, penalty, g_Size, 0);\r\n        return true;\r\n    }\r\n\r\n    function getMemberInfo(address adminAddr, uint8 memberId) public view isExist returns(address, uint, bool, uint, bool, uint, uint, uint) {\r\n        address p = adminAddr;\r\n        uint8 m = memberId;\r\n        return (\r\n            peerInfo[p].adminIndexed[p][m].addr,\r\n            peerInfo[p].adminIndexed[p][m].debt,\r\n            peerInfo[p].adminIndexed[p][m].isCreditor,\r\n            peerInfo[p].adminIndexed[p][m].lastPayBackDay,\r\n            peerInfo[p].adminIndexed[p][m].isPaid,\r\n            peerInfo[p].adminIndexed[p][m].credit,\r\n            peerInfo[p].adminIndexed[p][m].expectedRepaymentAmt,\r\n            peerInfo[p].adminIndexed[p][m].expectedPayDate\r\n            );\r\n    }\r\n    \r\n \r\n    function joinYourPeer(address adminAddr) public isNotExisting(_msgSender()) returns(uint8) {\r\n        address p = _msgSender();\r\n        address a = adminAddr;\r\n        PeerInfo storage g = peerInfo[a];\r\n        uint8 iter = g.iterator;\r\n        require(iter >= 1, 'Peer not exist');\r\n        uint8 ap = iter + 1;\r\n        require(ap <= g.peerSize, 'No vacant index for this peer');\r\n        uint remittance = g.payments[a].unit;\r\n        require(g.adminIndexed[a][ap].addr == address(0), 'Denied: Multiple registration');\r\n        uint totalUSDPool = g.payments[a].actualPoolSize;\r\n        uint expectedPoolBal = g.payments[a].expectedPool;\r\n        if((totalUSDPool.add(remittance) <= expectedPoolBal)){\r\n            // (uint t, uint b) = _deductFst(address(this), remittance);\r\n            require(_safeTransferBUSD(p, address(this), remittance), 'Not completed');\r\n            g.adminIndexed[a][ap].addr = p; \r\n            g.adminIndexed[a][ap].isCreditor = true;\r\n            g.adminIndexed[a][ap].credit = remittance;\r\n            g.payments[a].actualPoolSize += remittance;\r\n            g.ids[a][p] = ap;\r\n            exist[p] = true;\r\n            upline[a] = p;\r\n            peerInfo[a].iterator ++;\r\n\r\n            emit Deposit(p, remittance);\r\n            return ap;\r\n        } else {\r\n            revert('Pool amount is reached');\r\n        }\r\n    }\r\n    \r\n    function getCurrentPrice() internal pure returns(uint256) {\r\n        return 2;\r\n    }\r\n    \r\n    function resolve(address peerAdmin, uint8 pz, uint gn, uint8 iter, address newAddr, address _disputed) public onlyRole returns(bool) {\r\n        address a = peerAdmin;\r\n        require(peerInfo[a].disputed[_disputed] > 0, 'No prior report for this account');\r\n        PeerInfo storage g = peerInfo[a];\r\n        uint8 d_pos = g.disputed[a];\r\n        if(pz > 0) { g.peerSize = pz; }\r\n        if(gn > 0) { g.groupNum = gn; }\r\n        if(iter >= 0) { g.iterator = iter; }\r\n        if(newAddr != address(0)) { g.adminIndexed[a][d_pos].addr = newAddr; }\r\n        return true;\r\n    }\r\n    \r\n    function getLastposition(address adm) public view isExist returns(uint8) {\r\n        return peerInfo[adm].iterator;\r\n    }\r\n    \r\n    function getLastPayDate(address admin) public view isExist returns(uint256) {\r\n        return peerInfo[admin].timings[admin].lastPayDate;\r\n    }\r\n    \r\n    function getFinance(address adminAddr) public isTied(adminAddr) returns(bool) {\r\n        address g = adminAddr;\r\n        address m = _msgSender();\r\n        PeerInfo storage p = peerInfo[g];\r\n        uint next_p = p.iterator;\r\n        address next = p.adminIndexed[g][next_p].addr;\r\n        if(p.adminIndexed[g][next_p - 1].addr == address(0)) { p.adminIndexed[g][next_p - 1].addr = address(this); }\r\n        uint poolToDate = p.payments[g].actualPoolSize;\r\n        uint use_P = p.timings[g].use_days.mul(1 days);\r\n        uint i = p.payments[g].interest; //                    Note at fixing interest calculation at current time based on current pool\r\n        uint value = p.tokenValue.add(p.balancer);\r\n        \r\n        require(poolToDate >= p.payments[g].expectedPool, 'Pool not complete');\r\n        require(next == m && !p.adminIndexed[g][next_p].isPaid, 'Already received');\r\n        require(p.adminIndexed[g][next_p].isCreditor, 'Not eligible');\r\n        require(_deductFst(address(this), value), 'Failed');\r\n        require(_safeTransferBUSD(address(this), m, poolToDate), 'Transaction could not be completed');\r\n        p.adminIndexed[g][next_p].expectedPayDate = block.timestamp.add(use_P);\r\n        p.adminIndexed[g][next_p].expectedRepaymentAmt = poolToDate.add(i);\r\n        uint debt = p.adminIndexed[g][next_p].expectedRepaymentAmt;\r\n        p.adminIndexed[g][next_p].debt = debt;\r\n        p.adminIndexed[g][next_p].isCreditor = false;\r\n        \r\n        peerLedger[m] = value;\r\n\r\n        p.payments[g].actualPoolSize -= poolToDate;\r\n        // p.timings[g].lastPayDate\r\n        p.adminIndexed[g][next_p].isPaid = true;\r\n        peerInfo[g].iterator -= 1;\r\n        \r\n        emit Deposit(m, poolToDate);\r\n     \r\n        return true;\r\n    }\r\n \r\n    function getPaymentInfo(address adminAddr) public view isExist returns(uint, uint, uint, uint, uint, uint, bool) {\r\n        address a = adminAddr;\r\n        PeerInfo storage g = peerInfo[a];\r\n        return (\r\n            g.payments[a].unit,\r\n            g.payments[a].actualPoolSize,\r\n            g.payments[a].interest,\r\n            g.payments[a].penaltyFee,\r\n            g.payments[a].expectedPool,\r\n            g.payments[a].accruedDiv,\r\n            g.payments[a].dispute\r\n            );\r\n    }\r\n    \r\n    function getYourPositionId(address admin) public view isExist returns(uint8) {\r\n        return peerInfo[admin].ids[admin][_msgSender()];\r\n    }\r\n    \r\n    function getTotalPaidMembers(address admin) public view onlyRole returns(uint256) {\r\n        return peerInfo[admin].paid.length;\r\n    }\r\n\r\n    function getDateInfo(address adminAddr) public view isExist returns(uint, uint, uint) {\r\n        address a = adminAddr;\r\n        PeerInfo storage g = peerInfo[a];\r\n        return ( \r\n            g.timings[a].use_days,\r\n            g.timings[a].lastPayDate,\r\n            g.timings[a].permitTime\r\n        );\r\n    }\r\n    \r\n    function _liquidate(address adm) internal {\r\n        address p = _msgSender();\r\n        PeerInfo storage g = peerInfo[adm];\r\n        uint8 pos = g.iterator;\r\n        address c_beneficiary = g.adminIndexed[adm][pos + 1].addr;\r\n        peerLedger[c_beneficiary] = 0;\r\n        exist[_msgSender()] = false;\r\n        upline[p] = address(0); \r\n        g.adminIndexed[adm][pos + 1].addr = address(0);\r\n    }\r\n\r\n    function payBack(address _adminAddr, uint amount) external isExist returns(bool) {\r\n        address a = _adminAddr;\r\n        PeerInfo storage g = peerInfo[a];\r\n        uint8 pos = g.ids[a][_msgSender()];\r\n        require(pos == (g.iterator + 1), 'You have no obligation to fulfil');\r\n        uint out_Debt = g.adminIndexed[a][pos].debt;\r\n        uint pen = g.payments[a].penaltyFee;\r\n        uint e_pday = g.adminIndexed[a][pos].expectedPayDate;\r\n \r\n        require(!g.adminIndexed[a][pos].isCreditor && out_Debt > 0, 'No previous debt Or payback too low');\r\n        if(block.timestamp > e_pday && block.timestamp < e_pday.add(1 days)){\r\n            out_Debt += pen;\r\n        } else if(block.timestamp > e_pday && block.timestamp >= e_pday.add(1 days)) {\r\n            g.payments[a].dispute = true;\r\n            g.disputed[a] = pos;\r\n            _liquidate(a);\r\n        } else {\r\n            out_Debt = out_Debt;\r\n        }\r\n        if(amount < out_Debt && _safeTransferBUSD(_msgSender(), address(this), amount)) {\r\n            g.adminIndexed[a][pos].debt -= amount;\r\n            g.adminIndexed[a][pos].lastPayBackDay = block.timestamp;\r\n            g.payments[a].actualPoolSize += amount;\r\n        } else if(amount >= out_Debt && _safeTransferBUSD(_msgSender(), address(this), amount)) {\r\n            g.adminIndexed[a][pos].debt = 0;\r\n            g.payments[a].actualPoolSize += amount;\r\n            g.adminIndexed[a][pos].isCreditor = true;\r\n            g.timings[a].lastPayDate = block.timestamp;\r\n            g.paid.push(_msgSender());\r\n            uint aps = g.payments[a].actualPoolSize;\r\n            uint ep = g.payments[a].expectedPool;\r\n            if(aps >= ep) {\r\n                uint div = aps.sub(ep);\r\n                g.payments[a].accruedDiv.add(div);\r\n                g.paid.push(_msgSender());\r\n                _check(a);\r\n            }\r\n        }\r\n        \r\n        return true;\r\n        \r\n    }\r\n    \r\n    function getCurrentTimestamp() external view returns(uint256) {\r\n        return block.timestamp;\r\n    }\r\n    \r\n    function getCurrentBlockNumber() external view returns(uint256) {\r\n        return block.number;\r\n    }\r\n    \r\n    function getDebtBalance(address admin) public view isExist returns(uint256) {\r\n        uint8 pos = peerInfo[admin].ids[admin][_msgSender()];\r\n        return peerInfo[admin].adminIndexed[admin][pos].debt;\r\n    }\r\n    \r\n    function _check(address adm) internal {\r\n        PeerInfo storage p = peerInfo[adm];\r\n        uint8 gZ = p.peerSize;\r\n        uint aps = p.payments[adm].actualPoolSize;\r\n        uint tkv = p.tokenValue;\r\n        uint blr = p.balancer;\r\n        require(aps > 0, 'Pool value empty');\r\n        if(p.paid.length == p.peerSize) {\r\n            uint unit_pay = aps.div(gZ);\r\n            for(uint i=0; i<p.paid.length; i++){\r\n                address each = p.paid[i];\r\n                require(peerLedger[p.paid[i]] >= tkv.add(blr), 'Anomally detected');\r\n                require(_safeTransferBUSD(address(this), each, unit_pay), 'Txn Could not be completed');\r\n            }\r\n            p.payments[adm].actualPoolSize = 0;\r\n        }\r\n    }\r\n\r\n    // function extend(uint8 _targetindex, uint extenda) public isExist returns(bool) {\r\n    //     require(isAPeerBrother[_msgSender()], 'Unauthorized ADMIN');\r\n    //     require(extenda <= 14, 'Max extension time exceeded');\r\n    //     peerInfo[_msgSender()].members[_targetindex].lastPayDay += (extenda.mul(1 days));\r\n    //     return true;\r\n    // }\r\n    \r\n}\r\n",
  "sourcePath": "C:/Users/FVO_MMILLLER/Desktop/brothersBob/brothersFinance/contracts/PeerBrothers.sol",
  "compiler": {
    "name": "solc",
    "version": "0.8.6+commit.11564f7e.Emscripten.clang"
  },
  "schemaVersion": "3.4.1",
  "updatedAt": "2021-07-16T14:16:53.324Z",
  "networkType": "ethereum",
  "devdoc": {
    "kind": "dev",
    "methods": {
      "bigBro()": {
        "details": "Returns the address of the current bigBro."
      },
      "renouncebigBrother()": {
        "details": "Leaves the contract without bigBro. It will not be possible to call `PRIVATE` functions anymore. Can only be called by the current bigBro. NOTE: Renouncing bigBroship will leave the contract without an bigBro, thereby removing any functionality that is only available to the bigBro."
      },
      "transferbigBroship(address)": {
        "details": "Transfers bigBroship of the contract to a new account (`newbigBro`). Can only be called by the current bigBro."
      }
    },
    "version": 1
  },
  "userdoc": {
    "kind": "user",
    "methods": {},
    "version": 1
  }
}