{
  "contractName": "PeerBrothers",
  "abi": [
    {
      "inputs": [
        {
          "internalType": "contract IBEP20",
          "name": "_broToken",
          "type": "address"
        }
      ],
      "stateMutability": "nonpayable",
      "type": "constructor"
    },
    {
      "anonymous": false,
      "inputs": [
        {
          "indexed": true,
          "internalType": "address",
          "name": "brother",
          "type": "address"
        },
        {
          "indexed": false,
          "internalType": "uint256",
          "name": "amount",
          "type": "uint256"
        }
      ],
      "name": "Deposit",
      "type": "event"
    },
    {
      "anonymous": false,
      "inputs": [
        {
          "indexed": true,
          "internalType": "address",
          "name": "previousOwner",
          "type": "address"
        },
        {
          "indexed": true,
          "internalType": "address",
          "name": "newOwner",
          "type": "address"
        }
      ],
      "name": "OwnershipTransferred",
      "type": "event"
    },
    {
      "anonymous": false,
      "inputs": [
        {
          "indexed": true,
          "internalType": "address",
          "name": "brother",
          "type": "address"
        },
        {
          "indexed": false,
          "internalType": "uint256",
          "name": "amount",
          "type": "uint256"
        }
      ],
      "name": "Received",
      "type": "event"
    },
    {
      "inputs": [],
      "name": "broToken",
      "outputs": [
        {
          "internalType": "contract IBEP20",
          "name": "",
          "type": "address"
        }
      ],
      "stateMutability": "view",
      "type": "function"
    },
    {
      "inputs": [],
      "name": "busd",
      "outputs": [
        {
          "internalType": "address",
          "name": "",
          "type": "address"
        }
      ],
      "stateMutability": "view",
      "type": "function"
    },
    {
      "inputs": [],
      "name": "groupCount",
      "outputs": [
        {
          "internalType": "uint256",
          "name": "",
          "type": "uint256"
        }
      ],
      "stateMutability": "view",
      "type": "function"
    },
    {
      "inputs": [
        {
          "internalType": "address",
          "name": "",
          "type": "address"
        }
      ],
      "name": "isABigBrother",
      "outputs": [
        {
          "internalType": "bool",
          "name": "",
          "type": "bool"
        }
      ],
      "stateMutability": "view",
      "type": "function"
    },
    {
      "inputs": [],
      "name": "owner",
      "outputs": [
        {
          "internalType": "address",
          "name": "",
          "type": "address"
        }
      ],
      "stateMutability": "view",
      "type": "function"
    },
    {
      "inputs": [],
      "name": "peerBrotherCount",
      "outputs": [
        {
          "internalType": "uint256",
          "name": "",
          "type": "uint256"
        }
      ],
      "stateMutability": "view",
      "type": "function"
    },
    {
      "inputs": [
        {
          "internalType": "address",
          "name": "",
          "type": "address"
        }
      ],
      "name": "position",
      "outputs": [
        {
          "internalType": "uint256",
          "name": "",
          "type": "uint256"
        }
      ],
      "stateMutability": "view",
      "type": "function"
    },
    {
      "inputs": [],
      "name": "renounceOwnership",
      "outputs": [],
      "stateMutability": "nonpayable",
      "type": "function"
    },
    {
      "inputs": [
        {
          "internalType": "address",
          "name": "",
          "type": "address"
        },
        {
          "internalType": "uint8",
          "name": "",
          "type": "uint8"
        }
      ],
      "name": "soulBrothers",
      "outputs": [
        {
          "internalType": "address",
          "name": "",
          "type": "address"
        }
      ],
      "stateMutability": "view",
      "type": "function"
    },
    {
      "inputs": [
        {
          "internalType": "address",
          "name": "newOwner",
          "type": "address"
        }
      ],
      "name": "transferOwnership",
      "outputs": [],
      "stateMutability": "nonpayable",
      "type": "function"
    },
    {
      "stateMutability": "payable",
      "type": "receive"
    },
    {
      "inputs": [],
      "name": "pause",
      "outputs": [
        {
          "internalType": "bool",
          "name": "",
          "type": "bool"
        }
      ],
      "stateMutability": "nonpayable",
      "type": "function"
    },
    {
      "inputs": [],
      "name": "unpause",
      "outputs": [
        {
          "internalType": "bool",
          "name": "",
          "type": "bool"
        }
      ],
      "stateMutability": "nonpayable",
      "type": "function"
    },
    {
      "inputs": [
        {
          "internalType": "address[]",
          "name": "_brothers",
          "type": "address[]"
        },
        {
          "internalType": "uint256",
          "name": "_unitAmount",
          "type": "uint256"
        },
        {
          "internalType": "uint8",
          "name": "_interestRate",
          "type": "uint8"
        },
        {
          "internalType": "uint256",
          "name": "_maxDurationInDays",
          "type": "uint256"
        },
        {
          "internalType": "uint256",
          "name": "_penaltyFeeInBUSD",
          "type": "uint256"
        }
      ],
      "name": "setTies",
      "outputs": [
        {
          "internalType": "bool",
          "name": "",
          "type": "bool"
        }
      ],
      "stateMutability": "nonpayable",
      "type": "function"
    },
    {
      "inputs": [
        {
          "internalType": "address",
          "name": "admin",
          "type": "address"
        },
        {
          "internalType": "uint8",
          "name": "_position",
          "type": "uint8"
        },
        {
          "internalType": "uint256",
          "name": "_deposit",
          "type": "uint256"
        }
      ],
      "name": "deposit",
      "outputs": [
        {
          "internalType": "bool",
          "name": "",
          "type": "bool"
        }
      ],
      "stateMutability": "nonpayable",
      "type": "function"
    },
    {
      "inputs": [
        {
          "internalType": "address",
          "name": "admin",
          "type": "address"
        },
        {
          "internalType": "uint8",
          "name": "_position",
          "type": "uint8"
        }
      ],
      "name": "recieve",
      "outputs": [
        {
          "internalType": "bool",
          "name": "",
          "type": "bool"
        }
      ],
      "stateMutability": "nonpayable",
      "type": "function"
    },
    {
      "inputs": [
        {
          "internalType": "address",
          "name": "_admin",
          "type": "address"
        },
        {
          "internalType": "uint8",
          "name": "_position",
          "type": "uint8"
        },
        {
          "internalType": "uint256",
          "name": "_owings",
          "type": "uint256"
        }
      ],
      "name": "payBack",
      "outputs": [
        {
          "internalType": "bool",
          "name": "",
          "type": "bool"
        }
      ],
      "stateMutability": "nonpayable",
      "type": "function"
    },
    {
      "inputs": [
        {
          "internalType": "uint8",
          "name": "_targetPosition",
          "type": "uint8"
        },
        {
          "internalType": "uint256",
          "name": "extenda",
          "type": "uint256"
        }
      ],
      "name": "extend",
      "outputs": [
        {
          "internalType": "bool",
          "name": "",
          "type": "bool"
        }
      ],
      "stateMutability": "nonpayable",
      "type": "function"
    },
    {
      "inputs": [
        {
          "internalType": "address",
          "name": "grpAdminAddress",
          "type": "address"
        }
      ],
      "name": "currentGetTotalPool",
      "outputs": [
        {
          "internalType": "uint256",
          "name": "",
          "type": "uint256"
        }
      ],
      "stateMutability": "view",
      "type": "function"
    },
    {
      "inputs": [
        {
          "internalType": "uint256",
          "name": "_newPenaltyFee",
          "type": "uint256"
        }
      ],
      "name": "adjustPenalty",
      "outputs": [
        {
          "internalType": "bool",
          "name": "",
          "type": "bool"
        }
      ],
      "stateMutability": "nonpayable",
      "type": "function"
    }
  ],
  "bytecode": "0x60a060405273e9e7cea3dedca5984780bafc599bd69add087d5673ffffffffffffffffffffffffffffffffffffffff1660809073ffffffffffffffffffffffffffffffffffffffff1660601b8152503480156200005b57600080fd5b506040516200480738038062004807833981810160405281019062000081919062000198565b6000620000936200017960201b60201c565b9050806000806101000a81548173ffffffffffffffffffffffffffffffffffffffff021916908373ffffffffffffffffffffffffffffffffffffffff1602179055508073ffffffffffffffffffffffffffffffffffffffff16600073ffffffffffffffffffffffffffffffffffffffff167f8be0079c531659141344cd1fd0a4f28419497f9722a3daafe3b4186f6b6457e060405160405180910390a35080600160006101000a81548173ffffffffffffffffffffffffffffffffffffffff021916908373ffffffffffffffffffffffffffffffffffffffff1602179055505062000231565b600033905090565b600081519050620001928162000217565b92915050565b600060208284031215620001b157620001b062000212565b5b6000620001c18482850162000181565b91505092915050565b6000620001d782620001f2565b9050919050565b6000620001eb82620001ca565b9050919050565b600073ffffffffffffffffffffffffffffffffffffffff82169050919050565b600080fd5b6200022281620001de565b81146200022e57600080fd5b50565b60805160601c6145a2620002656000396000818161076601528181612c7b01528181612d280152612ddb01526145a26000f3fe6080604052600436106101185760003560e01c80638da5cb5b116100a0578063c7b628c711610064578063c7b628c7146103fd578063cdf5c1941461043a578063e8484a0f14610477578063f01ef5c3146104b4578063f2fde38b146104df57610134565b80638da5cb5b146102f05780638f23b3261461031b578063a4e5052614610346578063b7648fb914610383578063bdc6382a146103c057610134565b80633ca5b234116100e75780633ca5b2341461021b5780633f4ba83a14610246578063715018a6146102715780638456cb5914610288578063876bf986146102b357610134565b806308337da8146101395780630c418e26146101765780632714e94a146101b35780632b8d5fc1146101f057610134565b366101345767016345785d8a000034101561013257600080fd5b005b600080fd5b34801561014557600080fd5b50610160600480360381019061015b91906130f9565b610508565b60405161016d91906137ea565b60405180910390f35b34801561018257600080fd5b5061019d600480360381019061019891906132d7565b610528565b6040516101aa91906137ea565b60405180910390f35b3480156101bf57600080fd5b506101da60048036038101906101d59190613126565b6106fc565b6040516101e791906137a6565b60405180910390f35b3480156101fc57600080fd5b5061020561073e565b6040516102129190613805565b60405180910390f35b34801561022757600080fd5b50610230610764565b60405161023d91906137a6565b60405180910390f35b34801561025257600080fd5b5061025b610788565b60405161026891906137ea565b60405180910390f35b34801561027d57600080fd5b50610286610828565b005b34801561029457600080fd5b5061029d610962565b6040516102aa91906137ea565b60405180910390f35b3480156102bf57600080fd5b506102da60048036038101906102d591906131b9565b610a02565b6040516102e791906137ea565b60405180910390f35b3480156102fc57600080fd5b506103056110a5565b60405161031291906137a6565b60405180910390f35b34801561032757600080fd5b506103306110ce565b60405161033d9190613c02565b60405180910390f35b34801561035257600080fd5b5061036d60048036038101906103689190613166565b6110d4565b60405161037a91906137ea565b60405180910390f35b34801561038f57600080fd5b506103aa60048036038101906103a591906130f9565b6114f9565b6040516103b79190613c02565b60405180910390f35b3480156103cc57600080fd5b506103e760048036038101906103e2919061327d565b611511565b6040516103f491906137ea565b60405180910390f35b34801561040957600080fd5b50610424600480360381019061041f9190613126565b611689565b60405161043191906137ea565b60405180910390f35b34801561044657600080fd5b50610461600480360381019061045c91906130f9565b611f65565b60405161046e9190613c02565b60405180910390f35b34801561048357600080fd5b5061049e60048036038101906104999190613166565b611fb1565b6040516104ab91906137ea565b60405180910390f35b3480156104c057600080fd5b506104c961286d565b6040516104d69190613c02565b60405180910390f35b3480156104eb57600080fd5b50610506600480360381019061050191906130f9565b612873565b005b60096020528060005260406000206000915054906101000a900460ff1681565b600060096000610536612a1c565b73ffffffffffffffffffffffffffffffffffffffff1673ffffffffffffffffffffffffffffffffffffffff16815260200190815260200160002060009054906101000a900460ff166105bd576040517f08c379a00000000000000000000000000000000000000000000000000000000081526004016105b4906138c2565b60405180910390fd5b600e821115610601576040517f08c379a00000000000000000000000000000000000000000000000000000000081526004016105f890613aa2565b60405180910390fd5b60006005600061060f612a1c565b73ffffffffffffffffffffffffffffffffffffffff1673ffffffffffffffffffffffffffffffffffffffff16815260200190815260200160002060008560ff1660ff16815260200190815260200160002060009054906101000a900473ffffffffffffffffffffffffffffffffffffffff1690506106996201518084612a2490919063ffffffff16565b600760008373ffffffffffffffffffffffffffffffffffffffff1673ffffffffffffffffffffffffffffffffffffffff16815260200190815260200160002060030160008282546106ea9190613c8a565b92505081905550600191505092915050565b60056020528160005260406000206020528060005260406000206000915091509054906101000a900473ffffffffffffffffffffffffffffffffffffffff1681565b600160009054906101000a900473ffffffffffffffffffffffffffffffffffffffff1681565b7f000000000000000000000000000000000000000000000000000000000000000081565b6000610792612a1c565b73ffffffffffffffffffffffffffffffffffffffff166107b06110a5565b73ffffffffffffffffffffffffffffffffffffffff1614610806576040517f08c379a00000000000000000000000000000000000000000000000000000000081526004016107fd90613a62565b60405180910390fd5b6001600360006101000a81548160ff0219169083151502179055506001905090565b610830612a1c565b73ffffffffffffffffffffffffffffffffffffffff1661084e6110a5565b73ffffffffffffffffffffffffffffffffffffffff16146108a4576040517f08c379a000000000000000000000000000000000000000000000000000000000815260040161089b90613a62565b60405180910390fd5b600073ffffffffffffffffffffffffffffffffffffffff1660008054906101000a900473ffffffffffffffffffffffffffffffffffffffff1673ffffffffffffffffffffffffffffffffffffffff167f8be0079c531659141344cd1fd0a4f28419497f9722a3daafe3b4186f6b6457e060405160405180910390a360008060006101000a81548173ffffffffffffffffffffffffffffffffffffffff021916908373ffffffffffffffffffffffffffffffffffffffff160217905550565b600061096c612a1c565b73ffffffffffffffffffffffffffffffffffffffff1661098a6110a5565b73ffffffffffffffffffffffffffffffffffffffff16146109e0576040517f08c379a00000000000000000000000000000000000000000000000000000000081526004016109d790613a62565b60405180910390fd5b6000600360006101000a81548160ff0219169083151502179055506001905090565b6000600360009054906101000a900460ff16610a53576040517f08c379a0000000000000000000000000000000000000000000000000000000008152600401610a4a90613902565b60405180910390fd5b610a64610a5e612a1c565b86612a9f565b610aa3576040517f08c379a0000000000000000000000000000000000000000000000000000000008152600401610a9a90613b22565b60405180910390fd5b600a86511115610ae8576040517f08c379a0000000000000000000000000000000000000000000000000000000008152600401610adf90613b42565b60405180910390fd5b62093a80610b026201518085612a2490919063ffffffff16565b1115610b43576040517f08c379a0000000000000000000000000000000000000000000000000000000008152600401610b3a90613a82565b60405180910390fd5b600060066000610b51612a1c565b73ffffffffffffffffffffffffffffffffffffffff1673ffffffffffffffffffffffffffffffffffffffff16815260200190815260200160002060030160019054906101000a900460ff1660ff161480610bf15750600060086000610bb4612a1c565b73ffffffffffffffffffffffffffffffffffffffff1673ffffffffffffffffffffffffffffffffffffffff16815260200190815260200160002054145b610c30576040517f08c379a0000000000000000000000000000000000000000000000000000000008152600401610c2790613a22565b60405180910390fd5b610c42610c3b612a1c565b3087612c76565b610c81576040517f08c379a0000000000000000000000000000000000000000000000000000000008152600401610c78906139a2565b60405180910390fd5b6000808751905060005b81831015610ea757600183610ca09190613c8a565b92508080610cad90613ec5565b9150506000600760008b8681518110610cc957610cc8613f4d565b5b602002602001015173ffffffffffffffffffffffffffffffffffffffff1673ffffffffffffffffffffffffffffffffffffffff168152602001908152602001600020905060018160000160006101000a81548160ff0219169083151502179055506000816001016000828254610d3f9190613c8a565b9250508190555060018160020160006101000a81548160ff0219169083151502179055506000816003018190555060008160040160006101000a81548160ff021916908315150217905550898481518110610d9d57610d9c613f4d565b5b602002602001015160056000610db1612a1c565b73ffffffffffffffffffffffffffffffffffffffff1673ffffffffffffffffffffffffffffffffffffffff16815260200190815260200160002060008460ff1660ff16815260200190815260200160002060006101000a81548173ffffffffffffffffffffffffffffffffffffffff021916908373ffffffffffffffffffffffffffffffffffffffff1602179055508160ff16600860008c8781518110610e5b57610e5a613f4d565b5b602002602001015173ffffffffffffffffffffffffffffffffffffffff1673ffffffffffffffffffffffffffffffffffffffff1681526020019081526020016000208190555050610c8b565b604051806101200160405280898152602001898152602001610ed56201518089612a2490919063ffffffff16565b81526020018860ff168152602001600160ff1681526020018a518152602001600160ff168152602001868152602001610f1a6201518042612ede90919063ffffffff16565b81525060066000610f29612a1c565b73ffffffffffffffffffffffffffffffffffffffff1673ffffffffffffffffffffffffffffffffffffffff16815260200190815260200160002060008201518160000155602082015181600101556040820151816002015560608201518160030160006101000a81548160ff021916908360ff16021790555060808201518160030160016101000a81548160ff021916908360ff16021790555060a0820151816004015560c08201518160050160006101000a81548160ff021916908360ff16021790555060e082015181600601556101008201518160070155905050600160096000611014612a1c565b73ffffffffffffffffffffffffffffffffffffffff1673ffffffffffffffffffffffffffffffffffffffff16815260200190815260200160002060006101000a81548160ff0219169083151502179055506004600081548092919061107890613e7c565b91905055506002600081548092919061109090613e7c565b91905055506001935050505095945050505050565b60008060009054906101000a900473ffffffffffffffffffffffffffffffffffffffff16905090565b60025481565b60006110de612a1c565b600760008273ffffffffffffffffffffffffffffffffffffffff1673ffffffffffffffffffffffffffffffffffffffff16815260200190815260200160002060000160009054906101000a900460ff1661116d576040517f08c379a000000000000000000000000000000000000000000000000000000000815260040161116490613ba2565b60405180910390fd5b8484611177612a1c565b8073ffffffffffffffffffffffffffffffffffffffff16600560008573ffffffffffffffffffffffffffffffffffffffff1673ffffffffffffffffffffffffffffffffffffffff16815260200190815260200160002060008460ff1660ff16815260200190815260200160002060009054906101000a900473ffffffffffffffffffffffffffffffffffffffff1673ffffffffffffffffffffffffffffffffffffffff161461125b576040517f08c379a000000000000000000000000000000000000000000000000000000000815260040161125290613a02565b60405180910390fd5b600060076000611269612a1c565b73ffffffffffffffffffffffffffffffffffffffff1673ffffffffffffffffffffffffffffffffffffffff1681526020019081526020016000206001015490506000600660008b73ffffffffffffffffffffffffffffffffffffffff1673ffffffffffffffffffffffffffffffffffffffff168152602001908152602001600020600601549050600760006112fc612a1c565b73ffffffffffffffffffffffffffffffffffffffff1673ffffffffffffffffffffffffffffffffffffffff16815260200190815260200160002060020160009054906101000a900460ff161580156113545750600082115b801561135f57508188145b61139e576040517f08c379a000000000000000000000000000000000000000000000000000000000815260040161139590613b02565b60405180910390fd5b600760006113aa612a1c565b73ffffffffffffffffffffffffffffffffffffffff1673ffffffffffffffffffffffffffffffffffffffff168152602001908152602001600020600301544211156114025780826113fb9190613c8a565b9150611403565b5b61141561140e612a1c565b3084612c76565b156114e7578160076000611427612a1c565b73ffffffffffffffffffffffffffffffffffffffff1673ffffffffffffffffffffffffffffffffffffffff16815260200190815260200160002060010160008282546114739190613d6b565b92505081905550600160076000611488612a1c565b73ffffffffffffffffffffffffffffffffffffffff1673ffffffffffffffffffffffffffffffffffffffff16815260200190815260200160002060020160006101000a81548160ff0219169083151502179055506001965050506114ee565b6000965050505b505050509392505050565b60086020528060005260406000206000915090505481565b60006009600061151f612a1c565b73ffffffffffffffffffffffffffffffffffffffff1673ffffffffffffffffffffffffffffffffffffffff16815260200190815260200160002060009054906101000a900460ff166115a6576040517f08c379a000000000000000000000000000000000000000000000000000000000815260040161159d90613982565b60405180910390fd5b600660006115b2612a1c565b73ffffffffffffffffffffffffffffffffffffffff1673ffffffffffffffffffffffffffffffffffffffff16815260200190815260200160002060070154421115611632576040517f08c379a000000000000000000000000000000000000000000000000000000000815260040161162990613842565b60405180910390fd5b816006600061163f612a1c565b73ffffffffffffffffffffffffffffffffffffffff1673ffffffffffffffffffffffffffffffffffffffff1681526020019081526020016000206006018190555060019050919050565b6000611693612a1c565b600760008273ffffffffffffffffffffffffffffffffffffffff1673ffffffffffffffffffffffffffffffffffffffff16815260200190815260200160002060000160009054906101000a900460ff16611722576040517f08c379a000000000000000000000000000000000000000000000000000000000815260040161171990613ba2565b60405180910390fd5b838361172c612a1c565b8073ffffffffffffffffffffffffffffffffffffffff16600560008573ffffffffffffffffffffffffffffffffffffffff1673ffffffffffffffffffffffffffffffffffffffff16815260200190815260200160002060008460ff1660ff16815260200190815260200160002060009054906101000a900473ffffffffffffffffffffffffffffffffffffffff1673ffffffffffffffffffffffffffffffffffffffff1614611810576040517f08c379a000000000000000000000000000000000000000000000000000000000815260040161180790613a02565b60405180910390fd5b6000600660008973ffffffffffffffffffffffffffffffffffffffff1673ffffffffffffffffffffffffffffffffffffffff16815260200190815260200160002060050160009054906101000a900460ff1690506000600560008a73ffffffffffffffffffffffffffffffffffffffff1673ffffffffffffffffffffffffffffffffffffffff16815260200190815260200160002060008360ff1660ff16815260200190815260200160002060009054906101000a900473ffffffffffffffffffffffffffffffffffffffff1690508073ffffffffffffffffffffffffffffffffffffffff166118fe612a1c565b73ffffffffffffffffffffffffffffffffffffffff1614611954576040517f08c379a000000000000000000000000000000000000000000000000000000000815260040161194b906139e2565b60405180910390fd5b6000600660008b73ffffffffffffffffffffffffffffffffffffffff1673ffffffffffffffffffffffffffffffffffffffff1681526020019081526020016000206004015490506000600660008c73ffffffffffffffffffffffffffffffffffffffff1673ffffffffffffffffffffffffffffffffffffffff16815260200190815260200160002060010154905060008111611a25576040517f08c379a0000000000000000000000000000000000000000000000000000000008152600401611a1c90613882565b60405180910390fd5b6000611a7c83600660008f73ffffffffffffffffffffffffffffffffffffffff1673ffffffffffffffffffffffffffffffffffffffff16815260200190815260200160002060000154612a2490919063ffffffff16565b905080821415611f5157600760008573ffffffffffffffffffffffffffffffffffffffff1673ffffffffffffffffffffffffffffffffffffffff16815260200190815260200160002060040160009054906101000a900460ff1615611b16576040517f08c379a0000000000000000000000000000000000000000000000000000000008152600401611b0d90613be2565b60405180910390fd5b6000600660008e73ffffffffffffffffffffffffffffffffffffffff1673ffffffffffffffffffffffffffffffffffffffff16815260200190815260200160002060030160009054906101000a900460ff1660ff169050611bc2600660008f73ffffffffffffffffffffffffffffffffffffffff1673ffffffffffffffffffffffffffffffffffffffff1681526020019081526020016000206002015442612ede90919063ffffffff16565b600760008773ffffffffffffffffffffffffffffffffffffffff1673ffffffffffffffffffffffffffffffffffffffff1681526020019081526020016000206003018190555060076000611c14612a1c565b73ffffffffffffffffffffffffffffffffffffffff1673ffffffffffffffffffffffffffffffffffffffff16815260200190815260200160002060020160009054906101000a900460ff16611c9e576040517f08c379a0000000000000000000000000000000000000000000000000000000008152600401611c95906139c2565b60405180910390fd5b611ca9308685612c76565b611ce8576040517f08c379a0000000000000000000000000000000000000000000000000000000008152600401611cdf90613b82565b60405180910390fd5b611d20611d116064611d038487612a2490919063ffffffff16565b612f3c90919063ffffffff16565b84612ede90919063ffffffff16565b600760008773ffffffffffffffffffffffffffffffffffffffff1673ffffffffffffffffffffffffffffffffffffffff16815260200190815260200160002060010181905550600060076000611d74612a1c565b73ffffffffffffffffffffffffffffffffffffffff1673ffffffffffffffffffffffffffffffffffffffff16815260200190815260200160002060020160006101000a81548160ff021916908315150217905550600660008e73ffffffffffffffffffffffffffffffffffffffff1673ffffffffffffffffffffffffffffffffffffffff168152602001908152602001600020600501600081819054906101000a900460ff1680929190611e2790613ec5565b91906101000a81548160ff021916908360ff1602179055505082600660008f73ffffffffffffffffffffffffffffffffffffffff1673ffffffffffffffffffffffffffffffffffffffff1681526020019081526020016000206001016000828254611e929190613d6b565b925050819055506001600760008773ffffffffffffffffffffffffffffffffffffffff1673ffffffffffffffffffffffffffffffffffffffff16815260200190815260200160002060040160006101000a81548160ff0219169083151502179055508473ffffffffffffffffffffffffffffffffffffffff167fe1fffcc4923d04b559f4d29a8bfc6cda04eb5b0d3c460751c2402c5c5cc9109c84604051611f3a9190613c02565b60405180910390a260019a50505050505050611f5b565b6000995050505050505b5050505092915050565b6000600660008373ffffffffffffffffffffffffffffffffffffffff1673ffffffffffffffffffffffffffffffffffffffff168152602001908152602001600020600101549050919050565b6000611fbb612a1c565b600760008273ffffffffffffffffffffffffffffffffffffffff1673ffffffffffffffffffffffffffffffffffffffff16815260200190815260200160002060000160009054906101000a900460ff1661204a576040517f08c379a000000000000000000000000000000000000000000000000000000000815260040161204190613ba2565b60405180910390fd5b8484612054612a1c565b8073ffffffffffffffffffffffffffffffffffffffff16600560008573ffffffffffffffffffffffffffffffffffffffff1673ffffffffffffffffffffffffffffffffffffffff16815260200190815260200160002060008460ff1660ff16815260200190815260200160002060009054906101000a900473ffffffffffffffffffffffffffffffffffffffff1673ffffffffffffffffffffffffffffffffffffffff1614612138576040517f08c379a000000000000000000000000000000000000000000000000000000000815260040161212f90613a02565b60405180910390fd5b6000600660008a73ffffffffffffffffffffffffffffffffffffffff1673ffffffffffffffffffffffffffffffffffffffff16815260200190815260200160002060040154905060006121d682600660008d73ffffffffffffffffffffffffffffffffffffffff1673ffffffffffffffffffffffffffffffffffffffff16815260200190815260200160002060000154612a2490919063ffffffff16565b905080600660008c73ffffffffffffffffffffffffffffffffffffffff1673ffffffffffffffffffffffffffffffffffffffff16815260200190815260200160002060010154141561225d576040517f08c379a000000000000000000000000000000000000000000000000000000000815260040161225490613962565b60405180910390fd5b80600660008c73ffffffffffffffffffffffffffffffffffffffff1673ffffffffffffffffffffffffffffffffffffffff168152602001908152602001600020600101541015612827576000600660008c73ffffffffffffffffffffffffffffffffffffffff1673ffffffffffffffffffffffffffffffffffffffff1681526020019081526020016000206000015490506122ff6122f9612a1c565b82612a9f565b61233e576040517f08c379a000000000000000000000000000000000000000000000000000000000815260040161233590613b22565b60405180910390fd5b600660008c73ffffffffffffffffffffffffffffffffffffffff1673ffffffffffffffffffffffffffffffffffffffff1681526020019081526020016000206000015489146123c2576040517f08c379a00000000000000000000000000000000000000000000000000000000081526004016123b990613942565b60405180910390fd5b6123ca612a1c565b73ffffffffffffffffffffffffffffffffffffffff16600560008d73ffffffffffffffffffffffffffffffffffffffff1673ffffffffffffffffffffffffffffffffffffffff16815260200190815260200160002060008c60ff1660ff16815260200190815260200160002060009054906101000a900473ffffffffffffffffffffffffffffffffffffffff1673ffffffffffffffffffffffffffffffffffffffff16146124ad576040517f08c379a00000000000000000000000000000000000000000000000000000000081526004016124a490613862565b60405180910390fd5b6000600760006124bb612a1c565b73ffffffffffffffffffffffffffffffffffffffff1673ffffffffffffffffffffffffffffffffffffffff1681526020019081526020016000206001015414612539576040517f08c379a000000000000000000000000000000000000000000000000000000000815260040161253090613ac2565b60405180910390fd5b6000612543612f86565b90506000612574670de0b6b3a76400006125668487612f3c90919063ffffffff16565b612a2490919063ffffffff16565b905080600160009054906101000a900473ffffffffffffffffffffffffffffffffffffffff1673ffffffffffffffffffffffffffffffffffffffff166370a082316125bd612a1c565b6040518263ffffffff1660e01b81526004016125d991906137a6565b60206040518083038186803b1580156125f157600080fd5b505afa158015612605573d6000803e3d6000fd5b505050506040513d601f19601f8201168201806040525081019061262991906132aa565b101561266a576040517f08c379a000000000000000000000000000000000000000000000000000000000815260040161266190613bc2565b60405180910390fd5b600160009054906101000a900473ffffffffffffffffffffffffffffffffffffffff1673ffffffffffffffffffffffffffffffffffffffff1663a9059cbb30836040518363ffffffff1660e01b81526004016126c79291906137c1565b602060405180830381600087803b1580156126e157600080fd5b505af11580156126f5573d6000803e3d6000fd5b505050506040513d601f19601f820116820180604052508101906127199190613250565b5061272c612725612a1c565b308d612c76565b61276b576040517f08c379a0000000000000000000000000000000000000000000000000000000008152600401612762906139a2565b60405180910390fd5b8a600660008f73ffffffffffffffffffffffffffffffffffffffff1673ffffffffffffffffffffffffffffffffffffffff16815260200190815260200160002060010160008282546127bd9190613c8a565b925050819055506127cc612a1c565b73ffffffffffffffffffffffffffffffffffffffff167fe1fffcc4923d04b559f4d29a8bfc6cda04eb5b0d3c460751c2402c5c5cc9109c8c6040516128119190613c02565b60405180910390a2600199505050505050612862565b6040517f08c379a000000000000000000000000000000000000000000000000000000000815260040161285990613ae2565b60405180910390fd5b505050509392505050565b60045481565b61287b612a1c565b73ffffffffffffffffffffffffffffffffffffffff166128996110a5565b73ffffffffffffffffffffffffffffffffffffffff16146128ef576040517f08c379a00000000000000000000000000000000000000000000000000000000081526004016128e690613a62565b60405180910390fd5b600073ffffffffffffffffffffffffffffffffffffffff168173ffffffffffffffffffffffffffffffffffffffff16141561295f576040517f08c379a0000000000000000000000000000000000000000000000000000000008152600401612956906138a2565b60405180910390fd5b8073ffffffffffffffffffffffffffffffffffffffff1660008054906101000a900473ffffffffffffffffffffffffffffffffffffffff1673ffffffffffffffffffffffffffffffffffffffff167f8be0079c531659141344cd1fd0a4f28419497f9722a3daafe3b4186f6b6457e060405160405180910390a3806000806101000a81548173ffffffffffffffffffffffffffffffffffffffff021916908373ffffffffffffffffffffffffffffffffffffffff16021790555050565b600033905090565b600080831415612a375760009050612a99565b60008284612a459190613d11565b9050828482612a549190613ce0565b14612a94576040517f08c379a0000000000000000000000000000000000000000000000000000000008152600401612a8b90613a42565b60405180910390fd5b809150505b92915050565b60006103e8600160009054906101000a900473ffffffffffffffffffffffffffffffffffffffff1673ffffffffffffffffffffffffffffffffffffffff166370a08231856040518263ffffffff1660e01b8152600401612aff91906137a6565b60206040518083038186803b158015612b1757600080fd5b505afa158015612b2b573d6000803e3d6000fd5b505050506040513d601f19601f82011682018060405250810190612b4f91906132aa565b1015612b90576040517f08c379a0000000000000000000000000000000000000000000000000000000008152600401612b8790613b62565b60405180910390fd5b6000612bb96064612bab600a86612a2490919063ffffffff16565b612f3c90919063ffffffff16565b9050600160009054906101000a900473ffffffffffffffffffffffffffffffffffffffff1673ffffffffffffffffffffffffffffffffffffffff1663a9059cbb30836040518363ffffffff1660e01b8152600401612c189291906137c1565b602060405180830381600087803b158015612c3257600080fd5b505af1158015612c46573d6000803e3d6000fd5b505050506040513d601f19601f82011682018060405250810190612c6a9190613250565b50600191505092915050565b6000807f000000000000000000000000000000000000000000000000000000000000000073ffffffffffffffffffffffffffffffffffffffff166370a08231866040518263ffffffff1660e01b8152600401612cd291906137a6565b602060405180830381600087803b158015612cec57600080fd5b505af1158015612d00573d6000803e3d6000fd5b505050506040513d601f19601f82011682018060405250810190612d2491906132aa565b90507f000000000000000000000000000000000000000000000000000000000000000073ffffffffffffffffffffffffffffffffffffffff1663a9059cbb85856040518363ffffffff1660e01b8152600401612d819291906137c1565b602060405180830381600087803b158015612d9b57600080fd5b505af1158015612daf573d6000803e3d6000fd5b505050506040513d601f19601f82011682018060405250810190612dd39190613250565b5080612e92847f000000000000000000000000000000000000000000000000000000000000000073ffffffffffffffffffffffffffffffffffffffff166370a08231896040518263ffffffff1660e01b8152600401612e3291906137a6565b602060405180830381600087803b158015612e4c57600080fd5b505af1158015612e60573d6000803e3d6000fd5b505050506040513d601f19601f82011682018060405250810190612e8491906132aa565b612ede90919063ffffffff16565b14612ed2576040517f08c379a0000000000000000000000000000000000000000000000000000000008152600401612ec990613922565b60405180910390fd5b60019150509392505050565b6000808284612eed9190613c8a565b905083811015612f32576040517f08c379a0000000000000000000000000000000000000000000000000000000008152600401612f29906138e2565b60405180910390fd5b8091505092915050565b6000612f7e83836040518060400160405280601a81526020017f536166654d6174683a206469766973696f6e206279207a65726f000000000000815250612f8f565b905092915050565b60006002905090565b60008083118290612fd6576040517f08c379a0000000000000000000000000000000000000000000000000000000008152600401612fcd9190613820565b60405180910390fd5b5060008385612fe59190613ce0565b9050809150509392505050565b600061300561300084613c42565b613c1d565b9050808382526020820190508285602086028201111561302857613027613fb0565b5b60005b85811015613058578161303e8882613062565b84526020840193506020830192505060018101905061302b565b5050509392505050565b60008135905061307181614510565b92915050565b600082601f83011261308c5761308b613fab565b5b813561309c848260208601612ff2565b91505092915050565b6000815190506130b481614527565b92915050565b6000813590506130c98161453e565b92915050565b6000815190506130de8161453e565b92915050565b6000813590506130f381614555565b92915050565b60006020828403121561310f5761310e613fba565b5b600061311d84828501613062565b91505092915050565b6000806040838503121561313d5761313c613fba565b5b600061314b85828601613062565b925050602061315c858286016130e4565b9150509250929050565b60008060006060848603121561317f5761317e613fba565b5b600061318d86828701613062565b935050602061319e868287016130e4565b92505060406131af868287016130ba565b9150509250925092565b600080600080600060a086880312156131d5576131d4613fba565b5b600086013567ffffffffffffffff8111156131f3576131f2613fb5565b5b6131ff88828901613077565b9550506020613210888289016130ba565b9450506040613221888289016130e4565b9350506060613232888289016130ba565b9250506080613243888289016130ba565b9150509295509295909350565b60006020828403121561326657613265613fba565b5b6000613274848285016130a5565b91505092915050565b60006020828403121561329357613292613fba565b5b60006132a1848285016130ba565b91505092915050565b6000602082840312156132c0576132bf613fba565b5b60006132ce848285016130cf565b91505092915050565b600080604083850312156132ee576132ed613fba565b5b60006132fc858286016130e4565b925050602061330d858286016130ba565b9150509250929050565b61332081613d9f565b82525050565b61332f81613db1565b82525050565b61333e81613df4565b82525050565b600061334f82613c6e565b6133598185613c79565b9350613369818560208601613e18565b61337281613fbf565b840191505092915050565b600061338a601483613c79565b915061339582613fd0565b602082019050919050565b60006133ad600883613c79565b91506133b882613ff9565b602082019050919050565b60006133d0601383613c79565b91506133db82614022565b602082019050919050565b60006133f3602683613c79565b91506133fe8261404b565b604082019050919050565b6000613416601183613c79565b91506134218261409a565b602082019050919050565b6000613439601b83613c79565b9150613444826140c3565b602082019050919050565b600061345c601a83613c79565b9150613467826140ec565b602082019050919050565b600061347f601483613c79565b915061348a82614115565b602082019050919050565b60006134a2600f83613c79565b91506134ad8261413e565b602082019050919050565b60006134c5600e83613c79565b91506134d082614167565b602082019050919050565b60006134e8600e83613c79565b91506134f382614190565b602082019050919050565b600061350b600b83613c79565b9150613516826141b9565b602082019050919050565b600061352e600c83613c79565b9150613539826141e2565b602082019050919050565b6000613551600d83613c79565b915061355c8261420b565b602082019050919050565b6000613574600783613c79565b915061357f82614234565b602082019050919050565b6000613597601583613c79565b91506135a28261425d565b602082019050919050565b60006135ba602183613c79565b91506135c582614286565b604082019050919050565b60006135dd602083613c79565b91506135e8826142d5565b602082019050919050565b6000613600601683613c79565b915061360b826142fe565b602082019050919050565b6000613623601b83613c79565b915061362e82614327565b602082019050919050565b6000613646601883613c79565b915061365182614350565b602082019050919050565b6000613669601183613c79565b915061367482614379565b602082019050919050565b600061368c602383613c79565b9150613697826143a2565b604082019050919050565b60006136af600583613c79565b91506136ba826143f1565b602082019050919050565b60006136d2600f83613c79565b91506136dd8261441a565b602082019050919050565b60006136f5601d83613c79565b915061370082614443565b602082019050919050565b6000613718601583613c79565b91506137238261446c565b602082019050919050565b600061373b600983613c79565b915061374682614495565b602082019050919050565b600061375e601683613c79565b9150613769826144be565b602082019050919050565b6000613781601083613c79565b915061378c826144e7565b602082019050919050565b6137a081613ddd565b82525050565b60006020820190506137bb6000830184613317565b92915050565b60006040820190506137d66000830185613317565b6137e36020830184613797565b9392505050565b60006020820190506137ff6000830184613326565b92915050565b600060208201905061381a6000830184613335565b92915050565b6000602082019050818103600083015261383a8184613344565b905092915050565b6000602082019050818103600083015261385b8161337d565b9050919050565b6000602082019050818103600083015261387b816133a0565b9050919050565b6000602082019050818103600083015261389b816133c3565b9050919050565b600060208201905081810360008301526138bb816133e6565b9050919050565b600060208201905081810360008301526138db81613409565b9050919050565b600060208201905081810360008301526138fb8161342c565b9050919050565b6000602082019050818103600083015261391b8161344f565b9050919050565b6000602082019050818103600083015261393b81613472565b9050919050565b6000602082019050818103600083015261395b81613495565b9050919050565b6000602082019050818103600083015261397b816134b8565b9050919050565b6000602082019050818103600083015261399b816134db565b9050919050565b600060208201905081810360008301526139bb816134fe565b9050919050565b600060208201905081810360008301526139db81613521565b9050919050565b600060208201905081810360008301526139fb81613544565b9050919050565b60006020820190508181036000830152613a1b81613567565b9050919050565b60006020820190508181036000830152613a3b8161358a565b9050919050565b60006020820190508181036000830152613a5b816135ad565b9050919050565b60006020820190508181036000830152613a7b816135d0565b9050919050565b60006020820190508181036000830152613a9b816135f3565b9050919050565b60006020820190508181036000830152613abb81613616565b9050919050565b60006020820190508181036000830152613adb81613639565b9050919050565b60006020820190508181036000830152613afb8161365c565b9050919050565b60006020820190508181036000830152613b1b8161367f565b9050919050565b60006020820190508181036000830152613b3b816136a2565b9050919050565b60006020820190508181036000830152613b5b816136c5565b9050919050565b60006020820190508181036000830152613b7b816136e8565b9050919050565b60006020820190508181036000830152613b9b8161370b565b9050919050565b60006020820190508181036000830152613bbb8161372e565b9050919050565b60006020820190508181036000830152613bdb81613751565b9050919050565b60006020820190508181036000830152613bfb81613774565b9050919050565b6000602082019050613c176000830184613797565b92915050565b6000613c27613c38565b9050613c338282613e4b565b919050565b6000604051905090565b600067ffffffffffffffff821115613c5d57613c5c613f7c565b5b602082029050602081019050919050565b600081519050919050565b600082825260208201905092915050565b6000613c9582613ddd565b9150613ca083613ddd565b9250827fffffffffffffffffffffffffffffffffffffffffffffffffffffffffffffffff03821115613cd557613cd4613eef565b5b828201905092915050565b6000613ceb82613ddd565b9150613cf683613ddd565b925082613d0657613d05613f1e565b5b828204905092915050565b6000613d1c82613ddd565b9150613d2783613ddd565b9250817fffffffffffffffffffffffffffffffffffffffffffffffffffffffffffffffff0483118215151615613d6057613d5f613eef565b5b828202905092915050565b6000613d7682613ddd565b9150613d8183613ddd565b925082821015613d9457613d93613eef565b5b828203905092915050565b6000613daa82613dbd565b9050919050565b60008115159050919050565b600073ffffffffffffffffffffffffffffffffffffffff82169050919050565b6000819050919050565b600060ff82169050919050565b6000613dff82613e06565b9050919050565b6000613e1182613dbd565b9050919050565b60005b83811015613e36578082015181840152602081019050613e1b565b83811115613e45576000848401525b50505050565b613e5482613fbf565b810181811067ffffffffffffffff82111715613e7357613e72613f7c565b5b80604052505050565b6000613e8782613ddd565b91507fffffffffffffffffffffffffffffffffffffffffffffffffffffffffffffffff821415613eba57613eb9613eef565b5b600182019050919050565b6000613ed082613de7565b915060ff821415613ee457613ee3613eef565b5b600182019050919050565b7f4e487b7100000000000000000000000000000000000000000000000000000000600052601160045260246000fd5b7f4e487b7100000000000000000000000000000000000000000000000000000000600052601260045260246000fd5b7f4e487b7100000000000000000000000000000000000000000000000000000000600052603260045260246000fd5b7f4e487b7100000000000000000000000000000000000000000000000000000000600052604160045260246000fd5b600080fd5b600080fd5b600080fd5b600080fd5b6000601f19601f8301169050919050565b7f477261636520706572696f642065787069726573000000000000000000000000600082015250565b7f46616b652062726f000000000000000000000000000000000000000000000000600082015250565b7f4e6f7468696e6720746f20776974686472617700000000000000000000000000600082015250565b7f4f776e61626c653a206e6577206f776e657220697320746865207a65726f206160008201527f6464726573730000000000000000000000000000000000000000000000000000602082015250565b7f556e617574686f72697a65642075736572000000000000000000000000000000600082015250565b7f536166654d6174683a206164646974696f6e206f766572666c6f770000000000600082015250565b7f4e6f7420617661696c61626c6520617420746869732074696d65000000000000600082015250565b7f536f6d657468696e672077656e742077726f6e67000000000000000000000000600082015250565b7f496e76616c6964206465706f7369740000000000000000000000000000000000600082015250565b7f506f6f6c20636f6d706c65746564000000000000000000000000000000000000600082015250565b7f4e6f7420417574686f72697a6564000000000000000000000000000000000000600082015250565b7f4261642042726f74686572000000000000000000000000000000000000000000600082015250565b7f4e6f7420656c696769626c650000000000000000000000000000000000000000600082015250565b7f4e6f7420796f7572207475726e00000000000000000000000000000000000000600082015250565b7f4e6f207469657300000000000000000000000000000000000000000000000000600082015250565b7f4d756c7469706c6520726567697374726174696f6e0000000000000000000000600082015250565b7f536166654d6174683a206d756c7469706c69636174696f6e206f766572666c6f60008201527f7700000000000000000000000000000000000000000000000000000000000000602082015250565b7f4f776e61626c653a2063616c6c6572206973206e6f7420746865206f776e6572600082015250565b7f427574207768793f20436f6e7369646572207265737400000000000000000000600082015250565b7f4d617820657874656e73696f6e2074696d652065786365656465640000000000600082015250565b7f4f75747374616e64696e672064656274206e6f74696365640000000000000000600082015250565b7f4465706f73697420636f6d706c65746564000000000000000000000000000000600082015250565b7f4e6f2070726576696f75732064656274204f72207061796261636b20746f6f2060008201527f6c6f770000000000000000000000000000000000000000000000000000000000602082015250565b7f4572726f72000000000000000000000000000000000000000000000000000000600082015250565b7f31302042726f7468657273204d61780000000000000000000000000000000000600082015250565b7f4174206c6561737420313030302042524f206973207265717569726564000000600082015250565b7f536f6d657468696e672077656e742077726f6e672e0000000000000000000000600082015250565b7f4e6f7420612062726f0000000000000000000000000000000000000000000000600082015250565b7f4e6f7420656e6f7567682042726f2042616c616e636500000000000000000000600082015250565b7f416c726561647920726563656976656400000000000000000000000000000000600082015250565b61451981613d9f565b811461452457600080fd5b50565b61453081613db1565b811461453b57600080fd5b50565b61454781613ddd565b811461455257600080fd5b50565b61455e81613de7565b811461456957600080fd5b5056fea264697066735822122011527ae5d4001716aca0b61da9f5bedc287b627ec8258220227652c6485b344364736f6c63430008050033",
  "immutableReferences": {
    "988": [
      {
        "length": 32,
        "start": 1894
      },
      {
        "length": 32,
        "start": 11387
      },
      {
        "length": 32,
        "start": 11560
      },
      {
        "length": 32,
        "start": 11739
      }
    ]
  },
  "source": "// SPDX-License-Identifier: MIT\r\n\r\npragma solidity >=0.6.12;\r\n\r\n\r\nimport './SafeMath.sol';\r\nimport './Ownable.sol';\r\nimport './Context.sol';\r\nimport './BroToken.sol';\r\n\r\ninterface BUSD {\r\n    function deposit() external payable;\r\n    function transfer(address to, uint256 value) external returns (bool);\r\n    function withdraw(uint256) external;\r\n    function balanceOf(address user) external returns(uint256);\r\n}\r\n\r\ncontract PeerBrothers is Ownable {\r\n\r\n    using SafeMath for uint256;\r\n    \r\n    event Deposit(address indexed brother, uint amount);\r\n    \r\n    event Received(address indexed brother, uint amount);\r\n\r\n    IBEP20 public broToken;\r\n    \r\n    uint public groupCount;\r\n    \r\n    bool private pauseGroupActivity;\r\n    \r\n    address public immutable busd = 0xe9e7CEA3DedcA5984780Bafc599bD69ADd087D56;\r\n    \r\n    uint public peerBrotherCount;\r\n\r\n    struct PeerInfo {\r\n        uint unit;\r\n        uint totalPoolToDate;\r\n        uint maxDuration;\r\n        uint8 agreedRate;\r\n        uint8 staged;\r\n        uint groupSize;\r\n        uint8 rotator;\r\n        uint penaltyFee;\r\n        uint permitTime;\r\n    }\r\n    \r\n    struct BrotherInfo {\r\n        bool isBroListed;\r\n        uint debt;\r\n        bool isCreditor;\r\n        uint payDay;\r\n        bool isPaid;\r\n        uint credit;\r\n        \r\n    }\r\n\r\n    mapping(address => mapping(uint8 => address)) public soulBrothers;\r\n    \r\n    mapping(address => PeerInfo) private peerInfo;\r\n    \r\n    mapping(address => BrotherInfo) private broInfo;\r\n    \r\n    mapping(address => uint) public position;\r\n    \r\n    mapping(address => bool) public isABigBrother;\r\n    \r\n    \r\n    modifier isABrother(address _bro) {\r\n        require(broInfo[_bro].isBroListed, 'Not a bro');\r\n        _;\r\n    }\r\n    \r\n    modifier isBinded(address _admin, uint8 _position, address target) {\r\n        require(soulBrothers[_admin][_position] == target, 'No ties');\r\n        _;\r\n    }\r\n\r\n    constructor(IBEP20 _broToken){ //, address _baseToken\r\n        broToken = _broToken;\r\n        // busd = _baseToken;\r\n    }\r\n    \r\n    receive () external payable {\r\n        if(msg.value < 1e17 wei) revert();\r\n    }\r\n    \r\n    function pause() public onlyOwner returns(bool) {\r\n        pauseGroupActivity = false;\r\n        return true;\r\n    }\r\n    \r\n    function unpause() public onlyOwner returns(bool) {\r\n        pauseGroupActivity = true;\r\n        return true;\r\n    }\r\n    \r\n    function _deductFst(address msgSender, uint unitAmount) internal returns(bool) {\r\n        require(broToken.balanceOf(msgSender) >= 1000, 'At least 1000 BRO is required');\r\n        uint fstdepo = unitAmount.mul(10).div(100);\r\n        broToken.transfer(address(this), fstdepo);\r\n        return true;\r\n    }\r\n    \r\n    function _safeTransferBUSD(address sender, address recipient, uint _amount) internal returns(bool) {\r\n        uint previousBalance = BUSD(busd).balanceOf(sender);\r\n        BUSD(busd).transfer(recipient, _amount);\r\n        require(BUSD(busd).balanceOf(sender).add(_amount) == previousBalance, 'Something went wrong');\r\n        return true;\r\n        \r\n    }\r\n\r\n    function setTies(\r\n        address[] memory _brothers, \r\n        uint _unitAmount, \r\n        uint8 _interestRate, \r\n        uint _maxDurationInDays,\r\n        uint _penaltyFeeInBUSD\r\n        ) external returns(bool) {\r\n            require(pauseGroupActivity, 'Not available at this time');\r\n            require(_deductFst(_msgSender(), _unitAmount), 'Error');\r\n            require(_brothers.length <= 10, '10 Brothers Max');\r\n            require(_maxDurationInDays.mul(1 days) <= 7 days, 'But why? Consider rest');\r\n            require(peerInfo[_msgSender()].staged == 0 || position[_msgSender()] == 0, 'Multiple registration');\r\n            require(_safeTransferBUSD(_msgSender(), address(this), _unitAmount), 'Bad Brother');\r\n            uint i = 0;\r\n            uint num_Bro = _brothers.length;\r\n            uint8 _identifier = 0;\r\n            while (i < num_Bro) {\r\n                i += 1;\r\n                _identifier ++;\r\n                BrotherInfo storage bro = broInfo[_brothers[i]];\r\n                bro.isBroListed = true;\r\n                bro.debt += 0;\r\n                bro.isCreditor = true;\r\n                bro.payDay = 0;\r\n                bro.isPaid = false;\r\n                soulBrothers[_msgSender()][_identifier] = _brothers[i];\r\n                position[_brothers[i]] = _identifier;\r\n            }\r\n            peerInfo[_msgSender()] = PeerInfo({\r\n                unit: _unitAmount,\r\n                totalPoolToDate: _unitAmount,\r\n                agreedRate: _interestRate,\r\n                maxDuration: _maxDurationInDays.mul(1 days),\r\n                staged: 1,\r\n                groupSize: _brothers.length,\r\n                rotator: 1,\r\n                penaltyFee: _penaltyFeeInBUSD,\r\n                permitTime: block.timestamp.add(1 days)\r\n                \r\n            });\r\n        isABigBrother[_msgSender()] = true;\r\n        peerBrotherCount ++;\r\n        groupCount ++;\r\n        return true;\r\n    }\r\n    \r\n    function getCurrentPrice() internal pure returns(uint256) {\r\n        return 2;\r\n    }\r\n\r\n    function deposit(\r\n        address admin, \r\n        uint8 _position, \r\n        uint _deposit\r\n        ) \r\n        external \r\n        isABrother(_msgSender()) \r\n        isBinded(admin, _position, _msgSender()) \r\n        returns(bool) \r\n        {\r\n        uint groupSize = peerInfo[admin].groupSize;\r\n        uint totalUSDPool = peerInfo[admin].unit.mul(groupSize);\r\n        \r\n        if(peerInfo[admin].totalPoolToDate == totalUSDPool) {\r\n            revert('Pool completed');\r\n        } else if(peerInfo[admin].totalPoolToDate < totalUSDPool){\r\n            uint unitPay = peerInfo[admin].unit;\r\n            require(_deductFst(_msgSender(), unitPay), 'Error');\r\n            require(_deposit == peerInfo[admin].unit, 'Invalid deposit');\r\n            require(soulBrothers[admin][_position] == _msgSender(), 'Fake bro');\r\n            require(broInfo[_msgSender()].debt == 0, 'Outstanding debt noticed');\r\n            uint curentPrice = getCurrentPrice();\r\n            uint mustHave = totalUSDPool.div(curentPrice).mul(1e18);\r\n            require(broToken.balanceOf(_msgSender()) >= mustHave, 'Not enough Bro Balance');\r\n            broToken.transfer(address(this), mustHave);\r\n            require(_safeTransferBUSD(_msgSender(), address(this), _deposit), 'Bad Brother');\r\n            \r\n            peerInfo[admin].totalPoolToDate += _deposit;\r\n            \r\n            emit Deposit(_msgSender(), _deposit);\r\n            \r\n            return true;\r\n        } else {\r\n            revert('Deposit completed');\r\n        }\r\n        \r\n    }\r\n    \r\n    function recieve(address admin, uint8 _position) public isABrother(_msgSender()) isBinded(admin, _position, _msgSender()) returns(bool) {\r\n        uint8 rotator = peerInfo[admin].rotator;\r\n        address next = soulBrothers[admin][rotator];\r\n        require(_msgSender() == next, 'Not your turn');\r\n        \r\n        uint groupSize = peerInfo[admin].groupSize;\r\n        uint poolToDate = peerInfo[admin].totalPoolToDate;\r\n        require(poolToDate > 0, 'Nothing to withdraw');\r\n        uint totalUSDPool = peerInfo[admin].unit.mul(groupSize);\r\n        if(poolToDate == totalUSDPool) {\r\n            require(!broInfo[next].isPaid, 'Already received');\r\n            uint _rate = peerInfo[admin].agreedRate;\r\n            broInfo[next].payDay = block.timestamp.add(peerInfo[admin].maxDuration);\r\n            \r\n            require(broInfo[_msgSender()].isCreditor, 'Not eligible');\r\n            require(_safeTransferBUSD(address(this), next, poolToDate), 'Something went wrong.');\r\n            broInfo[next].debt = poolToDate.add(poolToDate.mul(_rate).div(100));\r\n            broInfo[_msgSender()].isCreditor = false;\r\n            peerInfo[admin].rotator ++;\r\n            \r\n            peerInfo[admin].totalPoolToDate -= poolToDate;\r\n            broInfo[next].isPaid = true;\r\n            \r\n            emit Deposit(next, poolToDate);\r\n            \r\n            return true;\r\n        } else {\r\n            return false;\r\n        }\r\n        \r\n        \r\n    }\r\n\r\n    function payBack(address _admin, uint8 _position, uint _owings) external isABrother(_msgSender()) isBinded(_admin, _position, _msgSender()) returns(bool) {\r\n        uint outstandingDebt = broInfo[_msgSender()].debt;\r\n        uint penalty = peerInfo[_admin].penaltyFee;\r\n        require(!broInfo[_msgSender()].isCreditor && outstandingDebt > 0 && _owings == outstandingDebt, 'No previous debt Or payback too low');\r\n        if(block.timestamp > broInfo[_msgSender()].payDay){\r\n            outstandingDebt += penalty; \r\n        } else {\r\n            outstandingDebt = outstandingDebt;\r\n        }\r\n        if(_safeTransferBUSD(_msgSender(), address(this), outstandingDebt)) {\r\n            broInfo[_msgSender()].debt -= outstandingDebt;\r\n            broInfo[_msgSender()].isCreditor = true;\r\n            return true;\r\n        } else{\r\n            return false;\r\n        }\r\n        \r\n    }\r\n\r\n    function extend(uint8 _targetPosition, uint extenda) external returns(bool) {\r\n        require(isABigBrother[_msgSender()], 'Unauthorized user');\r\n        require(extenda <= 14, 'Max extension time exceeded');\r\n        address targ = soulBrothers[_msgSender()][_targetPosition];\r\n        broInfo[targ].payDay += (extenda.mul(1 days));\r\n        return true;\r\n    }\r\n    \r\n    function currentGetTotalPool(address grpAdminAddress) public view returns(uint256) {\r\n        return peerInfo[grpAdminAddress].totalPoolToDate;\r\n    }\r\n    \r\n    function adjustPenalty(uint _newPenaltyFee) public returns(bool) {\r\n        require(isABigBrother[_msgSender()], 'Not Authorized');\r\n        require(block.timestamp <= peerInfo[_msgSender()].permitTime, 'Grace period expires');\r\n        peerInfo[_msgSender()].penaltyFee = _newPenaltyFee;\r\n        return true;\r\n    }\r\n    \r\n    \r\n    \r\n    \r\n}\r\n",
  "sourcePath": "C:/Users/Dell/Desktop/brother/brothersFinance/contracts/PeerBrother.sol",
  "compiler": {
    "name": "solc",
    "version": "0.8.5+commit.a4f2e591.Emscripten.clang"
  },
  "schemaVersion": "3.4.1",
  "updatedAt": "2021-06-17T00:07:16.587Z",
  "devdoc": {
    "kind": "dev",
    "methods": {
      "owner()": {
        "details": "Returns the address of the current owner."
      },
      "renounceOwnership()": {
        "details": "Leaves the contract without owner. It will not be possible to call `onlyOwner` functions anymore. Can only be called by the current owner. NOTE: Renouncing ownership will leave the contract without an owner, thereby removing any functionality that is only available to the owner."
      },
      "transferOwnership(address)": {
        "details": "Transfers ownership of the contract to a new account (`newOwner`). Can only be called by the current owner."
      }
    },
    "version": 1
  },
  "userdoc": {
    "kind": "user",
    "methods": {},
    "version": 1
  }
}