{
  "contractName": "Airdrop",
  "abi": [
    {
      "inputs": [
        {
          "internalType": "contract SafeBrosToken",
          "name": "_token",
          "type": "address"
        }
      ],
      "stateMutability": "nonpayable",
      "type": "constructor"
    },
    {
      "anonymous": false,
      "inputs": [
        {
          "indexed": true,
          "internalType": "address",
          "name": "_NewHunter",
          "type": "address"
        }
      ],
      "name": "NewHunter",
      "type": "event"
    },
    {
      "anonymous": false,
      "inputs": [
        {
          "indexed": true,
          "internalType": "address",
          "name": "previousOwner",
          "type": "address"
        },
        {
          "indexed": true,
          "internalType": "address",
          "name": "newOwner",
          "type": "address"
        }
      ],
      "name": "OwnershipTransferred",
      "type": "event"
    },
    {
      "inputs": [],
      "name": "airdropCount",
      "outputs": [
        {
          "internalType": "uint8",
          "name": "",
          "type": "uint8"
        }
      ],
      "stateMutability": "view",
      "type": "function"
    },
    {
      "inputs": [
        {
          "internalType": "uint8",
          "name": "",
          "type": "uint8"
        }
      ],
      "name": "airdrops",
      "outputs": [
        {
          "internalType": "uint256",
          "name": "poolBalance",
          "type": "uint256"
        },
        {
          "internalType": "bool",
          "name": "active",
          "type": "bool"
        },
        {
          "internalType": "uint256",
          "name": "activeTime",
          "type": "uint256"
        },
        {
          "internalType": "uint256",
          "name": "totalClaimed",
          "type": "uint256"
        },
        {
          "internalType": "uint256",
          "name": "unitClaim",
          "type": "uint256"
        }
      ],
      "stateMutability": "view",
      "type": "function"
    },
    {
      "inputs": [
        {
          "internalType": "address",
          "name": "",
          "type": "address"
        }
      ],
      "name": "exist",
      "outputs": [
        {
          "internalType": "bool",
          "name": "",
          "type": "bool"
        }
      ],
      "stateMutability": "view",
      "type": "function"
    },
    {
      "inputs": [
        {
          "internalType": "address",
          "name": "",
          "type": "address"
        }
      ],
      "name": "isAPeerBrother",
      "outputs": [
        {
          "internalType": "bool",
          "name": "",
          "type": "bool"
        }
      ],
      "stateMutability": "view",
      "type": "function"
    },
    {
      "inputs": [
        {
          "internalType": "address",
          "name": "",
          "type": "address"
        }
      ],
      "name": "isAdmin",
      "outputs": [
        {
          "internalType": "bool",
          "name": "",
          "type": "bool"
        }
      ],
      "stateMutability": "view",
      "type": "function"
    },
    {
      "inputs": [],
      "name": "owner",
      "outputs": [
        {
          "internalType": "address",
          "name": "",
          "type": "address"
        }
      ],
      "stateMutability": "view",
      "type": "function"
    },
    {
      "inputs": [
        {
          "internalType": "address",
          "name": "",
          "type": "address"
        }
      ],
      "name": "peerLedger",
      "outputs": [
        {
          "internalType": "uint256",
          "name": "",
          "type": "uint256"
        }
      ],
      "stateMutability": "view",
      "type": "function"
    },
    {
      "inputs": [],
      "name": "renounceOwnership",
      "outputs": [],
      "stateMutability": "nonpayable",
      "type": "function"
    },
    {
      "inputs": [],
      "name": "totalClaimants",
      "outputs": [
        {
          "internalType": "uint256",
          "name": "",
          "type": "uint256"
        }
      ],
      "stateMutability": "view",
      "type": "function"
    },
    {
      "inputs": [],
      "name": "totalSignUpCount",
      "outputs": [
        {
          "internalType": "uint256",
          "name": "",
          "type": "uint256"
        }
      ],
      "stateMutability": "view",
      "type": "function"
    },
    {
      "inputs": [
        {
          "internalType": "address",
          "name": "newOwner",
          "type": "address"
        }
      ],
      "name": "transferOwnership",
      "outputs": [],
      "stateMutability": "nonpayable",
      "type": "function"
    },
    {
      "inputs": [
        {
          "internalType": "address",
          "name": "",
          "type": "address"
        }
      ],
      "name": "upline",
      "outputs": [
        {
          "internalType": "address",
          "name": "",
          "type": "address"
        }
      ],
      "stateMutability": "view",
      "type": "function"
    },
    {
      "inputs": [
        {
          "internalType": "uint8",
          "name": "activeTimeInDays",
          "type": "uint8"
        },
        {
          "internalType": "uint256",
          "name": "_totalPool",
          "type": "uint256"
        },
        {
          "internalType": "uint256",
          "name": "_unitClaim",
          "type": "uint256"
        }
      ],
      "name": "createDrop",
      "outputs": [
        {
          "internalType": "bool",
          "name": "",
          "type": "bool"
        }
      ],
      "stateMutability": "nonpayable",
      "type": "function"
    },
    {
      "inputs": [
        {
          "internalType": "string",
          "name": "twitterLink",
          "type": "string"
        },
        {
          "internalType": "string",
          "name": "tgUsername",
          "type": "string"
        },
        {
          "internalType": "string",
          "name": "reddit",
          "type": "string"
        },
        {
          "internalType": "string",
          "name": "additionalLink",
          "type": "string"
        }
      ],
      "name": "signUpForAidrop",
      "outputs": [
        {
          "internalType": "bool",
          "name": "",
          "type": "bool"
        }
      ],
      "stateMutability": "nonpayable",
      "type": "function"
    },
    {
      "inputs": [
        {
          "internalType": "address",
          "name": "target",
          "type": "address"
        },
        {
          "internalType": "uint8",
          "name": "airdropId",
          "type": "uint8"
        }
      ],
      "name": "approveForAirdrop",
      "outputs": [
        {
          "internalType": "bool",
          "name": "",
          "type": "bool"
        }
      ],
      "stateMutability": "nonpayable",
      "type": "function"
    },
    {
      "inputs": [
        {
          "internalType": "address[]",
          "name": "targets",
          "type": "address[]"
        },
        {
          "internalType": "uint8",
          "name": "airdropId",
          "type": "uint8"
        }
      ],
      "name": "approveMultiplehunters",
      "outputs": [
        {
          "internalType": "bool",
          "name": "",
          "type": "bool"
        }
      ],
      "stateMutability": "nonpayable",
      "type": "function"
    },
    {
      "inputs": [
        {
          "internalType": "uint8",
          "name": "airdropId",
          "type": "uint8"
        }
      ],
      "name": "checkhunterStatus",
      "outputs": [
        {
          "internalType": "enum Periphery.Status",
          "name": "",
          "type": "uint8"
        }
      ],
      "stateMutability": "view",
      "type": "function"
    },
    {
      "inputs": [
        {
          "internalType": "uint8",
          "name": "_airdropId",
          "type": "uint8"
        },
        {
          "internalType": "bool",
          "name": "_state",
          "type": "bool"
        }
      ],
      "name": "manualactivateOrDeactairdrop",
      "outputs": [
        {
          "internalType": "bool",
          "name": "",
          "type": "bool"
        }
      ],
      "stateMutability": "nonpayable",
      "type": "function"
    },
    {
      "inputs": [
        {
          "internalType": "address",
          "name": "user",
          "type": "address"
        },
        {
          "internalType": "uint8",
          "name": "_airdropId",
          "type": "uint8"
        }
      ],
      "name": "getHunterLinks",
      "outputs": [
        {
          "internalType": "string",
          "name": "",
          "type": "string"
        },
        {
          "internalType": "string",
          "name": "",
          "type": "string"
        },
        {
          "internalType": "string",
          "name": "",
          "type": "string"
        },
        {
          "internalType": "string",
          "name": "",
          "type": "string"
        },
        {
          "internalType": "uint256",
          "name": "",
          "type": "uint256"
        },
        {
          "internalType": "enum Periphery.Status",
          "name": "_status",
          "type": "uint8"
        }
      ],
      "stateMutability": "view",
      "type": "function"
    },
    {
      "inputs": [
        {
          "internalType": "uint8",
          "name": "airdropId",
          "type": "uint8"
        }
      ],
      "name": "claim",
      "outputs": [
        {
          "internalType": "bool",
          "name": "",
          "type": "bool"
        }
      ],
      "stateMutability": "nonpayable",
      "type": "function"
    }
  ],
  "bytecode": "0x608060405234801561001057600080fd5b50604051611a8f380380611a8f83398101604081905261002f91610095565b600080546001600160a01b031916339081178255604051909182917f8be0079c531659141344cd1fd0a4f28419497f9722a3daafe3b4186f6b6457e0908290a350600680546001600160a01b0319166001600160a01b03929092169190911790556100c5565b6000602082840312156100a757600080fd5b81516001600160a01b03811681146100be57600080fd5b9392505050565b6119bb806100d46000396000f3fe608060405234801561001057600080fd5b506004361061012c5760003560e01c80638da5cb5b116100ad578063c448fe8a11610071578063c448fe8a14610301578063e952f74f14610314578063f2fde38b1461033a578063f45519381461034d578063f78fd2ea1461036057600080fd5b80638da5cb5b1461029757806395d4063f146102a8578063adf067b4146102bb578063b22d6a71146102ce578063bc83ddc4146102ee57600080fd5b80634dfefc4b116100f45780634dfefc4b14610205578063629593bb1461022857806369a473a01461026d578063715018a614610284578063877645711461028e57600080fd5b80630e3bd35214610131578063242e99e21461017757806324d7806c1461019a57806326da7cc0146101bd5780633004c6f1146101e0575b600080fd5b61015a61013f366004611457565b6005602052600090815260409020546001600160a01b031681565b6040516001600160a01b0390911681526020015b60405180910390f35b61018a610185366004611472565b6103c9565b604051901515815260200161016e565b61018a6101a8366004611457565b60046020526000908152604090205460ff1681565b61018a6101cb366004611457565b60026020526000908152604090205460ff1681565b6101f36101ee366004611472565b610506565b60405161016e96959493929190611750565b61018a610213366004611457565b60016020526000908152604090205460ff1681565b61026061023636600461164e565b60ff9081166000908152600960209081526040808320338452600590810190925290912001541690565b60405161016e9190611742565b61027660085481565b60405190815260200161016e565b61028c6107d8565b005b61027660075481565b6000546001600160a01b031661015a565b61018a6102b636600461164e565b61084c565b61018a6102c93660046114a5565b610b93565b6102766102dc366004611457565b60036020526000908152604090205481565b61018a6102fc366004611588565b610d39565b61018a61030f366004611669565b610f1c565b60065461032890600160a01b900460ff1681565b60405160ff909116815260200161016e565b61028c610348366004611457565b61104e565b61018a61035b3660046116a0565b611138565b6103a161036e36600461164e565b60096020526000908152604090208054600182015460028301546003840154600490940154929360ff9092169290919085565b604080519586529315156020860152928401919091526060830152608082015260a00161016e565b3360009081526004602052604081205460ff166104015760405162461bcd60e51b81526004016103f8906117be565b60405180910390fd5b60ff82811660009081526009602090815260408083203384526005908101909252909120015460019116600381111561043c5761043c611932565b1461047c5760405162461bcd60e51b815260206004820152601060248201526f155cd95c881b9bdd08185b1b1bddd95960821b60448201526064016103f8565b6001600160a01b0383163314156104cd5760405162461bcd60e51b815260206004820152601560248201527410591b5a5b8e8811985a5b195908185d1d195b5c1d605a1b60448201526064016103f8565b5060ff81166000908152600960209081526040808320338452600590810190925290912001805460ff1916600217905560015b92915050565b33600090815260046020526040812054606091829182918291819060ff166105405760405162461bcd60e51b81526004016103f8906117be565b60ff80881660009081526009602090815260408083206001600160a01b038d1684526005808201909352922060048101549181015481548c958e95946001850193600286019360038701939190911690869061059b906118a6565b80601f01602080910402602001604051908101604052809291908181526020018280546105c7906118a6565b80156106145780601f106105e957610100808354040283529160200191610614565b820191906000526020600020905b8154815290600101906020018083116105f757829003601f168201915b50505050509550848054610627906118a6565b80601f0160208091040260200160405190810160405280929190818152602001828054610653906118a6565b80156106a05780601f10610675576101008083540402835291602001916106a0565b820191906000526020600020905b81548152906001019060200180831161068357829003601f168201915b505050505094508380546106b3906118a6565b80601f01602080910402602001604051908101604052809291908181526020018280546106df906118a6565b801561072c5780601f106107015761010080835404028352916020019161072c565b820191906000526020600020905b81548152906001019060200180831161070f57829003601f168201915b5050505050935082805461073f906118a6565b80601f016020809104026020016040519081016040528092919081815260200182805461076b906118a6565b80156107b85780601f1061078d576101008083540402835291602001916107b8565b820191906000526020600020905b81548152906001019060200180831161079b57829003601f168201915b505050505092509850985098509850985098505050509295509295509295565b6000546001600160a01b031633146108025760405162461bcd60e51b81526004016103f8906117e6565b600080546040516001600160a01b03909116907f8be0079c531659141344cd1fd0a4f28419497f9722a3daafe3b4186f6b6457e0908390a3600080546001600160a01b0319169055565b60065460009060ff600160a01b909104811690831611156108a55760405162461bcd60e51b815260206004820152601360248201527214dd58da08191bd95cc81b9bdd08195e1a5cdd606a1b60448201526064016103f8565b60ff8281166000908152600960209081526040808320338452600590810190925290912001546002911660038111156108e0576108e0611932565b146109255760405162461bcd60e51b8152602060048201526015602482015274119c9a595b990e88139bdd081c5d585b1a599a5959605a1b60448201526064016103f8565b60ff82166000908152600960205260409020600201544281116109655760ff831660009081526009602052604090206001908101805460ff191690911790555b60ff808416600090815260096020526040902060010154166109bf5760405162461bcd60e51b815260206004820152601360248201527241697264726f7020697320696e61637469766560681b60448201526064016103f8565b60ff831660009081526009602052604081206004810154905490916109e48284611302565b1115610b4f576001600760008282546109fd919061184c565b90915550506006546001600160a01b0316635698755a30336040516001600160e01b031960e085901b1681526001600160a01b0392831660048201529116602482015260448101859052606401602060405180830381600087803b158015610a6457600080fd5b505af1158015610a78573d6000803e3d6000fd5b505050506040513d601f19601f82011682018060405250810190610a9c919061156b565b5060ff8516600081815260096020818152604080842033855260058082018452918520909101805460ff19166003908117909155948452919052919091018054849290610aea90849061184c565b909155505060ff851660009081526009602052604081208054849290610b1190849061188f565b909155505060ff851660009081526009602090815260408083203384526006019091529020805460ff19166003178155600754600190910155610b88565b60405162461bcd60e51b815260206004820152600e60248201526d105a5c991c9bdc0818db1bdcd95960921b60448201526064016103f8565b506001949350505050565b3360009081526004602052604081205460ff16610bc25760405162461bcd60e51b81526004016103f8906117be565b60005b8351811015610d2f576000600960008560ff1660ff1681526020019081526020016000206005016000868481518110610c0057610c00611948565b6020908102919091018101516001600160a01b031682528101919091526040016000206005015460ff166003811115610c3b57610c3b611932565b14610c7b5760405162461bcd60e51b815260206004820152601060248201526f155cd95c881b9bdd08185b1b1bddd95960821b60448201526064016103f8565b336001600160a01b0316848281518110610c9757610c97611948565b60200260200101516001600160a01b03161415610cee5760405162461bcd60e51b815260206004820152601560248201527410591b5a5b8e8811985a5b195908185d1d195b5c1d605a1b60448201526064016103f8565b60ff83166000908152600960209081526040808320338452600590810190925290912001805460ff1916600217905580610d27816118e1565b915050610bc5565b5060019392505050565b60065460ff600160a01b9091048116600090815260096020908152604080832033845260059081019092528220015490918291166003811115610d7e57610d7e611932565b14610dcb5760405162461bcd60e51b815260206004820152601960248201527f467269656e643a20596f7520616c72656164792065786973740000000000000060448201526064016103f8565b600160086000828254610dde919061184c565b90915550506040805160c0810182528681526020808201879052818301869052606082018590526008546080830152600160a0830152600654600160a01b900460ff166000908152600982528381203382526005018252929092208151805192939192610e4e9284920190611321565b506020828101518051610e679260018501920190611321565b5060408201518051610e83916002840191602090910190611321565b5060608201518051610e9f916003840191602090910190611321565b506080820151600482015560a082015160058201805460ff19166001836003811115610ecd57610ecd611932565b0217905550905050610edc3390565b6001600160a01b03167f321d106f02677cea82f17f0d0a2a9a1480dfc096d211903012f619e68a2018b460405160405180910390a2506001949350505050565b3360009081526004602052604081205460ff16610f4b5760405162461bcd60e51b81526004016103f8906117be565b81610fcc5760ff80841660009081526009602052604090206001015416610faa5760405162461bcd60e51b8152602060048201526013602482015272105b1c9958591e4819195858dd1a5d985d1959606a1b60448201526064016103f8565b60ff83166000908152600960205260409020600101805460ff19169055611045565b60ff80841660009081526009602052604090206001015416156110225760405162461bcd60e51b815260206004820152600e60248201526d416c72656164792061637469766560901b60448201526064016103f8565b60ff831660009081526009602052604090206001908101805460ff191690911790555b50600192915050565b6000546001600160a01b031633146110785760405162461bcd60e51b81526004016103f8906117e6565b6001600160a01b0381166110dd5760405162461bcd60e51b815260206004820152602660248201527f4f776e61626c653a206e6577206f776e657220697320746865207a65726f206160448201526564647265737360d01b60648201526084016103f8565b600080546040516001600160a01b03808516939216917f8be0079c531659141344cd1fd0a4f28419497f9722a3daafe3b4186f6b6457e091a3600080546001600160a01b0319166001600160a01b0392909216919091179055565b600080546001600160a01b031633146111635760405162461bcd60e51b81526004016103f8906117e6565b600654610100600160a01b90910460ff16106111b55760405162461bcd60e51b8152602060048201526011602482015270109493ce8810d85c08195e18d959591959607a1b60448201526064016103f8565b6006546040516370a0823160e01b81523060048201526001600160a01b03909116906370a082319060240160206040518083038186803b1580156111f857600080fd5b505afa15801561120c573d6000803e3d6000fd5b505050506040513d601f19601f820116820180604052508101906112309190611635565b83106112725760405162461bcd60e51b8152602060048201526011602482015270706f6f6c206f7574206f662072616e676560781b60448201526064016103f8565b60068054600160a01b900460ff1690601461128c836118fc565b82546101009290920a60ff818102199093169183160217909155600654600160a01b90048116600090815260096020526040902060018101805460ff1916905591506112ed906112e190871662015180611864565b429062ffffff16611315565b60028201559283555060049091015550600190565b600061130e828461188f565b9392505050565b600061130e828461184c565b82805461132d906118a6565b90600052602060002090601f01602090048101928261134f5760008555611395565b82601f1061136857805160ff1916838001178555611395565b82800160010185558215611395579182015b8281111561139557825182559160200191906001019061137a565b506113a19291506113a5565b5090565b5b808211156113a157600081556001016113a6565b80356001600160a01b03811681146113d157600080fd5b919050565b600082601f8301126113e757600080fd5b813567ffffffffffffffff8111156114015761140161195e565b611414601f8201601f191660200161181b565b81815284602083860101111561142957600080fd5b816020850160208301376000918101602001919091529392505050565b803560ff811681146113d157600080fd5b60006020828403121561146957600080fd5b61130e826113ba565b6000806040838503121561148557600080fd5b61148e836113ba565b915061149c60208401611446565b90509250929050565b600080604083850312156114b857600080fd5b823567ffffffffffffffff808211156114d057600080fd5b818501915085601f8301126114e457600080fd5b81356020828211156114f8576114f861195e565b8160051b925061150981840161181b565b8281528181019085830185870184018b101561152457600080fd5b600096505b8487101561154e5761153a816113ba565b835260019690960195918301918301611529565b50965061155e9050878201611446565b9450505050509250929050565b60006020828403121561157d57600080fd5b815161130e81611974565b6000806000806080858703121561159e57600080fd5b843567ffffffffffffffff808211156115b657600080fd5b6115c2888389016113d6565b955060208701359150808211156115d857600080fd5b6115e4888389016113d6565b945060408701359150808211156115fa57600080fd5b611606888389016113d6565b9350606087013591508082111561161c57600080fd5b50611629878288016113d6565b91505092959194509250565b60006020828403121561164757600080fd5b5051919050565b60006020828403121561166057600080fd5b61130e82611446565b6000806040838503121561167c57600080fd5b61168583611446565b9150602083013561169581611974565b809150509250929050565b6000806000606084860312156116b557600080fd5b6116be84611446565b95602085013595506040909401359392505050565b600481106116f157634e487b7160e01b600052602160045260246000fd5b9052565b6000815180845260005b8181101561171b576020818501810151868301820152016116ff565b8181111561172d576000602083870101525b50601f01601f19169290920160200192915050565b6020810161050082846116d3565b60c08152600061176360c08301896116f5565b828103602084015261177581896116f5565b9050828103604084015261178981886116f5565b9050828103606084015261179d81876116f5565b9150508360808301526117b360a08301846116d3565b979650505050505050565b6020808252600e908201526d139bdd08105d5d1a1bdc9a5e995960921b604082015260600190565b6020808252818101527f4f776e61626c653a2063616c6c6572206973206e6f7420746865206f776e6572604082015260600190565b604051601f8201601f1916810167ffffffffffffffff811182821017156118445761184461195e565b604052919050565b6000821982111561185f5761185f61191c565b500190565b600062ffffff808316818516818304811182151516156118865761188661191c565b02949350505050565b6000828210156118a1576118a161191c565b500390565b600181811c908216806118ba57607f821691505b602082108114156118db57634e487b7160e01b600052602260045260246000fd5b50919050565b60006000198214156118f5576118f561191c565b5060010190565b600060ff821660ff8114156119135761191361191c565b60010192915050565b634e487b7160e01b600052601160045260246000fd5b634e487b7160e01b600052602160045260246000fd5b634e487b7160e01b600052603260045260246000fd5b634e487b7160e01b600052604160045260246000fd5b801515811461198257600080fd5b5056fea264697066735822122072d8a55cca46faf86d0d1c8253ccaa8e570b977b7b667253967bde2454cbc41e64736f6c63430008060033",
  "immutableReferences": {},
  "source": "// SPDX-License-Identifier: MIT\r\n\r\npragma solidity ^0.8.0;\r\n\r\nimport \"openzeppelin-solidity/contracts/access/Ownable.sol\";\r\nimport \"openzeppelin-solidity/contracts/utils/math/SafeMath.sol\";\r\n\r\nimport './SafeBrosToken.sol';\r\nimport './lib/Periphery.sol';\r\n\r\ncontract Airdrop is Ownable, Periphery{\r\n\r\n    using SafeMath for uint256;\r\n\r\n    SafeBrosToken token;\r\n\r\n    uint8 public airdropCount;\r\n\r\n    uint256 public totalClaimants;\r\n\r\n    uint public totalSignUpCount;\r\n\r\n    event NewHunter(address indexed _NewHunter);\r\n\r\n    struct AirdropInfo {\r\n        uint256 poolBalance;\r\n        bool active;\r\n        uint activeTime;\r\n        uint256 totalClaimed;\r\n        uint256 unitClaim;\r\n        mapping(address => Infos) users;\r\n        mapping(address => Claim) _claimant;\r\n    }\r\n\r\n    struct Infos {\r\n        string twiiter;\r\n        string telegramUsername;\r\n        string reddit;\r\n        string othersLinks;\r\n        uint256 id;\r\n        Status _status;\r\n    }\r\n\r\n    struct Claim {\r\n        Status _status;\r\n        uint256 id;\r\n    }\r\n\r\n    mapping(uint8 => AirdropInfo) public airdrops;\r\n    \r\n\r\n    constructor (SafeBrosToken _token) {\r\n        token = _token;\r\n    }\r\n\r\n    function createDrop(uint8 activeTimeInDays, uint256 _totalPool, uint _unitClaim) public onlyOwner returns(bool) {\r\n        require(airdropCount < 2**8, 'BRO: Cap exceeded');\r\n        require(activeTimeInDays >= 0, 'Unsigned integer expected');\r\n        require(_totalPool < token.balanceOf(address(this)), 'pool out of range');\r\n        airdropCount ++;\r\n        AirdropInfo storage _new = airdrops[airdropCount];\r\n        _new.active = false;\r\n        _new.activeTime = block.timestamp.add(1 days * activeTimeInDays);\r\n        _new.poolBalance = _totalPool;\r\n        _new.unitClaim = _unitClaim;\r\n\r\n        return true;\r\n    }\r\n\r\n    function signUpForAidrop(\r\n        string memory twitterLink, \r\n        string memory tgUsername, \r\n        string memory reddit,\r\n        string memory additionalLink\r\n        ) public returns(bool) {\r\n            require(airdrops[airdropCount].users[_msgSender()]._status == Status.Zeroed, 'Friend: You already exist');\r\n            totalSignUpCount += 1;\r\n            airdrops[airdropCount].users[_msgSender()] = Infos(twitterLink, tgUsername, reddit, additionalLink, totalSignUpCount, Status.WaitListed);\r\n\r\n            emit NewHunter(_msgSender());\r\n            return true;\r\n    }\r\n\r\n    // @dev: or approved admin to approve a users.\r\n    function approveForAirdrop(address target, uint8 airdropId) public onlyRole returns(bool) {\r\n        require(airdrops[airdropId].users[_msgSender()]._status == Status.WaitListed, 'User not allowed');\r\n        require(target != _msgSender(), 'Admin: Failed attempt');\r\n        airdrops[airdropId].users[_msgSender()]._status = Status.Approved;\r\n\r\n        return true;\r\n    }\r\n\r\n    function approveMultiplehunters(address[] memory targets, uint8 airdropId)  public onlyRole returns(bool) {\r\n        for(uint i=0; i<targets.length; i++){\r\n            require(airdrops[airdropId].users[targets[i]]._status == Status.Zeroed, 'User not allowed');\r\n            require(targets[i] != _msgSender(), 'Admin: Failed attempt');\r\n            airdrops[airdropId].users[_msgSender()]._status = Status.Approved;\r\n            }\r\n        return true;\r\n    }\r\n\r\n    function checkhunterStatus(uint8 airdropId) public view returns(Status) {\r\n        return airdrops[airdropId].users[_msgSender()]._status;\r\n    }\r\n\r\n    function manualactivateOrDeactairdrop(uint8 _airdropId, bool _state)public onlyRole returns(bool){\r\n        \r\n        if(!_state) {\r\n            require(airdrops[_airdropId].active, 'Already deactivated');\r\n            airdrops[_airdropId].active = false;\r\n        } else {\r\n            require(!airdrops[_airdropId].active, 'Already active');\r\n            airdrops[_airdropId].active = true;\r\n        }\r\n        return true;\r\n    }\r\n\r\n    function getHunterLinks(address user, uint8 _airdropId) public view onlyRole returns(string memory, string memory, string memory, string memory, uint, Status _status) {\r\n        uint8 ai = _airdropId;\r\n        address u = user;\r\n        AirdropInfo storage a = airdrops[ai];\r\n        return (a.users[u].twiiter, a.users[u].telegramUsername, a.users[u].reddit, a.users[u].othersLinks, a.users[u].id, a.users[u]._status);\r\n    }\r\n    \r\n    function claim(uint8 airdropId) public returns( bool){\r\n        require(airdropId <= airdropCount, 'Such does not exist');\r\n        require(airdrops[airdropId].users[_msgSender()]._status == Status.Approved, 'Friend: Not qualified');\r\n        uint256 activetime = airdrops[airdropId].activeTime;\r\n        if(block.timestamp >= activetime) {\r\n            airdrops[airdropId].active = true;\r\n        }\r\n        require(airdrops[airdropId].active, 'Airdrop is inactive');\r\n        uint claimable = airdrops[airdropId].unitClaim;\r\n        uint airdropBalance = airdrops[airdropId].poolBalance;\r\n        \r\n        if(airdropBalance.sub(claimable) > 0){\r\n            totalClaimants += 1;\r\n            token.transfer2(address(this), _msgSender(), claimable);\r\n            airdrops[airdropId].users[_msgSender()]._status = Status.Claimed;\r\n            airdrops[airdropId].totalClaimed += claimable;\r\n            airdrops[airdropId].poolBalance -= claimable;\r\n\r\n            Claim storage _claim = airdrops[airdropId]._claimant[_msgSender()];\r\n            _claim._status =  Status.Claimed;\r\n            _claim.id = totalClaimants;\r\n        } else {\r\n            revert(\"Airdrop closed\");\r\n        }\r\n        return true;\r\n    }\r\n}",
  "sourcePath": "C:/Users/Dell/Desktop/brother/BrothersFinance/contracts/Airdrop.sol",
  "compiler": {
    "name": "solc",
    "version": "0.8.6+commit.11564f7e.Emscripten.clang"
  },
  "schemaVersion": "3.4.1",
  "updatedAt": "2021-07-13T21:21:26.586Z",
  "devdoc": {
    "kind": "dev",
    "methods": {
      "owner()": {
        "details": "Returns the address of the current owner."
      },
      "renounceOwnership()": {
        "details": "Leaves the contract without owner. It will not be possible to call `onlyOwner` functions anymore. Can only be called by the current owner. NOTE: Renouncing ownership will leave the contract without an owner, thereby removing any functionality that is only available to the owner."
      },
      "transferOwnership(address)": {
        "details": "Transfers ownership of the contract to a new account (`newOwner`). Can only be called by the current owner."
      }
    },
    "version": 1
  },
  "userdoc": {
    "kind": "user",
    "methods": {},
    "version": 1
  }
}