{
  "contractName": "Airdrop",
  "abi": [
    {
      "inputs": [
        {
          "internalType": "contract SafeBrosToken",
          "name": "_token",
          "type": "address"
        }
      ],
      "stateMutability": "nonpayable",
      "type": "constructor"
    },
    {
      "anonymous": false,
      "inputs": [
        {
          "indexed": true,
          "internalType": "address",
          "name": "_NewHunter",
          "type": "address"
        }
      ],
      "name": "NewHunter",
      "type": "event"
    },
    {
      "anonymous": false,
      "inputs": [
        {
          "indexed": true,
          "internalType": "address",
          "name": "previousOwner",
          "type": "address"
        },
        {
          "indexed": true,
          "internalType": "address",
          "name": "newOwner",
          "type": "address"
        }
      ],
      "name": "OwnershipTransferred",
      "type": "event"
    },
    {
      "inputs": [],
      "name": "airdropCount",
      "outputs": [
        {
          "internalType": "uint8",
          "name": "",
          "type": "uint8"
        }
      ],
      "stateMutability": "view",
      "type": "function",
      "constant": true
    },
    {
      "inputs": [
        {
          "internalType": "uint8",
          "name": "",
          "type": "uint8"
        }
      ],
      "name": "airdrops",
      "outputs": [
        {
          "internalType": "uint256",
          "name": "poolBalance",
          "type": "uint256"
        },
        {
          "internalType": "bool",
          "name": "active",
          "type": "bool"
        },
        {
          "internalType": "uint256",
          "name": "activeTime",
          "type": "uint256"
        },
        {
          "internalType": "uint256",
          "name": "totalClaimed",
          "type": "uint256"
        },
        {
          "internalType": "uint256",
          "name": "unitClaim",
          "type": "uint256"
        }
      ],
      "stateMutability": "view",
      "type": "function",
      "constant": true
    },
    {
      "inputs": [
        {
          "internalType": "address",
          "name": "",
          "type": "address"
        }
      ],
      "name": "exist",
      "outputs": [
        {
          "internalType": "bool",
          "name": "",
          "type": "bool"
        }
      ],
      "stateMutability": "view",
      "type": "function",
      "constant": true
    },
    {
      "inputs": [
        {
          "internalType": "address",
          "name": "",
          "type": "address"
        }
      ],
      "name": "isAPeerBrother",
      "outputs": [
        {
          "internalType": "bool",
          "name": "",
          "type": "bool"
        }
      ],
      "stateMutability": "view",
      "type": "function",
      "constant": true
    },
    {
      "inputs": [
        {
          "internalType": "address",
          "name": "",
          "type": "address"
        }
      ],
      "name": "isAdmin",
      "outputs": [
        {
          "internalType": "bool",
          "name": "",
          "type": "bool"
        }
      ],
      "stateMutability": "view",
      "type": "function",
      "constant": true
    },
    {
      "inputs": [],
      "name": "owner",
      "outputs": [
        {
          "internalType": "address",
          "name": "",
          "type": "address"
        }
      ],
      "stateMutability": "view",
      "type": "function",
      "constant": true
    },
    {
      "inputs": [
        {
          "internalType": "address",
          "name": "",
          "type": "address"
        }
      ],
      "name": "peerLedger",
      "outputs": [
        {
          "internalType": "uint256",
          "name": "",
          "type": "uint256"
        }
      ],
      "stateMutability": "view",
      "type": "function",
      "constant": true
    },
    {
      "inputs": [],
      "name": "renounceOwnership",
      "outputs": [],
      "stateMutability": "nonpayable",
      "type": "function"
    },
    {
      "inputs": [],
      "name": "totalClaimants",
      "outputs": [
        {
          "internalType": "uint256",
          "name": "",
          "type": "uint256"
        }
      ],
      "stateMutability": "view",
      "type": "function",
      "constant": true
    },
    {
      "inputs": [],
      "name": "totalSignUpCount",
      "outputs": [
        {
          "internalType": "uint256",
          "name": "",
          "type": "uint256"
        }
      ],
      "stateMutability": "view",
      "type": "function",
      "constant": true
    },
    {
      "inputs": [
        {
          "internalType": "address",
          "name": "newOwner",
          "type": "address"
        }
      ],
      "name": "transferOwnership",
      "outputs": [],
      "stateMutability": "nonpayable",
      "type": "function"
    },
    {
      "inputs": [
        {
          "internalType": "uint8",
          "name": "activeTimeInDays",
          "type": "uint8"
        },
        {
          "internalType": "uint256",
          "name": "_totalPool",
          "type": "uint256"
        },
        {
          "internalType": "uint256",
          "name": "_unitClaim",
          "type": "uint256"
        }
      ],
      "name": "createDrop",
      "outputs": [
        {
          "internalType": "bool",
          "name": "",
          "type": "bool"
        }
      ],
      "stateMutability": "nonpayable",
      "type": "function"
    },
    {
      "inputs": [
        {
          "internalType": "string",
          "name": "twitterLink",
          "type": "string"
        },
        {
          "internalType": "string",
          "name": "tgUsername",
          "type": "string"
        },
        {
          "internalType": "string",
          "name": "reddit",
          "type": "string"
        },
        {
          "internalType": "string",
          "name": "additionalLink",
          "type": "string"
        }
      ],
      "name": "signUpForAidrop",
      "outputs": [
        {
          "internalType": "bool",
          "name": "",
          "type": "bool"
        }
      ],
      "stateMutability": "nonpayable",
      "type": "function"
    },
    {
      "inputs": [
        {
          "internalType": "address",
          "name": "target",
          "type": "address"
        },
        {
          "internalType": "uint8",
          "name": "airdropId",
          "type": "uint8"
        }
      ],
      "name": "approveForAirdrop",
      "outputs": [
        {
          "internalType": "bool",
          "name": "",
          "type": "bool"
        }
      ],
      "stateMutability": "nonpayable",
      "type": "function"
    },
    {
      "inputs": [
        {
          "internalType": "address[]",
          "name": "targets",
          "type": "address[]"
        },
        {
          "internalType": "uint8",
          "name": "airdropId",
          "type": "uint8"
        }
      ],
      "name": "approveMultiplehunters",
      "outputs": [
        {
          "internalType": "bool",
          "name": "",
          "type": "bool"
        }
      ],
      "stateMutability": "nonpayable",
      "type": "function"
    },
    {
      "inputs": [
        {
          "internalType": "uint8",
          "name": "airdropId",
          "type": "uint8"
        }
      ],
      "name": "checkhunterStatus",
      "outputs": [
        {
          "internalType": "enum Periphery.Status",
          "name": "",
          "type": "uint8"
        }
      ],
      "stateMutability": "view",
      "type": "function",
      "constant": true
    },
    {
      "inputs": [
        {
          "internalType": "uint8",
          "name": "_airdropId",
          "type": "uint8"
        },
        {
          "internalType": "bool",
          "name": "_state",
          "type": "bool"
        }
      ],
      "name": "manualactivateOrDeactairdrop",
      "outputs": [
        {
          "internalType": "bool",
          "name": "",
          "type": "bool"
        }
      ],
      "stateMutability": "nonpayable",
      "type": "function"
    },
    {
      "inputs": [
        {
          "internalType": "address",
          "name": "user",
          "type": "address"
        },
        {
          "internalType": "uint8",
          "name": "_airdropId",
          "type": "uint8"
        }
      ],
      "name": "getHunterLinks",
      "outputs": [
        {
          "internalType": "string",
          "name": "",
          "type": "string"
        },
        {
          "internalType": "string",
          "name": "",
          "type": "string"
        },
        {
          "internalType": "string",
          "name": "",
          "type": "string"
        },
        {
          "internalType": "string",
          "name": "",
          "type": "string"
        },
        {
          "internalType": "uint256",
          "name": "",
          "type": "uint256"
        },
        {
          "internalType": "enum Periphery.Status",
          "name": "_status",
          "type": "uint8"
        }
      ],
      "stateMutability": "view",
      "type": "function",
      "constant": true
    },
    {
      "inputs": [
        {
          "internalType": "uint8",
          "name": "airdropId",
          "type": "uint8"
        }
      ],
      "name": "claim",
      "outputs": [
        {
          "internalType": "bool",
          "name": "",
          "type": "bool"
        }
      ],
      "stateMutability": "nonpayable",
      "type": "function"
    }
  ],
  "bytecode": "0x608060405234801561001057600080fd5b50604051611a4e380380611a4e83398101604081905261002f91610095565b600080546001600160a01b031916339081178255604051909182917f8be0079c531659141344cd1fd0a4f28419497f9722a3daafe3b4186f6b6457e0908290a350600580546001600160a01b0319166001600160a01b03929092169190911790556100c5565b6000602082840312156100a757600080fd5b81516001600160a01b03811681146100be57600080fd5b9392505050565b61197a806100d46000396000f3fe608060405234801561001057600080fd5b50600436106101215760003560e01c80638da5cb5b116100ad578063c448fe8a11610071578063c448fe8a146102bf578063e952f74f146102d2578063f2fde38b146102f8578063f45519381461030b578063f78fd2ea1461031e57600080fd5b80638da5cb5b1461024b57806395d4063f14610266578063adf067b414610279578063b22d6a711461028c578063bc83ddc4146102ac57600080fd5b80634dfefc4b116100f45780634dfefc4b146101b9578063629593bb146101dc57806369a473a014610221578063715018a614610238578063877645711461024257600080fd5b8063242e99e21461012657806324d7806c1461014e57806326da7cc0146101715780633004c6f114610194575b600080fd5b610139610134366004611431565b610387565b60405190151581526020015b60405180910390f35b61013961015c366004611416565b60046020526000908152604090205460ff1681565b61013961017f366004611416565b60026020526000908152604090205460ff1681565b6101a76101a2366004611431565b6104c4565b6040516101459695949392919061170f565b6101396101c7366004611416565b60016020526000908152604090205460ff1681565b6102146101ea36600461160d565b60ff9081166000908152600860209081526040808320338452600590810190925290912001541690565b6040516101459190611701565b61022a60075481565b604051908152602001610145565b610240610796565b005b61022a60065481565b6000546040516001600160a01b039091168152602001610145565b61013961027436600461160d565b61080a565b610139610287366004611464565b610b53565b61022a61029a366004611416565b60036020526000908152604090205481565b6101396102ba366004611547565b610cf9565b6101396102cd366004611628565b610edb565b6005546102e690600160a01b900460ff1681565b60405160ff9091168152602001610145565b610240610306366004611416565b61100d565b61013961031936600461165f565b6110f7565b61035f61032c36600461160d565b60086020526000908152604090208054600182015460028301546003840154600490940154929360ff9092169290919085565b604080519586529315156020860152928401919091526060830152608082015260a001610145565b3360009081526004602052604081205460ff166103bf5760405162461bcd60e51b81526004016103b69061177d565b60405180910390fd5b60ff8281166000908152600860209081526040808320338452600590810190925290912001546001911660038111156103fa576103fa6118f1565b1461043a5760405162461bcd60e51b815260206004820152601060248201526f155cd95c881b9bdd08185b1b1bddd95960821b60448201526064016103b6565b6001600160a01b03831633141561048b5760405162461bcd60e51b815260206004820152601560248201527410591b5a5b8e8811985a5b195908185d1d195b5c1d605a1b60448201526064016103b6565b5060ff81166000908152600860209081526040808320338452600590810190925290912001805460ff1916600217905560015b92915050565b33600090815260046020526040812054606091829182918291819060ff166104fe5760405162461bcd60e51b81526004016103b69061177d565b60ff80881660009081526008602090815260408083206001600160a01b038d1684526005808201909352922060048101549181015481548c958e95946001850193600286019360038701939190911690869061055990611865565b80601f016020809104026020016040519081016040528092919081815260200182805461058590611865565b80156105d25780601f106105a7576101008083540402835291602001916105d2565b820191906000526020600020905b8154815290600101906020018083116105b557829003601f168201915b505050505095508480546105e590611865565b80601f016020809104026020016040519081016040528092919081815260200182805461061190611865565b801561065e5780601f106106335761010080835404028352916020019161065e565b820191906000526020600020905b81548152906001019060200180831161064157829003601f168201915b5050505050945083805461067190611865565b80601f016020809104026020016040519081016040528092919081815260200182805461069d90611865565b80156106ea5780601f106106bf576101008083540402835291602001916106ea565b820191906000526020600020905b8154815290600101906020018083116106cd57829003601f168201915b505050505093508280546106fd90611865565b80601f016020809104026020016040519081016040528092919081815260200182805461072990611865565b80156107765780601f1061074b57610100808354040283529160200191610776565b820191906000526020600020905b81548152906001019060200180831161075957829003601f168201915b505050505092509850985098509850985098505050509295509295509295565b6000546001600160a01b031633146107c05760405162461bcd60e51b81526004016103b6906117a5565b600080546040516001600160a01b03909116907f8be0079c531659141344cd1fd0a4f28419497f9722a3daafe3b4186f6b6457e0908390a3600080546001600160a01b0319169055565b60055460009060ff600160a01b909104811690831611156108635760405162461bcd60e51b815260206004820152601360248201527214dd58da08191bd95cc81b9bdd08195e1a5cdd606a1b60448201526064016103b6565b60ff82811660009081526008602090815260408083203384526005908101909252909120015460029116600381111561089e5761089e6118f1565b146108e35760405162461bcd60e51b8152602060048201526015602482015274119c9a595b990e88139bdd081c5d585b1a599a5959605a1b60448201526064016103b6565b60ff82166000908152600860205260409020600201544281116109235760ff831660009081526008602052604090206001908101805460ff191690911790555b60ff8084166000908152600860205260409020600101541661097d5760405162461bcd60e51b815260206004820152601360248201527241697264726f7020697320696e61637469766560681b60448201526064016103b6565b60ff831660009081526008602052604081206004810154905490916109a282846112c1565b1115610b0f576001600660008282546109bb919061180b565b90915550506005546001600160a01b0316635698755a30336040516001600160e01b031960e085901b1681526001600160a01b0392831660048201529116602482015260448101859052606401602060405180830381600087803b158015610a2257600080fd5b505af1158015610a36573d6000803e3d6000fd5b505050506040513d601f19601f82011682018060405250810190610a5a919061152a565b5060ff8516600081815260086020818152604080842033855260058082018452918520909101805460ff19166003908117909155948452919052919091018054849290610aa890849061180b565b909155505060ff851660009081526008602052604081208054849290610acf90849061184e565b909155505060ff851660009081526008602090815260408083203384526006908101909252909120805460ff191660031781559054600190910155610b48565b60405162461bcd60e51b815260206004820152600e60248201526d105a5c991c9bdc0818db1bdcd95960921b60448201526064016103b6565b506001949350505050565b3360009081526004602052604081205460ff16610b825760405162461bcd60e51b81526004016103b69061177d565b60005b8351811015610cef576000600860008560ff1660ff1681526020019081526020016000206005016000868481518110610bc057610bc0611907565b6020908102919091018101516001600160a01b031682528101919091526040016000206005015460ff166003811115610bfb57610bfb6118f1565b14610c3b5760405162461bcd60e51b815260206004820152601060248201526f155cd95c881b9bdd08185b1b1bddd95960821b60448201526064016103b6565b336001600160a01b0316848281518110610c5757610c57611907565b60200260200101516001600160a01b03161415610cae5760405162461bcd60e51b815260206004820152601560248201527410591b5a5b8e8811985a5b195908185d1d195b5c1d605a1b60448201526064016103b6565b60ff83166000908152600860209081526040808320338452600590810190925290912001805460ff1916600217905580610ce7816118a0565b915050610b85565b5060019392505050565b6005805460ff600160a01b9091048116600090815260086020908152604080832033845285019091528120909201548291166003811115610d3c57610d3c6118f1565b14610d895760405162461bcd60e51b815260206004820152601960248201527f467269656e643a20596f7520616c72656164792065786973740000000000000060448201526064016103b6565b600160076000828254610d9c919061180b565b90915550506040805160c0810182528681526020808201879052818301869052606082018590526007546080830152600160a083015260058054600160a01b900460ff166000908152600883528481203382529091018252929092208151805192939192610e0d92849201906112e0565b506020828101518051610e2692600185019201906112e0565b5060408201518051610e429160028401916020909101906112e0565b5060608201518051610e5e9160038401916020909101906112e0565b506080820151600482015560a082015160058201805460ff19166001836003811115610e8c57610e8c6118f1565b0217905550905050610e9b3390565b6001600160a01b03167f321d106f02677cea82f17f0d0a2a9a1480dfc096d211903012f619e68a2018b460405160405180910390a2506001949350505050565b3360009081526004602052604081205460ff16610f0a5760405162461bcd60e51b81526004016103b69061177d565b81610f8b5760ff80841660009081526008602052604090206001015416610f695760405162461bcd60e51b8152602060048201526013602482015272105b1c9958591e4819195858dd1a5d985d1959606a1b60448201526064016103b6565b60ff83166000908152600860205260409020600101805460ff19169055611004565b60ff8084166000908152600860205260409020600101541615610fe15760405162461bcd60e51b815260206004820152600e60248201526d416c72656164792061637469766560901b60448201526064016103b6565b60ff831660009081526008602052604090206001908101805460ff191690911790555b50600192915050565b6000546001600160a01b031633146110375760405162461bcd60e51b81526004016103b6906117a5565b6001600160a01b03811661109c5760405162461bcd60e51b815260206004820152602660248201527f4f776e61626c653a206e6577206f776e657220697320746865207a65726f206160448201526564647265737360d01b60648201526084016103b6565b600080546040516001600160a01b03808516939216917f8be0079c531659141344cd1fd0a4f28419497f9722a3daafe3b4186f6b6457e091a3600080546001600160a01b0319166001600160a01b0392909216919091179055565b600080546001600160a01b031633146111225760405162461bcd60e51b81526004016103b6906117a5565b600554610100600160a01b90910460ff16106111745760405162461bcd60e51b8152602060048201526011602482015270109493ce8810d85c08195e18d959591959607a1b60448201526064016103b6565b6005546040516370a0823160e01b81523060048201526001600160a01b03909116906370a082319060240160206040518083038186803b1580156111b757600080fd5b505afa1580156111cb573d6000803e3d6000fd5b505050506040513d601f19601f820116820180604052508101906111ef91906115f4565b83106112315760405162461bcd60e51b8152602060048201526011602482015270706f6f6c206f7574206f662072616e676560781b60448201526064016103b6565b60058054600160a01b900460ff1690601461124b836118bb565b82546101009290920a60ff818102199093169183160217909155600554600160a01b90048116600090815260086020526040902060018101805460ff1916905591506112ac906112a090871662015180611823565b429062ffffff166112d4565b60028201559283555060049091015550600190565b60006112cd828461184e565b9392505050565b60006112cd828461180b565b8280546112ec90611865565b90600052602060002090601f01602090048101928261130e5760008555611354565b82601f1061132757805160ff1916838001178555611354565b82800160010185558215611354579182015b82811115611354578251825591602001919060010190611339565b50611360929150611364565b5090565b5b808211156113605760008155600101611365565b80356001600160a01b038116811461139057600080fd5b919050565b600082601f8301126113a657600080fd5b813567ffffffffffffffff8111156113c0576113c061191d565b6113d3601f8201601f19166020016117da565b8181528460208386010111156113e857600080fd5b816020850160208301376000918101602001919091529392505050565b803560ff8116811461139057600080fd5b60006020828403121561142857600080fd5b6112cd82611379565b6000806040838503121561144457600080fd5b61144d83611379565b915061145b60208401611405565b90509250929050565b6000806040838503121561147757600080fd5b823567ffffffffffffffff8082111561148f57600080fd5b818501915085601f8301126114a357600080fd5b81356020828211156114b7576114b761191d565b8160051b92506114c88184016117da565b8281528181019085830185870184018b10156114e357600080fd5b600096505b8487101561150d576114f981611379565b8352600196909601959183019183016114e8565b50965061151d9050878201611405565b9450505050509250929050565b60006020828403121561153c57600080fd5b81516112cd81611933565b6000806000806080858703121561155d57600080fd5b843567ffffffffffffffff8082111561157557600080fd5b61158188838901611395565b9550602087013591508082111561159757600080fd5b6115a388838901611395565b945060408701359150808211156115b957600080fd5b6115c588838901611395565b935060608701359150808211156115db57600080fd5b506115e887828801611395565b91505092959194509250565b60006020828403121561160657600080fd5b5051919050565b60006020828403121561161f57600080fd5b6112cd82611405565b6000806040838503121561163b57600080fd5b61164483611405565b9150602083013561165481611933565b809150509250929050565b60008060006060848603121561167457600080fd5b61167d84611405565b95602085013595506040909401359392505050565b600481106116b057634e487b7160e01b600052602160045260246000fd5b9052565b6000815180845260005b818110156116da576020818501810151868301820152016116be565b818111156116ec576000602083870101525b50601f01601f19169290920160200192915050565b602081016104be8284611692565b60c08152600061172260c08301896116b4565b828103602084015261173481896116b4565b9050828103604084015261174881886116b4565b9050828103606084015261175c81876116b4565b91505083608083015261177260a0830184611692565b979650505050505050565b6020808252600e908201526d139bdd08105d5d1a1bdc9a5e995960921b604082015260600190565b6020808252818101527f4f776e61626c653a2063616c6c6572206973206e6f7420746865206f776e6572604082015260600190565b604051601f8201601f1916810167ffffffffffffffff811182821017156118035761180361191d565b604052919050565b6000821982111561181e5761181e6118db565b500190565b600062ffffff80831681851681830481118215151615611845576118456118db565b02949350505050565b600082821015611860576118606118db565b500390565b600181811c9082168061187957607f821691505b6020821081141561189a57634e487b7160e01b600052602260045260246000fd5b50919050565b60006000198214156118b4576118b46118db565b5060010190565b600060ff821660ff8114156118d2576118d26118db565b60010192915050565b634e487b7160e01b600052601160045260246000fd5b634e487b7160e01b600052602160045260246000fd5b634e487b7160e01b600052603260045260246000fd5b634e487b7160e01b600052604160045260246000fd5b801515811461194157600080fd5b5056fea26469706673582212206dfaff80c28d69385911e8f7a0b7e16bc46a7e26541e524524f5a2a9b42e9ae564736f6c63430008060033",
  "immutableReferences": {},
  "source": "// SPDX-License-Identifier: MIT\r\n\r\npragma solidity ^0.8.0;\r\n\r\nimport \"openzeppelin-solidity/contracts/access/Ownable.sol\";\r\nimport \"openzeppelin-solidity/contracts/utils/math/SafeMath.sol\";\r\n\r\nimport './SafeBrosToken.sol';\r\nimport './lib/Periphery.sol';\r\n\r\ncontract Airdrop is Ownable, Periphery{\r\n\r\n    using SafeMath for uint256;\r\n\r\n    SafeBrosToken token;\r\n\r\n    uint8 public airdropCount;\r\n\r\n    uint256 public totalClaimants;\r\n\r\n    uint public totalSignUpCount;\r\n\r\n    event NewHunter(address indexed _NewHunter);\r\n\r\n    struct AirdropInfo {\r\n        uint256 poolBalance;\r\n        bool active;\r\n        uint activeTime;\r\n        uint256 totalClaimed;\r\n        uint256 unitClaim;\r\n        mapping(address => Infos) users;\r\n        mapping(address => Claim) _claimant;\r\n    }\r\n\r\n    struct Infos {\r\n        string twiiter;\r\n        string telegramUsername;\r\n        string reddit;\r\n        string othersLinks;\r\n        uint256 id;\r\n        Status _status;\r\n    }\r\n\r\n    struct Claim {\r\n        Status _status;\r\n        uint256 id;\r\n    }\r\n\r\n    mapping(uint8 => AirdropInfo) public airdrops;\r\n    \r\n\r\n    constructor (SafeBrosToken _token) {\r\n        token = _token;\r\n    }\r\n\r\n    function createDrop(uint8 activeTimeInDays, uint256 _totalPool, uint _unitClaim) public onlyOwner returns(bool) {\r\n        require(airdropCount < 2**8, 'BRO: Cap exceeded');\r\n        require(activeTimeInDays >= 0, 'Unsigned integer expected');\r\n        require(_totalPool < token.balanceOf(address(this)), 'pool out of range');\r\n        airdropCount ++;\r\n        AirdropInfo storage _new = airdrops[airdropCount];\r\n        _new.active = false;\r\n        _new.activeTime = block.timestamp.add(1 days * activeTimeInDays);\r\n        _new.poolBalance = _totalPool;\r\n        _new.unitClaim = _unitClaim;\r\n\r\n        return true;\r\n    }\r\n\r\n    function signUpForAidrop(\r\n        string memory twitterLink, \r\n        string memory tgUsername, \r\n        string memory reddit,\r\n        string memory additionalLink\r\n        ) public returns(bool) {\r\n            require(airdrops[airdropCount].users[_msgSender()]._status == Status.Zeroed, 'Friend: You already exist');\r\n            totalSignUpCount += 1;\r\n            airdrops[airdropCount].users[_msgSender()] = Infos(twitterLink, tgUsername, reddit, additionalLink, totalSignUpCount, Status.WaitListed);\r\n\r\n            emit NewHunter(_msgSender());\r\n            return true;\r\n    }\r\n\r\n    // @dev: or approved admin to approve a users.\r\n    function approveForAirdrop(address target, uint8 airdropId) public onlyRole returns(bool) {\r\n        require(airdrops[airdropId].users[_msgSender()]._status == Status.WaitListed, 'User not allowed');\r\n        require(target != _msgSender(), 'Admin: Failed attempt');\r\n        airdrops[airdropId].users[_msgSender()]._status = Status.Approved;\r\n\r\n        return true;\r\n    }\r\n\r\n    function approveMultiplehunters(address[] memory targets, uint8 airdropId)  public onlyRole returns(bool) {\r\n        for(uint i=0; i<targets.length; i++){\r\n            require(airdrops[airdropId].users[targets[i]]._status == Status.Zeroed, 'User not allowed');\r\n            require(targets[i] != _msgSender(), 'Admin: Failed attempt');\r\n            airdrops[airdropId].users[_msgSender()]._status = Status.Approved;\r\n            }\r\n        return true;\r\n    }\r\n\r\n    function checkhunterStatus(uint8 airdropId) public view returns(Status) {\r\n        return airdrops[airdropId].users[_msgSender()]._status;\r\n    }\r\n\r\n    function manualactivateOrDeactairdrop(uint8 _airdropId, bool _state)public onlyRole returns(bool){\r\n        \r\n        if(!_state) {\r\n            require(airdrops[_airdropId].active, 'Already deactivated');\r\n            airdrops[_airdropId].active = false;\r\n        } else {\r\n            require(!airdrops[_airdropId].active, 'Already active');\r\n            airdrops[_airdropId].active = true;\r\n        }\r\n        return true;\r\n    }\r\n\r\n    function getHunterLinks(address user, uint8 _airdropId) public view onlyRole returns(string memory, string memory, string memory, string memory, uint, Status _status) {\r\n        uint8 ai = _airdropId;\r\n        address u = user;\r\n        AirdropInfo storage a = airdrops[ai];\r\n        return (a.users[u].twiiter, a.users[u].telegramUsername, a.users[u].reddit, a.users[u].othersLinks, a.users[u].id, a.users[u]._status);\r\n    }\r\n    \r\n    function claim(uint8 airdropId) public returns( bool){\r\n        require(airdropId <= airdropCount, 'Such does not exist');\r\n        require(airdrops[airdropId].users[_msgSender()]._status == Status.Approved, 'Friend: Not qualified');\r\n        uint256 activetime = airdrops[airdropId].activeTime;\r\n        if(block.timestamp >= activetime) {\r\n            airdrops[airdropId].active = true;\r\n        }\r\n        require(airdrops[airdropId].active, 'Airdrop is inactive');\r\n        uint claimable = airdrops[airdropId].unitClaim;\r\n        uint airdropBalance = airdrops[airdropId].poolBalance;\r\n        \r\n        if(airdropBalance.sub(claimable) > 0){\r\n            totalClaimants += 1;\r\n            token.transfer2(address(this), _msgSender(), claimable);\r\n            airdrops[airdropId].users[_msgSender()]._status = Status.Claimed;\r\n            airdrops[airdropId].totalClaimed += claimable;\r\n            airdrops[airdropId].poolBalance -= claimable;\r\n\r\n            Claim storage _claim = airdrops[airdropId]._claimant[_msgSender()];\r\n            _claim._status =  Status.Claimed;\r\n            _claim.id = totalClaimants;\r\n        } else {\r\n            revert(\"Airdrop closed\");\r\n        }\r\n        return true;\r\n    }\r\n}",
  "sourcePath": "C:/Users/Dell/Desktop/brother/brothersFinance/contracts/Airdrop.sol",
  "compiler": {
    "name": "solc",
    "version": "0.8.6+commit.11564f7e.Emscripten.clang"
  },
  "schemaVersion": "3.4.1",
  "updatedAt": "2021-07-04T16:01:09.141Z",
  "networkType": "ethereum",
  "devdoc": {
    "kind": "dev",
    "methods": {
      "owner()": {
        "details": "Returns the address of the current owner."
      },
      "renounceOwnership()": {
        "details": "Leaves the contract without owner. It will not be possible to call `onlyOwner` functions anymore. Can only be called by the current owner. NOTE: Renouncing ownership will leave the contract without an owner, thereby removing any functionality that is only available to the owner."
      },
      "transferOwnership(address)": {
        "details": "Transfers ownership of the contract to a new account (`newOwner`). Can only be called by the current owner."
      }
    },
    "version": 1
  },
  "userdoc": {
    "kind": "user",
    "methods": {},
    "version": 1
  }
}