{
  "contractName": "Airdrop",
  "abi": [
    {
      "inputs": [
        {
          "internalType": "contract SafeBEP20",
          "name": "_token",
          "type": "address"
        }
      ],
      "stateMutability": "nonpayable",
      "type": "constructor"
    },
    {
      "anonymous": false,
      "inputs": [
        {
          "indexed": true,
          "internalType": "address",
          "name": "previousbigBro",
          "type": "address"
        },
        {
          "indexed": true,
          "internalType": "address",
          "name": "newbigBro",
          "type": "address"
        }
      ],
      "name": "BigBrotherTransferred",
      "type": "event"
    },
    {
      "anonymous": false,
      "inputs": [
        {
          "indexed": true,
          "internalType": "address",
          "name": "_NewHunter",
          "type": "address"
        }
      ],
      "name": "NewHunter",
      "type": "event"
    },
    {
      "inputs": [],
      "name": "airdropCount",
      "outputs": [
        {
          "internalType": "uint8",
          "name": "",
          "type": "uint8"
        }
      ],
      "stateMutability": "view",
      "type": "function",
      "constant": true
    },
    {
      "inputs": [
        {
          "internalType": "uint8",
          "name": "",
          "type": "uint8"
        }
      ],
      "name": "airdrops",
      "outputs": [
        {
          "internalType": "uint256",
          "name": "poolBalance",
          "type": "uint256"
        },
        {
          "internalType": "bool",
          "name": "active",
          "type": "bool"
        },
        {
          "internalType": "uint256",
          "name": "activeTime",
          "type": "uint256"
        },
        {
          "internalType": "uint256",
          "name": "totalClaimed",
          "type": "uint256"
        },
        {
          "internalType": "uint256",
          "name": "unitClaim",
          "type": "uint256"
        }
      ],
      "stateMutability": "view",
      "type": "function",
      "constant": true
    },
    {
      "inputs": [],
      "name": "bigBro",
      "outputs": [
        {
          "internalType": "address",
          "name": "",
          "type": "address"
        }
      ],
      "stateMutability": "view",
      "type": "function",
      "constant": true
    },
    {
      "inputs": [
        {
          "internalType": "address",
          "name": "",
          "type": "address"
        }
      ],
      "name": "exist",
      "outputs": [
        {
          "internalType": "bool",
          "name": "",
          "type": "bool"
        }
      ],
      "stateMutability": "view",
      "type": "function",
      "constant": true
    },
    {
      "inputs": [
        {
          "internalType": "address",
          "name": "",
          "type": "address"
        }
      ],
      "name": "isAPeerBrother",
      "outputs": [
        {
          "internalType": "bool",
          "name": "",
          "type": "bool"
        }
      ],
      "stateMutability": "view",
      "type": "function",
      "constant": true
    },
    {
      "inputs": [
        {
          "internalType": "address",
          "name": "",
          "type": "address"
        }
      ],
      "name": "isAdmin",
      "outputs": [
        {
          "internalType": "bool",
          "name": "",
          "type": "bool"
        }
      ],
      "stateMutability": "view",
      "type": "function",
      "constant": true
    },
    {
      "inputs": [
        {
          "internalType": "address",
          "name": "",
          "type": "address"
        }
      ],
      "name": "peerLedger",
      "outputs": [
        {
          "internalType": "uint256",
          "name": "",
          "type": "uint256"
        }
      ],
      "stateMutability": "view",
      "type": "function",
      "constant": true
    },
    {
      "inputs": [],
      "name": "renouncebigBrother",
      "outputs": [],
      "stateMutability": "nonpayable",
      "type": "function"
    },
    {
      "inputs": [],
      "name": "totalClaimants",
      "outputs": [
        {
          "internalType": "uint256",
          "name": "",
          "type": "uint256"
        }
      ],
      "stateMutability": "view",
      "type": "function",
      "constant": true
    },
    {
      "inputs": [],
      "name": "totalSignUpCount",
      "outputs": [
        {
          "internalType": "uint256",
          "name": "",
          "type": "uint256"
        }
      ],
      "stateMutability": "view",
      "type": "function",
      "constant": true
    },
    {
      "inputs": [
        {
          "internalType": "address",
          "name": "newbigBro",
          "type": "address"
        }
      ],
      "name": "transferbigBroship",
      "outputs": [],
      "stateMutability": "nonpayable",
      "type": "function"
    },
    {
      "inputs": [
        {
          "internalType": "address",
          "name": "",
          "type": "address"
        }
      ],
      "name": "upline",
      "outputs": [
        {
          "internalType": "address",
          "name": "",
          "type": "address"
        }
      ],
      "stateMutability": "view",
      "type": "function",
      "constant": true
    },
    {
      "inputs": [
        {
          "internalType": "uint8",
          "name": "activeTimeInDays",
          "type": "uint8"
        },
        {
          "internalType": "uint256",
          "name": "_totalPool",
          "type": "uint256"
        },
        {
          "internalType": "uint256",
          "name": "_unitClaim",
          "type": "uint256"
        }
      ],
      "name": "createDrop",
      "outputs": [
        {
          "internalType": "bool",
          "name": "",
          "type": "bool"
        }
      ],
      "stateMutability": "nonpayable",
      "type": "function"
    },
    {
      "inputs": [
        {
          "internalType": "string",
          "name": "twitterLink",
          "type": "string"
        },
        {
          "internalType": "string",
          "name": "tgUsername",
          "type": "string"
        },
        {
          "internalType": "string",
          "name": "reddit",
          "type": "string"
        },
        {
          "internalType": "string",
          "name": "additionalLink",
          "type": "string"
        }
      ],
      "name": "signUpForAidrop",
      "outputs": [
        {
          "internalType": "bool",
          "name": "",
          "type": "bool"
        }
      ],
      "stateMutability": "nonpayable",
      "type": "function"
    },
    {
      "inputs": [
        {
          "internalType": "address",
          "name": "target",
          "type": "address"
        },
        {
          "internalType": "uint8",
          "name": "airdropId",
          "type": "uint8"
        }
      ],
      "name": "approveForAirdrop",
      "outputs": [
        {
          "internalType": "bool",
          "name": "",
          "type": "bool"
        }
      ],
      "stateMutability": "nonpayable",
      "type": "function"
    },
    {
      "inputs": [
        {
          "internalType": "address[]",
          "name": "targets",
          "type": "address[]"
        },
        {
          "internalType": "uint8",
          "name": "airdropId",
          "type": "uint8"
        }
      ],
      "name": "approveMultiplehunters",
      "outputs": [
        {
          "internalType": "bool",
          "name": "",
          "type": "bool"
        }
      ],
      "stateMutability": "nonpayable",
      "type": "function"
    },
    {
      "inputs": [
        {
          "internalType": "uint8",
          "name": "airdropId",
          "type": "uint8"
        }
      ],
      "name": "checkhunterStatus",
      "outputs": [
        {
          "internalType": "enum Slice.Status",
          "name": "",
          "type": "uint8"
        }
      ],
      "stateMutability": "view",
      "type": "function",
      "constant": true
    },
    {
      "inputs": [
        {
          "internalType": "uint8",
          "name": "_airdropId",
          "type": "uint8"
        },
        {
          "internalType": "bool",
          "name": "_state",
          "type": "bool"
        }
      ],
      "name": "manualactivateOrDeactairdrop",
      "outputs": [
        {
          "internalType": "bool",
          "name": "",
          "type": "bool"
        }
      ],
      "stateMutability": "nonpayable",
      "type": "function"
    },
    {
      "inputs": [
        {
          "internalType": "address",
          "name": "user",
          "type": "address"
        },
        {
          "internalType": "uint8",
          "name": "_airdropId",
          "type": "uint8"
        }
      ],
      "name": "getHunterLinks",
      "outputs": [
        {
          "internalType": "string",
          "name": "",
          "type": "string"
        },
        {
          "internalType": "string",
          "name": "",
          "type": "string"
        },
        {
          "internalType": "string",
          "name": "",
          "type": "string"
        },
        {
          "internalType": "string",
          "name": "",
          "type": "string"
        },
        {
          "internalType": "uint256",
          "name": "",
          "type": "uint256"
        },
        {
          "internalType": "enum Slice.Status",
          "name": "_status",
          "type": "uint8"
        }
      ],
      "stateMutability": "view",
      "type": "function",
      "constant": true
    },
    {
      "inputs": [
        {
          "internalType": "uint8",
          "name": "airdropId",
          "type": "uint8"
        }
      ],
      "name": "claim",
      "outputs": [
        {
          "internalType": "bool",
          "name": "",
          "type": "bool"
        }
      ],
      "stateMutability": "nonpayable",
      "type": "function"
    }
  ],
  "bytecode": "0x608060405234801561001057600080fd5b50604051611aa1380380611aa183398101604081905261002f91610095565b600080546001600160a01b031916339081178255604051909182917f30d42be0afda2a4552a38b1df0d6b81415532e5c4d31fb09350f1c6b8508abfc908290a350600680546001600160a01b0319166001600160a01b03929092169190911790556100c5565b6000602082840312156100a757600080fd5b81516001600160a01b03811681146100be57600080fd5b9392505050565b6119cd806100d46000396000f3fe608060405234801561001057600080fd5b506004361061012c5760003560e01c80638b0eccc1116100ad578063bc83ddc411610071578063bc83ddc414610301578063c448fe8a14610314578063e952f74f14610327578063f45519381461034d578063f78fd2ea1461036057600080fd5b80638b0eccc1146102a257806395d4063f146102b3578063adf067b4146102c6578063b22d6a71146102d9578063b3be4545146102f957600080fd5b80633004c6f1116100f45780633004c6f1146101f55780634dfefc4b1461021a578063629593bb1461023d57806369a473a014610282578063877645711461029957600080fd5b80630e3bd35214610131578063242e99e21461017757806324d7806c1461019a57806326da7cc0146101bd5780632ae9e96e146101e0575b600080fd5b61015a61013f366004611458565b6005602052600090815260409020546001600160a01b031681565b6040516001600160a01b0390911681526020015b60405180910390f35b61018a610185366004611473565b6103c9565b604051901515815260200161016e565b61018a6101a8366004611458565b60046020526000908152604090205460ff1681565b61018a6101cb366004611458565b60026020526000908152604090205460ff1681565b6101f36101ee366004611458565b610506565b005b610208610203366004611473565b6105f1565b60405161016e96959493929190611751565b61018a610228366004611458565b60016020526000908152604090205460ff1681565b61027561024b36600461164f565b60ff9081166000908152600960209081526040808320338452600590810190925290912001541690565b60405161016e9190611743565b61028b60085481565b60405190815260200161016e565b61028b60075481565b6000546001600160a01b031661015a565b61018a6102c136600461164f565b6108c3565b61018a6102d43660046114a6565b610c0a565b61028b6102e7366004611458565b60036020526000908152604090205481565b6101f3610db0565b61018a61030f366004611589565b610e24565b61018a61032236600461166a565b611007565b60065461033b90600160a01b900460ff1681565b60405160ff909116815260200161016e565b61018a61035b3660046116a1565b611139565b6103a161036e36600461164f565b60096020526000908152604090208054600182015460028301546003840154600490940154929360ff9092169290919085565b604080519586529315156020860152928401919091526060830152608082015260a00161016e565b3360009081526004602052604081205460ff166104015760405162461bcd60e51b81526004016103f8906117bf565b60405180910390fd5b60ff82811660009081526009602090815260408083203384526005908101909252909120015460019116600381111561043c5761043c611944565b1461047c5760405162461bcd60e51b815260206004820152601060248201526f155cd95c881b9bdd08185b1b1bddd95960821b60448201526064016103f8565b6001600160a01b0383163314156104cd5760405162461bcd60e51b815260206004820152601560248201527410591b5a5b8e8811985a5b195908185d1d195b5c1d605a1b60448201526064016103f8565b5060ff81166000908152600960209081526040808320338452600590810190925290912001805460ff1916600217905560015b92915050565b6000546001600160a01b031633146105305760405162461bcd60e51b81526004016103f8906117e7565b6001600160a01b0381166105965760405162461bcd60e51b815260206004820152602760248201527f4f776e61626c653a206e65772062696742726f20697320746865207a65726f206044820152666164647265737360c81b60648201526084016103f8565b600080546040516001600160a01b03808516939216917f30d42be0afda2a4552a38b1df0d6b81415532e5c4d31fb09350f1c6b8508abfc91a3600080546001600160a01b0319166001600160a01b0392909216919091179055565b33600090815260046020526040812054606091829182918291819060ff1661062b5760405162461bcd60e51b81526004016103f8906117bf565b60ff80881660009081526009602090815260408083206001600160a01b038d1684526005808201909352922060048101549181015481548c958e959460018501936002860193600387019391909116908690610686906118b8565b80601f01602080910402602001604051908101604052809291908181526020018280546106b2906118b8565b80156106ff5780601f106106d4576101008083540402835291602001916106ff565b820191906000526020600020905b8154815290600101906020018083116106e257829003601f168201915b50505050509550848054610712906118b8565b80601f016020809104026020016040519081016040528092919081815260200182805461073e906118b8565b801561078b5780601f106107605761010080835404028352916020019161078b565b820191906000526020600020905b81548152906001019060200180831161076e57829003601f168201915b5050505050945083805461079e906118b8565b80601f01602080910402602001604051908101604052809291908181526020018280546107ca906118b8565b80156108175780601f106107ec57610100808354040283529160200191610817565b820191906000526020600020905b8154815290600101906020018083116107fa57829003601f168201915b5050505050935082805461082a906118b8565b80601f0160208091040260200160405190810160405280929190818152602001828054610856906118b8565b80156108a35780601f10610878576101008083540402835291602001916108a3565b820191906000526020600020905b81548152906001019060200180831161088657829003601f168201915b505050505092509850985098509850985098505050509295509295509295565b60065460009060ff600160a01b9091048116908316111561091c5760405162461bcd60e51b815260206004820152601360248201527214dd58da08191bd95cc81b9bdd08195e1a5cdd606a1b60448201526064016103f8565b60ff82811660009081526009602090815260408083203384526005908101909252909120015460029116600381111561095757610957611944565b1461099c5760405162461bcd60e51b8152602060048201526015602482015274119c9a595b990e88139bdd081c5d585b1a599a5959605a1b60448201526064016103f8565b60ff82166000908152600960205260409020600201544281116109dc5760ff831660009081526009602052604090206001908101805460ff191690911790555b60ff80841660009081526009602052604090206001015416610a365760405162461bcd60e51b815260206004820152601360248201527241697264726f7020697320696e61637469766560681b60448201526064016103f8565b60ff83166000908152600960205260408120600481015490549091610a5b8284611303565b1115610bc657600160076000828254610a74919061185e565b90915550506006546001600160a01b031663a1a6d5fc30336040516001600160e01b031960e085901b1681526001600160a01b0392831660048201529116602482015260448101859052606401602060405180830381600087803b158015610adb57600080fd5b505af1158015610aef573d6000803e3d6000fd5b505050506040513d601f19601f82011682018060405250810190610b13919061156c565b5060ff8516600081815260096020818152604080842033855260058082018452918520909101805460ff19166003908117909155948452919052919091018054849290610b6190849061185e565b909155505060ff851660009081526009602052604081208054849290610b889084906118a1565b909155505060ff851660009081526009602090815260408083203384526006019091529020805460ff19166003178155600754600190910155610bff565b60405162461bcd60e51b815260206004820152600e60248201526d105a5c991c9bdc0818db1bdcd95960921b60448201526064016103f8565b506001949350505050565b3360009081526004602052604081205460ff16610c395760405162461bcd60e51b81526004016103f8906117bf565b60005b8351811015610da6576000600960008560ff1660ff1681526020019081526020016000206005016000868481518110610c7757610c7761195a565b6020908102919091018101516001600160a01b031682528101919091526040016000206005015460ff166003811115610cb257610cb2611944565b14610cf25760405162461bcd60e51b815260206004820152601060248201526f155cd95c881b9bdd08185b1b1bddd95960821b60448201526064016103f8565b336001600160a01b0316848281518110610d0e57610d0e61195a565b60200260200101516001600160a01b03161415610d655760405162461bcd60e51b815260206004820152601560248201527410591b5a5b8e8811985a5b195908185d1d195b5c1d605a1b60448201526064016103f8565b60ff83166000908152600960209081526040808320338452600590810190925290912001805460ff1916600217905580610d9e816118f3565b915050610c3c565b5060019392505050565b6000546001600160a01b03163314610dda5760405162461bcd60e51b81526004016103f8906117e7565b600080546040516001600160a01b03909116907f30d42be0afda2a4552a38b1df0d6b81415532e5c4d31fb09350f1c6b8508abfc908390a3600080546001600160a01b0319169055565b60065460ff600160a01b9091048116600090815260096020908152604080832033845260059081019092528220015490918291166003811115610e6957610e69611944565b14610eb65760405162461bcd60e51b815260206004820152601960248201527f467269656e643a20596f7520616c72656164792065786973740000000000000060448201526064016103f8565b600160086000828254610ec9919061185e565b90915550506040805160c0810182528681526020808201879052818301869052606082018590526008546080830152600160a0830152600654600160a01b900460ff166000908152600982528381203382526005018252929092208151805192939192610f399284920190611322565b506020828101518051610f529260018501920190611322565b5060408201518051610f6e916002840191602090910190611322565b5060608201518051610f8a916003840191602090910190611322565b506080820151600482015560a082015160058201805460ff19166001836003811115610fb857610fb8611944565b0217905550905050610fc73390565b6001600160a01b03167f321d106f02677cea82f17f0d0a2a9a1480dfc096d211903012f619e68a2018b460405160405180910390a2506001949350505050565b3360009081526004602052604081205460ff166110365760405162461bcd60e51b81526004016103f8906117bf565b816110b75760ff808416600090815260096020526040902060010154166110955760405162461bcd60e51b8152602060048201526013602482015272105b1c9958591e4819195858dd1a5d985d1959606a1b60448201526064016103f8565b60ff83166000908152600960205260409020600101805460ff19169055611130565b60ff808416600090815260096020526040902060010154161561110d5760405162461bcd60e51b815260206004820152600e60248201526d416c72656164792061637469766560901b60448201526064016103f8565b60ff831660009081526009602052604090206001908101805460ff191690911790555b50600192915050565b600080546001600160a01b031633146111645760405162461bcd60e51b81526004016103f8906117e7565b600654610100600160a01b90910460ff16106111b65760405162461bcd60e51b8152602060048201526011602482015270109493ce8810d85c08195e18d959591959607a1b60448201526064016103f8565b6006546040516370a0823160e01b81523060048201526001600160a01b03909116906370a082319060240160206040518083038186803b1580156111f957600080fd5b505afa15801561120d573d6000803e3d6000fd5b505050506040513d601f19601f820116820180604052508101906112319190611636565b83106112735760405162461bcd60e51b8152602060048201526011602482015270706f6f6c206f7574206f662072616e676560781b60448201526064016103f8565b60068054600160a01b900460ff1690601461128d8361190e565b82546101009290920a60ff818102199093169183160217909155600654600160a01b90048116600090815260096020526040902060018101805460ff1916905591506112ee906112e290871662015180611876565b429062ffffff16611316565b60028201559283555060049091015550600190565b600061130f82846118a1565b9392505050565b600061130f828461185e565b82805461132e906118b8565b90600052602060002090601f0160209004810192826113505760008555611396565b82601f1061136957805160ff1916838001178555611396565b82800160010185558215611396579182015b8281111561139657825182559160200191906001019061137b565b506113a29291506113a6565b5090565b5b808211156113a257600081556001016113a7565b80356001600160a01b03811681146113d257600080fd5b919050565b600082601f8301126113e857600080fd5b813567ffffffffffffffff81111561140257611402611970565b611415601f8201601f191660200161182d565b81815284602083860101111561142a57600080fd5b816020850160208301376000918101602001919091529392505050565b803560ff811681146113d257600080fd5b60006020828403121561146a57600080fd5b61130f826113bb565b6000806040838503121561148657600080fd5b61148f836113bb565b915061149d60208401611447565b90509250929050565b600080604083850312156114b957600080fd5b823567ffffffffffffffff808211156114d157600080fd5b818501915085601f8301126114e557600080fd5b81356020828211156114f9576114f9611970565b8160051b925061150a81840161182d565b8281528181019085830185870184018b101561152557600080fd5b600096505b8487101561154f5761153b816113bb565b83526001969096019591830191830161152a565b50965061155f9050878201611447565b9450505050509250929050565b60006020828403121561157e57600080fd5b815161130f81611986565b6000806000806080858703121561159f57600080fd5b843567ffffffffffffffff808211156115b757600080fd5b6115c3888389016113d7565b955060208701359150808211156115d957600080fd5b6115e5888389016113d7565b945060408701359150808211156115fb57600080fd5b611607888389016113d7565b9350606087013591508082111561161d57600080fd5b5061162a878288016113d7565b91505092959194509250565b60006020828403121561164857600080fd5b5051919050565b60006020828403121561166157600080fd5b61130f82611447565b6000806040838503121561167d57600080fd5b61168683611447565b9150602083013561169681611986565b809150509250929050565b6000806000606084860312156116b657600080fd5b6116bf84611447565b95602085013595506040909401359392505050565b600481106116f257634e487b7160e01b600052602160045260246000fd5b9052565b6000815180845260005b8181101561171c57602081850181015186830182015201611700565b8181111561172e576000602083870101525b50601f01601f19169290920160200192915050565b6020810161050082846116d4565b60c08152600061176460c08301896116f6565b828103602084015261177681896116f6565b9050828103604084015261178a81886116f6565b9050828103606084015261179e81876116f6565b9150508360808301526117b460a08301846116d4565b979650505050505050565b6020808252600e908201526d139bdd08105d5d1a1bdc9a5e995960921b604082015260600190565b60208082526026908201527f4f776e61626c653a2046554e4354494f4e204953205052495641544520544f2060408201526562696742726f60d01b606082015260800190565b604051601f8201601f1916810167ffffffffffffffff8111828210171561185657611856611970565b604052919050565b600082198211156118715761187161192e565b500190565b600062ffffff808316818516818304811182151516156118985761189861192e565b02949350505050565b6000828210156118b3576118b361192e565b500390565b600181811c908216806118cc57607f821691505b602082108114156118ed57634e487b7160e01b600052602260045260246000fd5b50919050565b60006000198214156119075761190761192e565b5060010190565b600060ff821660ff8114156119255761192561192e565b60010192915050565b634e487b7160e01b600052601160045260246000fd5b634e487b7160e01b600052602160045260246000fd5b634e487b7160e01b600052603260045260246000fd5b634e487b7160e01b600052604160045260246000fd5b801515811461199457600080fd5b5056fea2646970667358221220b7ba54daa605164254ac279804ac97277cec38ef2e5d19c71bec4206a424709664736f6c63430008060033",
  "immutableReferences": {},
  "source": "// SPDX-License-Identifier: MIT\r\n\r\npragma solidity ^0.8.0;\r\n\r\nimport \"./lib/Ownable.sol\";\r\nimport \"./lib/SafeMath.sol\";\r\n\r\nimport './SafeBEP20.sol';\r\nimport './lib/Slice.sol';\r\n\r\ncontract Airdrop is Ownable, Slice{\r\n\r\n    using SafeMath for uint256;\r\n\r\n    SafeBEP20 token;\r\n\r\n    uint8 public airdropCount;\r\n\r\n    uint256 public totalClaimants;\r\n\r\n    uint public totalSignUpCount;\r\n\r\n    event NewHunter(address indexed _NewHunter);\r\n\r\n    struct AirdropInfo {\r\n        uint256 poolBalance;\r\n        bool active;\r\n        uint activeTime;\r\n        uint256 totalClaimed;\r\n        uint256 unitClaim;\r\n        mapping(address => Infos) users;\r\n        mapping(address => Claim) _claimant;\r\n    }\r\n\r\n    struct Infos {\r\n        string twiiter;\r\n        string telegramUsername;\r\n        string reddit;\r\n        string othersLinks;\r\n        uint256 id;\r\n        Status _status;\r\n    }\r\n\r\n    struct Claim {\r\n        Status _status;\r\n        uint256 id;\r\n    }\r\n\r\n    mapping(uint8 => AirdropInfo) public airdrops;\r\n    \r\n\r\n    constructor (SafeBEP20 _token) {\r\n        token = _token;\r\n    }\r\n\r\n    function createDrop(uint8 activeTimeInDays, uint256 _totalPool, uint _unitClaim) public PRIVATE returns(bool) {\r\n        require(airdropCount < 2**8, 'BRO: Cap exceeded');\r\n        require(activeTimeInDays >= 0, 'Unsigned integer expected');\r\n        require(_totalPool < token.balanceOf(address(this)), 'pool out of range');\r\n        airdropCount ++;\r\n        AirdropInfo storage _new = airdrops[airdropCount];\r\n        _new.active = false;\r\n        _new.activeTime = block.timestamp.add(1 days * activeTimeInDays);\r\n        _new.poolBalance = _totalPool;\r\n        _new.unitClaim = _unitClaim;\r\n\r\n        return true;\r\n    }\r\n\r\n    function signUpForAidrop(\r\n        string memory twitterLink, \r\n        string memory tgUsername, \r\n        string memory reddit,\r\n        string memory additionalLink\r\n        ) public returns(bool) {\r\n            require(airdrops[airdropCount].users[_msgSender()]._status == Status.Zeroed, 'Friend: You already exist');\r\n            totalSignUpCount += 1;\r\n            airdrops[airdropCount].users[_msgSender()] = Infos(twitterLink, tgUsername, reddit, additionalLink, totalSignUpCount, Status.WaitListed);\r\n\r\n            emit NewHunter(_msgSender());\r\n            return true;\r\n    }\r\n\r\n    // @dev: or approved admin to approve a users.\r\n    function approveForAirdrop(address target, uint8 airdropId) public onlyRole returns(bool) {\r\n        require(airdrops[airdropId].users[_msgSender()]._status == Status.WaitListed, 'User not allowed');\r\n        require(target != _msgSender(), 'Admin: Failed attempt');\r\n        airdrops[airdropId].users[_msgSender()]._status = Status.Approved;\r\n\r\n        return true;\r\n    }\r\n\r\n    function approveMultiplehunters(address[] memory targets, uint8 airdropId)  public onlyRole returns(bool) {\r\n        for(uint i=0; i<targets.length; i++){\r\n            require(airdrops[airdropId].users[targets[i]]._status == Status.Zeroed, 'User not allowed');\r\n            require(targets[i] != _msgSender(), 'Admin: Failed attempt');\r\n            airdrops[airdropId].users[_msgSender()]._status = Status.Approved;\r\n            }\r\n        return true;\r\n    }\r\n\r\n    function checkhunterStatus(uint8 airdropId) public view returns(Status) {\r\n        return airdrops[airdropId].users[_msgSender()]._status;\r\n    }\r\n\r\n    function manualactivateOrDeactairdrop(uint8 _airdropId, bool _state)public onlyRole returns(bool){\r\n        \r\n        if(!_state) {\r\n            require(airdrops[_airdropId].active, 'Already deactivated');\r\n            airdrops[_airdropId].active = false;\r\n        } else {\r\n            require(!airdrops[_airdropId].active, 'Already active');\r\n            airdrops[_airdropId].active = true;\r\n        }\r\n        return true;\r\n    }\r\n\r\n    function getHunterLinks(address user, uint8 _airdropId) public view onlyRole returns(string memory, string memory, string memory, string memory, uint, Status _status) {\r\n        uint8 ai = _airdropId;\r\n        address u = user;\r\n        AirdropInfo storage a = airdrops[ai];\r\n        return (a.users[u].twiiter, a.users[u].telegramUsername, a.users[u].reddit, a.users[u].othersLinks, a.users[u].id, a.users[u]._status);\r\n    }\r\n    \r\n    function claim(uint8 airdropId) public returns( bool){\r\n        require(airdropId <= airdropCount, 'Such does not exist');\r\n        require(airdrops[airdropId].users[_msgSender()]._status == Status.Approved, 'Friend: Not qualified');\r\n        uint256 activetime = airdrops[airdropId].activeTime;\r\n        if(block.timestamp >= activetime) {\r\n            airdrops[airdropId].active = true;\r\n        }\r\n        require(airdrops[airdropId].active, 'Airdrop is inactive');\r\n        uint claimable = airdrops[airdropId].unitClaim;\r\n        uint airdropBalance = airdrops[airdropId].poolBalance;\r\n        \r\n        if(airdropBalance.sub(claimable) > 0){\r\n            totalClaimants += 1;\r\n            token.transfer_(address(this), _msgSender(), claimable);\r\n            airdrops[airdropId].users[_msgSender()]._status = Status.Claimed;\r\n            airdrops[airdropId].totalClaimed += claimable;\r\n            airdrops[airdropId].poolBalance -= claimable;\r\n\r\n            Claim storage _claim = airdrops[airdropId]._claimant[_msgSender()];\r\n            _claim._status =  Status.Claimed;\r\n            _claim.id = totalClaimants;\r\n        } else {\r\n            revert(\"Airdrop closed\");\r\n        }\r\n        return true;\r\n    }\r\n\r\n    function _beforeTokenTransfer(address from, address to, uint256 amount) internal { }\r\n    \r\n    }\r\n",
  "sourcePath": "C:/Users/FVO_MMILLLER/Desktop/brothersBob/brothersFinance/contracts/Airdrop.sol",
  "compiler": {
    "name": "solc",
    "version": "0.8.6+commit.11564f7e.Emscripten.clang"
  },
  "schemaVersion": "3.4.1",
  "updatedAt": "2021-07-16T05:16:55.530Z",
  "networkType": "ethereum",
  "devdoc": {
    "kind": "dev",
    "methods": {
      "bigBro()": {
        "details": "Returns the address of the current bigBro."
      },
      "renouncebigBrother()": {
        "details": "Leaves the contract without bigBro. It will not be possible to call `PRIVATE` functions anymore. Can only be called by the current bigBro. NOTE: Renouncing bigBroship will leave the contract without an bigBro, thereby removing any functionality that is only available to the bigBro."
      },
      "transferbigBroship(address)": {
        "details": "Transfers bigBroship of the contract to a new account (`newbigBro`). Can only be called by the current bigBro."
      }
    },
    "version": 1
  },
  "userdoc": {
    "kind": "user",
    "methods": {},
    "version": 1
  }
}