{
  "contractName": "Periphery",
  "abi": [
    {
      "inputs": [
        {
          "internalType": "address",
          "name": "",
          "type": "address"
        }
      ],
      "name": "exist",
      "outputs": [
        {
          "internalType": "bool",
          "name": "",
          "type": "bool"
        }
      ],
      "stateMutability": "view",
      "type": "function"
    },
    {
      "inputs": [
        {
          "internalType": "address",
          "name": "",
          "type": "address"
        }
      ],
      "name": "isAPeerBrother",
      "outputs": [
        {
          "internalType": "bool",
          "name": "",
          "type": "bool"
        }
      ],
      "stateMutability": "view",
      "type": "function"
    },
    {
      "inputs": [
        {
          "internalType": "address",
          "name": "",
          "type": "address"
        }
      ],
      "name": "isAdmin",
      "outputs": [
        {
          "internalType": "bool",
          "name": "",
          "type": "bool"
        }
      ],
      "stateMutability": "view",
      "type": "function"
    },
    {
      "inputs": [
        {
          "internalType": "address",
          "name": "",
          "type": "address"
        }
      ],
      "name": "peerLedger",
      "outputs": [
        {
          "internalType": "uint256",
          "name": "",
          "type": "uint256"
        }
      ],
      "stateMutability": "view",
      "type": "function"
    }
  ],
  "bytecode": "0x608060405234801561001057600080fd5b50610163806100206000396000f3fe608060405234801561001057600080fd5b506004361061004c5760003560e01c806324d7806c1461005157806326da7cc0146100895780634dfefc4b146100ac578063b22d6a71146100cf575b600080fd5b61007461005f3660046100fd565b60046020526000908152604090205460ff1681565b60405190151581526020015b60405180910390f35b6100746100973660046100fd565b60026020526000908152604090205460ff1681565b6100746100ba3660046100fd565b60016020526000908152604090205460ff1681565b6100ef6100dd3660046100fd565b60036020526000908152604090205481565b604051908152602001610080565b60006020828403121561010f57600080fd5b81356001600160a01b038116811461012657600080fd5b939250505056fea2646970667358221220ce38a6dfe0370edc0527e59c46c787ad28032c80207535937a3a2e55aeb38cf664736f6c63430008060033",
  "immutableReferences": {},
  "source": "// SPDX-License-Identifier: MIT\r\n\r\npragma solidity ^0.8.0;\r\n\r\nimport \"openzeppelin-solidity/contracts/utils/Context.sol\";\r\n\r\ncontract Periphery is Context {\r\n\r\n    enum Status { Zeroed, WaitListed, Approved, Claimed }\r\n\r\n    Status status;\r\n    \r\n    mapping(address => bool) public exist;\r\n        \r\n    mapping(address => bool) public isAPeerBrother;\r\n    \r\n    mapping(address => uint) public peerLedger;\r\n    \r\n    mapping(address => bool) public isAdmin;\r\n\r\n\r\n    modifier onlyRole {\r\n        require(isAdmin[_msgSender()], 'Not Authorized');\r\n        _;\r\n    }\r\n    \r\n    modifier isNotExisting(address k) {\r\n        require(!exist[k], 'PeerBrotheers: Multiple registration not allowed');\r\n        _;\r\n    }\r\n    \r\n    modifier isExist {\r\n        require(exist[_msgSender()], 'Not recognized');\r\n        _;\r\n    }\r\n}",
  "sourcePath": "C:/Users/Dell/Desktop/brother/brothersFinance/contracts/lib/Periphery.sol",
  "compiler": {
    "name": "solc",
    "version": "0.8.6+commit.11564f7e.Emscripten.clang"
  },
  "schemaVersion": "3.4.1",
  "updatedAt": "2021-07-04T15:58:02.535Z",
  "devdoc": {
    "kind": "dev",
    "methods": {},
    "version": 1
  },
  "userdoc": {
    "kind": "user",
    "methods": {},
    "version": 1
  }
}