{
  "contractName": "Periphery",
  "abi": [
    {
      "inputs": [
        {
          "internalType": "address",
          "name": "",
          "type": "address"
        }
      ],
      "name": "exist",
      "outputs": [
        {
          "internalType": "bool",
          "name": "",
          "type": "bool"
        }
      ],
      "stateMutability": "view",
      "type": "function"
    },
    {
      "inputs": [
        {
          "internalType": "address",
          "name": "",
          "type": "address"
        }
      ],
      "name": "isAPeerBrother",
      "outputs": [
        {
          "internalType": "bool",
          "name": "",
          "type": "bool"
        }
      ],
      "stateMutability": "view",
      "type": "function"
    },
    {
      "inputs": [
        {
          "internalType": "address",
          "name": "",
          "type": "address"
        }
      ],
      "name": "isAdmin",
      "outputs": [
        {
          "internalType": "bool",
          "name": "",
          "type": "bool"
        }
      ],
      "stateMutability": "view",
      "type": "function"
    },
    {
      "inputs": [
        {
          "internalType": "address",
          "name": "",
          "type": "address"
        }
      ],
      "name": "peerLedger",
      "outputs": [
        {
          "internalType": "uint256",
          "name": "",
          "type": "uint256"
        }
      ],
      "stateMutability": "view",
      "type": "function"
    },
    {
      "inputs": [
        {
          "internalType": "address",
          "name": "",
          "type": "address"
        }
      ],
      "name": "upline",
      "outputs": [
        {
          "internalType": "address",
          "name": "",
          "type": "address"
        }
      ],
      "stateMutability": "view",
      "type": "function"
    }
  ],
  "bytecode": "0x608060405234801561001057600080fd5b506101af806100206000396000f3fe608060405234801561001057600080fd5b50600436106100575760003560e01c80630e3bd3521461005c57806324d7806c146100a257806326da7cc0146100d55780634dfefc4b146100f8578063b22d6a711461011b575b600080fd5b61008561006a366004610149565b6005602052600090815260409020546001600160a01b031681565b6040516001600160a01b0390911681526020015b60405180910390f35b6100c56100b0366004610149565b60046020526000908152604090205460ff1681565b6040519015158152602001610099565b6100c56100e3366004610149565b60026020526000908152604090205460ff1681565b6100c5610106366004610149565b60016020526000908152604090205460ff1681565b61013b610129366004610149565b60036020526000908152604090205481565b604051908152602001610099565b60006020828403121561015b57600080fd5b81356001600160a01b038116811461017257600080fd5b939250505056fea2646970667358221220bd86703bae5450a524dc699a84245692428e27f2a5ec5551c78fb9611096142c64736f6c63430008060033",
  "immutableReferences": {},
  "source": "// SPDX-License-Identifier: MIT\r\n\r\npragma solidity ^0.8.0;\r\n\r\nimport \"openzeppelin-solidity/contracts/utils/Context.sol\";\r\n\r\ncontract Periphery is Context {\r\n\r\n    enum Status { Zeroed, WaitListed, Approved, Claimed }\r\n\r\n    Status status;\r\n    \r\n    mapping(address => bool) public exist;\r\n        \r\n    mapping(address => bool) public isAPeerBrother;\r\n    \r\n    mapping(address => uint) public peerLedger;\r\n    \r\n    mapping(address => bool) public isAdmin;\r\n\r\n    mapping(address => address) public upline; //Gets a peerGroup administrator. Needed in the frontend\r\n\r\n\r\n    modifier onlyRole {\r\n        require(isAdmin[_msgSender()], 'Not Authorized');\r\n        _;\r\n    }\r\n    \r\n    modifier isNotExisting(address k) {\r\n        require(!exist[k], 'PeerBrotheers: Multiple registration not allowed');\r\n        _;\r\n    }\r\n    \r\n    modifier isExist {\r\n        require(exist[_msgSender()], 'Not recognized');\r\n        _;\r\n    }\r\n}",
  "sourcePath": "C:\\Users\\Dell\\Desktop\\brother\\BrothersFinance\\contracts\\lib\\Periphery.sol",
  "compiler": {
    "name": "solc",
    "version": "0.8.6+commit.11564f7e.Emscripten.clang"
  },
  "schemaVersion": "3.4.1",
  "updatedAt": "2021-07-13T21:25:13.187Z",
  "devdoc": {
    "kind": "dev",
    "methods": {},
    "version": 1
  },
  "userdoc": {
    "kind": "user",
    "methods": {},
    "version": 1
  }
}