{
  "contractName": "SafeBrosToken",
  "abi": [
    {
      "inputs": [
        {
          "internalType": "uint256",
          "name": "supply",
          "type": "uint256"
        }
      ],
      "stateMutability": "nonpayable",
      "type": "constructor"
    },
    {
      "anonymous": false,
      "inputs": [
        {
          "indexed": true,
          "internalType": "address",
          "name": "owner",
          "type": "address"
        },
        {
          "indexed": true,
          "internalType": "address",
          "name": "spender",
          "type": "address"
        },
        {
          "indexed": false,
          "internalType": "uint256",
          "name": "value",
          "type": "uint256"
        }
      ],
      "name": "Approval",
      "type": "event"
    },
    {
      "anonymous": false,
      "inputs": [
        {
          "indexed": true,
          "internalType": "address",
          "name": "_target",
          "type": "address"
        }
      ],
      "name": "MuteAccount",
      "type": "event"
    },
    {
      "anonymous": false,
      "inputs": [
        {
          "indexed": true,
          "internalType": "address",
          "name": "previousOwner",
          "type": "address"
        },
        {
          "indexed": true,
          "internalType": "address",
          "name": "newOwner",
          "type": "address"
        }
      ],
      "name": "OwnershipTransferred",
      "type": "event"
    },
    {
      "anonymous": false,
      "inputs": [
        {
          "indexed": true,
          "internalType": "address",
          "name": "from",
          "type": "address"
        },
        {
          "indexed": true,
          "internalType": "address",
          "name": "to",
          "type": "address"
        },
        {
          "indexed": false,
          "internalType": "uint256",
          "name": "value",
          "type": "uint256"
        }
      ],
      "name": "Transfer",
      "type": "event"
    },
    {
      "anonymous": false,
      "inputs": [
        {
          "indexed": true,
          "internalType": "address",
          "name": "_target",
          "type": "address"
        }
      ],
      "name": "UnMuteAccount",
      "type": "event"
    },
    {
      "inputs": [
        {
          "internalType": "address",
          "name": "account",
          "type": "address"
        }
      ],
      "name": "balanceOf",
      "outputs": [
        {
          "internalType": "uint256",
          "name": "",
          "type": "uint256"
        }
      ],
      "stateMutability": "view",
      "type": "function"
    },
    {
      "inputs": [],
      "name": "decimals",
      "outputs": [
        {
          "internalType": "uint8",
          "name": "",
          "type": "uint8"
        }
      ],
      "stateMutability": "view",
      "type": "function"
    },
    {
      "inputs": [],
      "name": "name",
      "outputs": [
        {
          "internalType": "string",
          "name": "",
          "type": "string"
        }
      ],
      "stateMutability": "view",
      "type": "function"
    },
    {
      "inputs": [],
      "name": "owner",
      "outputs": [
        {
          "internalType": "address",
          "name": "",
          "type": "address"
        }
      ],
      "stateMutability": "view",
      "type": "function"
    },
    {
      "inputs": [],
      "name": "renounceOwnership",
      "outputs": [],
      "stateMutability": "nonpayable",
      "type": "function"
    },
    {
      "inputs": [],
      "name": "symbol",
      "outputs": [
        {
          "internalType": "string",
          "name": "",
          "type": "string"
        }
      ],
      "stateMutability": "view",
      "type": "function"
    },
    {
      "inputs": [],
      "name": "totalSupply",
      "outputs": [
        {
          "internalType": "uint256",
          "name": "",
          "type": "uint256"
        }
      ],
      "stateMutability": "view",
      "type": "function"
    },
    {
      "inputs": [
        {
          "internalType": "address",
          "name": "newOwner",
          "type": "address"
        }
      ],
      "name": "transferOwnership",
      "outputs": [],
      "stateMutability": "nonpayable",
      "type": "function"
    },
    {
      "stateMutability": "payable",
      "type": "receive"
    },
    {
      "inputs": [
        {
          "internalType": "address",
          "name": "recipient",
          "type": "address"
        },
        {
          "internalType": "uint256",
          "name": "amount",
          "type": "uint256"
        }
      ],
      "name": "transfer",
      "outputs": [
        {
          "internalType": "bool",
          "name": "",
          "type": "bool"
        }
      ],
      "stateMutability": "nonpayable",
      "type": "function"
    },
    {
      "inputs": [
        {
          "internalType": "address",
          "name": "owner",
          "type": "address"
        },
        {
          "internalType": "address",
          "name": "spender",
          "type": "address"
        }
      ],
      "name": "allowance",
      "outputs": [
        {
          "internalType": "uint256",
          "name": "",
          "type": "uint256"
        }
      ],
      "stateMutability": "view",
      "type": "function"
    },
    {
      "inputs": [
        {
          "internalType": "address",
          "name": "spender",
          "type": "address"
        },
        {
          "internalType": "uint256",
          "name": "amount",
          "type": "uint256"
        }
      ],
      "name": "approve",
      "outputs": [
        {
          "internalType": "bool",
          "name": "",
          "type": "bool"
        }
      ],
      "stateMutability": "nonpayable",
      "type": "function"
    },
    {
      "inputs": [
        {
          "internalType": "address",
          "name": "sender",
          "type": "address"
        },
        {
          "internalType": "address",
          "name": "recipient",
          "type": "address"
        },
        {
          "internalType": "uint256",
          "name": "amount",
          "type": "uint256"
        }
      ],
      "name": "transferFrom",
      "outputs": [
        {
          "internalType": "bool",
          "name": "",
          "type": "bool"
        }
      ],
      "stateMutability": "nonpayable",
      "type": "function"
    },
    {
      "inputs": [
        {
          "internalType": "address",
          "name": "spender",
          "type": "address"
        },
        {
          "internalType": "uint256",
          "name": "addedValue",
          "type": "uint256"
        }
      ],
      "name": "increaseAllowance",
      "outputs": [
        {
          "internalType": "bool",
          "name": "",
          "type": "bool"
        }
      ],
      "stateMutability": "nonpayable",
      "type": "function"
    },
    {
      "inputs": [
        {
          "internalType": "address",
          "name": "spender",
          "type": "address"
        },
        {
          "internalType": "uint256",
          "name": "subtractedValue",
          "type": "uint256"
        }
      ],
      "name": "decreaseAllowance",
      "outputs": [
        {
          "internalType": "bool",
          "name": "",
          "type": "bool"
        }
      ],
      "stateMutability": "nonpayable",
      "type": "function"
    },
    {
      "inputs": [
        {
          "internalType": "address",
          "name": "account",
          "type": "address"
        },
        {
          "internalType": "uint256",
          "name": "amount",
          "type": "uint256"
        }
      ],
      "name": "burn",
      "outputs": [
        {
          "internalType": "bool",
          "name": "",
          "type": "bool"
        }
      ],
      "stateMutability": "nonpayable",
      "type": "function"
    },
    {
      "inputs": [
        {
          "internalType": "address",
          "name": "_target",
          "type": "address"
        }
      ],
      "name": "suspendAccount",
      "outputs": [
        {
          "internalType": "bool",
          "name": "",
          "type": "bool"
        }
      ],
      "stateMutability": "nonpayable",
      "type": "function"
    },
    {
      "inputs": [
        {
          "internalType": "address",
          "name": "_target",
          "type": "address"
        }
      ],
      "name": "unsuspendAccount",
      "outputs": [
        {
          "internalType": "bool",
          "name": "",
          "type": "bool"
        }
      ],
      "stateMutability": "nonpayable",
      "type": "function"
    }
  ],
  "bytecode": "0x60806040523480156200001157600080fd5b5060405162002e3738038062002e378339818101604052810190620000379190620003fe565b6040518060400160405280600881526020017f42726f546f6b656e0000000000000000000000000000000000000000000000008152506040518060400160405280600481526020017f42524f54000000000000000000000000000000000000000000000000000000008152508160039080519060200190620000bb92919062000337565b508060049080519060200190620000d492919062000337565b5050506000620000e9620001c560201b60201c565b905080600560006101000a81548173ffffffffffffffffffffffffffffffffffffffff021916908373ffffffffffffffffffffffffffffffffffffffff1602179055508073ffffffffffffffffffffffffffffffffffffffff16600073ffffffffffffffffffffffffffffffffffffffff167f8be0079c531659141344cd1fd0a4f28419497f9722a3daafe3b4186f6b6457e060405160405180910390a350620001be6200019c620001c560201b60201c565b670de0b6b3a764000083620001b2919062000515565b620001cd60201b60201c565b506200065c565b600033905090565b600073ffffffffffffffffffffffffffffffffffffffff168273ffffffffffffffffffffffffffffffffffffffff16141562000240576040517f08c379a0000000000000000000000000000000000000000000000000000000008152600401620002379062000468565b60405180910390fd5b62000254600083836200033260201b60201c565b8060026000828254620002689190620004b8565b92505081905550806000808473ffffffffffffffffffffffffffffffffffffffff1673ffffffffffffffffffffffffffffffffffffffff1681526020019081526020016000206000828254620002bf9190620004b8565b925050819055508173ffffffffffffffffffffffffffffffffffffffff16600073ffffffffffffffffffffffffffffffffffffffff167fddf252ad1be2c89b69c2b068fc378daa952ba7f163c4a11628f55a4df523b3ef836040516200032691906200048a565b60405180910390a35050565b505050565b828054620003459062000580565b90600052602060002090601f016020900481019282620003695760008555620003b5565b82601f106200038457805160ff1916838001178555620003b5565b82800160010185558215620003b5579182015b82811115620003b457825182559160200191906001019062000397565b5b509050620003c49190620003c8565b5090565b5b80821115620003e3576000816000905550600101620003c9565b5090565b600081519050620003f88162000642565b92915050565b60006020828403121562000417576200041662000614565b5b60006200042784828501620003e7565b91505092915050565b60006200043f601f83620004a7565b91506200044c8262000619565b602082019050919050565b620004628162000576565b82525050565b60006020820190508181036000830152620004838162000430565b9050919050565b6000602082019050620004a1600083018462000457565b92915050565b600082825260208201905092915050565b6000620004c58262000576565b9150620004d28362000576565b9250827fffffffffffffffffffffffffffffffffffffffffffffffffffffffffffffffff038211156200050a5762000509620005b6565b5b828201905092915050565b6000620005228262000576565b91506200052f8362000576565b9250817fffffffffffffffffffffffffffffffffffffffffffffffffffffffffffffffff04831182151516156200056b576200056a620005b6565b5b828202905092915050565b6000819050919050565b600060028204905060018216806200059957607f821691505b60208210811415620005b057620005af620005e5565b5b50919050565b7f4e487b7100000000000000000000000000000000000000000000000000000000600052601160045260246000fd5b7f4e487b7100000000000000000000000000000000000000000000000000000000600052602260045260246000fd5b600080fd5b7f45524332303a206d696e7420746f20746865207a65726f206164647265737300600082015250565b6200064d8162000576565b81146200065957600080fd5b50565b6127cb806200066c6000396000f3fe6080604052600436106101025760003560e01c80638da5cb5b116100955780639fbaec38116100645780639fbaec381461037f578063a457c2d7146103bc578063a9059cbb146103f9578063dd62ed3e14610436578063f2fde38b146104735761011e565b80638da5cb5b146102af5780638ed9b31e146102da57806395d89b41146103175780639dc29fac146103425761011e565b8063313ce567116100d1578063313ce567146101f3578063395093511461021e57806370a082311461025b578063715018a6146102985761011e565b806306fdde0314610123578063095ea7b31461014e57806318160ddd1461018b57806323b872dd146101b65761011e565b3661011e5767016345785d8a000034101561011c57600080fd5b005b600080fd5b34801561012f57600080fd5b5061013861049c565b6040516101459190611f41565b60405180910390f35b34801561015a57600080fd5b5061017560048036038101906101709190611c6c565b61052e565b6040516101829190611f26565b60405180910390f35b34801561019757600080fd5b506101a06105db565b6040516101ad9190612123565b60405180910390f35b3480156101c257600080fd5b506101dd60048036038101906101d89190611c19565b6105e5565b6040516101ea9190611f26565b60405180910390f35b3480156101ff57600080fd5b50610208610694565b604051610215919061213e565b60405180910390f35b34801561022a57600080fd5b5061024560048036038101906102409190611c6c565b61069d565b6040516102529190611f26565b60405180910390f35b34801561026757600080fd5b50610282600480360381019061027d9190611bac565b61074a565b60405161028f9190612123565b60405180910390f35b3480156102a457600080fd5b506102ad610792565b005b3480156102bb57600080fd5b506102c46108cf565b6040516102d19190611f0b565b60405180910390f35b3480156102e657600080fd5b5061030160048036038101906102fc9190611bac565b6108f9565b60405161030e9190611f26565b60405180910390f35b34801561032357600080fd5b5061032c610af3565b6040516103399190611f41565b60405180910390f35b34801561034e57600080fd5b5061036960048036038101906103649190611c6c565b610b85565b6040516103769190611f26565b60405180910390f35b34801561038b57600080fd5b506103a660048036038101906103a19190611bac565b610c31565b6040516103b39190611f26565b60405180910390f35b3480156103c857600080fd5b506103e360048036038101906103de9190611c6c565b610e2a565b6040516103f09190611f26565b60405180910390f35b34801561040557600080fd5b50610420600480360381019061041b9190611c6c565b610ed7565b60405161042d9190611f26565b60405180910390f35b34801561044257600080fd5b5061045d60048036038101906104589190611bd9565b610fa5565b60405161046a9190612123565b60405180910390f35b34801561047f57600080fd5b5061049a60048036038101906104959190611bac565b61104f565b005b6060600380546104ab906122e1565b80601f01602080910402602001604051908101604052809291908181526020018280546104d7906122e1565b80156105245780601f106104f957610100808354040283529160200191610524565b820191906000526020600020905b81548152906001019060200180831161050757829003601f168201915b5050505050905090565b60006105386111fb565b600660008273ffffffffffffffffffffffffffffffffffffffff1673ffffffffffffffffffffffffffffffffffffffff16815260200190815260200160002060009054906101000a900460ff16156105c5576040517f08c379a00000000000000000000000000000000000000000000000000000000081526004016105bc90611fe3565b60405180910390fd5b6105cf8484611203565b50600191505092915050565b6000600254905090565b60006105ef6111fb565b600660008273ffffffffffffffffffffffffffffffffffffffff1673ffffffffffffffffffffffffffffffffffffffff16815260200190815260200160002060009054906101000a900460ff161561067c576040517f08c379a000000000000000000000000000000000000000000000000000000000815260040161067390611fe3565b60405180910390fd5b610687858585611221565b5060019150509392505050565b60006012905090565b60006106a76111fb565b600660008273ffffffffffffffffffffffffffffffffffffffff1673ffffffffffffffffffffffffffffffffffffffff16815260200190815260200160002060009054906101000a900460ff1615610734576040517f08c379a000000000000000000000000000000000000000000000000000000000815260040161072b90611fe3565b60405180910390fd5b61073e8484611322565b50600191505092915050565b60008060008373ffffffffffffffffffffffffffffffffffffffff1673ffffffffffffffffffffffffffffffffffffffff168152602001908152602001600020549050919050565b61079a6111fb565b73ffffffffffffffffffffffffffffffffffffffff166107b86108cf565b73ffffffffffffffffffffffffffffffffffffffff161461080e576040517f08c379a000000000000000000000000000000000000000000000000000000000815260040161080590612043565b60405180910390fd5b600073ffffffffffffffffffffffffffffffffffffffff16600560009054906101000a900473ffffffffffffffffffffffffffffffffffffffff1673ffffffffffffffffffffffffffffffffffffffff167f8be0079c531659141344cd1fd0a4f28419497f9722a3daafe3b4186f6b6457e060405160405180910390a36000600560006101000a81548173ffffffffffffffffffffffffffffffffffffffff021916908373ffffffffffffffffffffffffffffffffffffffff160217905550565b6000600560009054906101000a900473ffffffffffffffffffffffffffffffffffffffff16905090565b60006109036111fb565b73ffffffffffffffffffffffffffffffffffffffff166109216108cf565b73ffffffffffffffffffffffffffffffffffffffff1614610977576040517f08c379a000000000000000000000000000000000000000000000000000000000815260040161096e90612043565b60405180910390fd5b600660008373ffffffffffffffffffffffffffffffffffffffff1673ffffffffffffffffffffffffffffffffffffffff16815260200190815260200160002060009054906101000a900460ff1615610a04576040517f08c379a00000000000000000000000000000000000000000000000000000000081526004016109fb906120c3565b60405180910390fd5b6001600660008473ffffffffffffffffffffffffffffffffffffffff1673ffffffffffffffffffffffffffffffffffffffff16815260200190815260200160002060006101000a81548160ff0219169083151502179055508173ffffffffffffffffffffffffffffffffffffffff167f219fdc4ba5d5db0c3aece2094c8f7c5992dc1963312c059a6d16ff4e09b6e64c60405160405180910390a2600660008373ffffffffffffffffffffffffffffffffffffffff1673ffffffffffffffffffffffffffffffffffffffff16815260200190815260200160002060009054906101000a900460ff169050919050565b606060048054610b02906122e1565b80601f0160208091040260200160405190810160405280929190818152602001828054610b2e906122e1565b8015610b7b5780601f10610b5057610100808354040283529160200191610b7b565b820191906000526020600020905b815481529060010190602001808311610b5e57829003601f168201915b5050505050905090565b6000610b8f6111fb565b600660008273ffffffffffffffffffffffffffffffffffffffff1673ffffffffffffffffffffffffffffffffffffffff16815260200190815260200160002060009054906101000a900460ff1615610c1c576040517f08c379a0000000000000000000000000000000000000000000000000000000008152600401610c1390611fe3565b60405180910390fd5b610c2684846113ce565b600191505092915050565b6000610c3b6111fb565b73ffffffffffffffffffffffffffffffffffffffff16610c596108cf565b73ffffffffffffffffffffffffffffffffffffffff1614610caf576040517f08c379a0000000000000000000000000000000000000000000000000000000008152600401610ca690612043565b60405180910390fd5b600660008373ffffffffffffffffffffffffffffffffffffffff1673ffffffffffffffffffffffffffffffffffffffff16815260200190815260200160002060009054906101000a900460ff16610d3b576040517f08c379a0000000000000000000000000000000000000000000000000000000008152600401610d3290612103565b60405180910390fd5b6000600660008473ffffffffffffffffffffffffffffffffffffffff1673ffffffffffffffffffffffffffffffffffffffff16815260200190815260200160002060006101000a81548160ff0219169083151502179055508173ffffffffffffffffffffffffffffffffffffffff167feb043ab0f7cd08886b8aaab3c103c59829e8b223765b9db006132a75800885d360405160405180910390a2600660008373ffffffffffffffffffffffffffffffffffffffff1673ffffffffffffffffffffffffffffffffffffffff16815260200190815260200160002060009054906101000a900460ff169050919050565b6000610e346111fb565b600660008273ffffffffffffffffffffffffffffffffffffffff1673ffffffffffffffffffffffffffffffffffffffff16815260200190815260200160002060009054906101000a900460ff1615610ec1576040517f08c379a0000000000000000000000000000000000000000000000000000000008152600401610eb890611fe3565b60405180910390fd5b610ecb84846115a2565b50600191505092915050565b6000610ee16111fb565b600660008273ffffffffffffffffffffffffffffffffffffffff1673ffffffffffffffffffffffffffffffffffffffff16815260200190815260200160002060009054906101000a900460ff1615610f6e576040517f08c379a0000000000000000000000000000000000000000000000000000000008152600401610f6590611fe3565b60405180910390fd5b610f9a610f796111fb565b85610f95670de0b6b3a76400008761169690919063ffffffff16565b6116ac565b600191505092915050565b6000610faf6111fb565b600660008273ffffffffffffffffffffffffffffffffffffffff1673ffffffffffffffffffffffffffffffffffffffff16815260200190815260200160002060009054906101000a900460ff161561103c576040517f08c379a000000000000000000000000000000000000000000000000000000000815260040161103390611fe3565b60405180910390fd5b611046848461192b565b91505092915050565b6110576111fb565b73ffffffffffffffffffffffffffffffffffffffff166110756108cf565b73ffffffffffffffffffffffffffffffffffffffff16146110cb576040517f08c379a00000000000000000000000000000000000000000000000000000000081526004016110c290612043565b60405180910390fd5b600073ffffffffffffffffffffffffffffffffffffffff168173ffffffffffffffffffffffffffffffffffffffff16141561113b576040517f08c379a000000000000000000000000000000000000000000000000000000000815260040161113290611fa3565b60405180910390fd5b8073ffffffffffffffffffffffffffffffffffffffff16600560009054906101000a900473ffffffffffffffffffffffffffffffffffffffff1673ffffffffffffffffffffffffffffffffffffffff167f8be0079c531659141344cd1fd0a4f28419497f9722a3daafe3b4186f6b6457e060405160405180910390a380600560006101000a81548173ffffffffffffffffffffffffffffffffffffffff021916908373ffffffffffffffffffffffffffffffffffffffff16021790555050565b600033905090565b60006112176112106111fb565b84846119b2565b6001905092915050565b600061122e8484846116ac565b6000600160008673ffffffffffffffffffffffffffffffffffffffff1673ffffffffffffffffffffffffffffffffffffffff16815260200190815260200160002060006112796111fb565b73ffffffffffffffffffffffffffffffffffffffff1673ffffffffffffffffffffffffffffffffffffffff168152602001908152602001600020549050828110156112f9576040517f08c379a00000000000000000000000000000000000000000000000000000000081526004016112f090612023565b60405180910390fd5b611316856113056111fb565b85846113119190612225565b6119b2565b60019150509392505050565b60006113c461132f6111fb565b84846001600061133d6111fb565b73ffffffffffffffffffffffffffffffffffffffff1673ffffffffffffffffffffffffffffffffffffffff16815260200190815260200160002060008873ffffffffffffffffffffffffffffffffffffffff1673ffffffffffffffffffffffffffffffffffffffff168152602001908152602001600020546113bf9190612175565b6119b2565b6001905092915050565b600073ffffffffffffffffffffffffffffffffffffffff168273ffffffffffffffffffffffffffffffffffffffff16141561143e576040517f08c379a000000000000000000000000000000000000000000000000000000000815260040161143590612063565b60405180910390fd5b61144a82600083611b7d565b60008060008473ffffffffffffffffffffffffffffffffffffffff1673ffffffffffffffffffffffffffffffffffffffff168152602001908152602001600020549050818110156114d0576040517f08c379a00000000000000000000000000000000000000000000000000000000081526004016114c790611f83565b60405180910390fd5b81816114dc9190612225565b6000808573ffffffffffffffffffffffffffffffffffffffff1673ffffffffffffffffffffffffffffffffffffffff1681526020019081526020016000208190555081600260008282546115309190612225565b92505081905550600073ffffffffffffffffffffffffffffffffffffffff168373ffffffffffffffffffffffffffffffffffffffff167fddf252ad1be2c89b69c2b068fc378daa952ba7f163c4a11628f55a4df523b3ef846040516115959190612123565b60405180910390a3505050565b600080600160006115b16111fb565b73ffffffffffffffffffffffffffffffffffffffff1673ffffffffffffffffffffffffffffffffffffffff16815260200190815260200160002060008573ffffffffffffffffffffffffffffffffffffffff1673ffffffffffffffffffffffffffffffffffffffff1681526020019081526020016000205490508281101561166e576040517f08c379a0000000000000000000000000000000000000000000000000000000008152600401611665906120e3565b60405180910390fd5b61168b6116796111fb565b8585846116869190612225565b6119b2565b600191505092915050565b600081836116a491906121cb565b905092915050565b600073ffffffffffffffffffffffffffffffffffffffff168373ffffffffffffffffffffffffffffffffffffffff16141561171c576040517f08c379a000000000000000000000000000000000000000000000000000000000815260040161171390612083565b60405180910390fd5b600073ffffffffffffffffffffffffffffffffffffffff168273ffffffffffffffffffffffffffffffffffffffff16141561178c576040517f08c379a000000000000000000000000000000000000000000000000000000000815260040161178390611f63565b60405180910390fd5b611797838383611b7d565b60008060008573ffffffffffffffffffffffffffffffffffffffff1673ffffffffffffffffffffffffffffffffffffffff1681526020019081526020016000205490508181101561181d576040517f08c379a000000000000000000000000000000000000000000000000000000000815260040161181490612003565b60405180910390fd5b81816118299190612225565b6000808673ffffffffffffffffffffffffffffffffffffffff1673ffffffffffffffffffffffffffffffffffffffff16815260200190815260200160002081905550816000808573ffffffffffffffffffffffffffffffffffffffff1673ffffffffffffffffffffffffffffffffffffffff16815260200190815260200160002060008282546118b99190612175565b925050819055508273ffffffffffffffffffffffffffffffffffffffff168473ffffffffffffffffffffffffffffffffffffffff167fddf252ad1be2c89b69c2b068fc378daa952ba7f163c4a11628f55a4df523b3ef8460405161191d9190612123565b60405180910390a350505050565b6000600160008473ffffffffffffffffffffffffffffffffffffffff1673ffffffffffffffffffffffffffffffffffffffff16815260200190815260200160002060008373ffffffffffffffffffffffffffffffffffffffff1673ffffffffffffffffffffffffffffffffffffffff16815260200190815260200160002054905092915050565b600073ffffffffffffffffffffffffffffffffffffffff168373ffffffffffffffffffffffffffffffffffffffff161415611a22576040517f08c379a0000000000000000000000000000000000000000000000000000000008152600401611a19906120a3565b60405180910390fd5b600073ffffffffffffffffffffffffffffffffffffffff168273ffffffffffffffffffffffffffffffffffffffff161415611a92576040517f08c379a0000000000000000000000000000000000000000000000000000000008152600401611a8990611fc3565b60405180910390fd5b80600160008573ffffffffffffffffffffffffffffffffffffffff1673ffffffffffffffffffffffffffffffffffffffff16815260200190815260200160002060008473ffffffffffffffffffffffffffffffffffffffff1673ffffffffffffffffffffffffffffffffffffffff168152602001908152602001600020819055508173ffffffffffffffffffffffffffffffffffffffff168373ffffffffffffffffffffffffffffffffffffffff167f8c5be1e5ebec7d5bd14f71427d1e84f3dd0314c0f7b2291e5b200ac8c7c3b92583604051611b709190612123565b60405180910390a3505050565b505050565b600081359050611b9181612767565b92915050565b600081359050611ba68161277e565b92915050565b600060208284031215611bc257611bc1612371565b5b6000611bd084828501611b82565b91505092915050565b60008060408385031215611bf057611bef612371565b5b6000611bfe85828601611b82565b9250506020611c0f85828601611b82565b9150509250929050565b600080600060608486031215611c3257611c31612371565b5b6000611c4086828701611b82565b9350506020611c5186828701611b82565b9250506040611c6286828701611b97565b9150509250925092565b60008060408385031215611c8357611c82612371565b5b6000611c9185828601611b82565b9250506020611ca285828601611b97565b9150509250929050565b611cb581612259565b82525050565b611cc48161226b565b82525050565b6000611cd582612159565b611cdf8185612164565b9350611cef8185602086016122ae565b611cf881612376565b840191505092915050565b6000611d10602383612164565b9150611d1b82612387565b604082019050919050565b6000611d33602283612164565b9150611d3e826123d6565b604082019050919050565b6000611d56602683612164565b9150611d6182612425565b604082019050919050565b6000611d79602283612164565b9150611d8482612474565b604082019050919050565b6000611d9c600a83612164565b9150611da7826124c3565b602082019050919050565b6000611dbf602683612164565b9150611dca826124ec565b604082019050919050565b6000611de2602883612164565b9150611ded8261253b565b604082019050919050565b6000611e05602083612164565b9150611e108261258a565b602082019050919050565b6000611e28602183612164565b9150611e33826125b3565b604082019050919050565b6000611e4b602583612164565b9150611e5682612602565b604082019050919050565b6000611e6e602483612164565b9150611e7982612651565b604082019050919050565b6000611e91601c83612164565b9150611e9c826126a0565b602082019050919050565b6000611eb4602583612164565b9150611ebf826126c9565b604082019050919050565b6000611ed7602483612164565b9150611ee282612718565b604082019050919050565b611ef681612297565b82525050565b611f05816122a1565b82525050565b6000602082019050611f206000830184611cac565b92915050565b6000602082019050611f3b6000830184611cbb565b92915050565b60006020820190508181036000830152611f5b8184611cca565b905092915050565b60006020820190508181036000830152611f7c81611d03565b9050919050565b60006020820190508181036000830152611f9c81611d26565b9050919050565b60006020820190508181036000830152611fbc81611d49565b9050919050565b60006020820190508181036000830152611fdc81611d6c565b9050919050565b60006020820190508181036000830152611ffc81611d8f565b9050919050565b6000602082019050818103600083015261201c81611db2565b9050919050565b6000602082019050818103600083015261203c81611dd5565b9050919050565b6000602082019050818103600083015261205c81611df8565b9050919050565b6000602082019050818103600083015261207c81611e1b565b9050919050565b6000602082019050818103600083015261209c81611e3e565b9050919050565b600060208201905081810360008301526120bc81611e61565b9050919050565b600060208201905081810360008301526120dc81611e84565b9050919050565b600060208201905081810360008301526120fc81611ea7565b9050919050565b6000602082019050818103600083015261211c81611eca565b9050919050565b60006020820190506121386000830184611eed565b92915050565b60006020820190506121536000830184611efc565b92915050565b600081519050919050565b600082825260208201905092915050565b600061218082612297565b915061218b83612297565b9250827fffffffffffffffffffffffffffffffffffffffffffffffffffffffffffffffff038211156121c0576121bf612313565b5b828201905092915050565b60006121d682612297565b91506121e183612297565b9250817fffffffffffffffffffffffffffffffffffffffffffffffffffffffffffffffff048311821515161561221a57612219612313565b5b828202905092915050565b600061223082612297565b915061223b83612297565b92508282101561224e5761224d612313565b5b828203905092915050565b600061226482612277565b9050919050565b60008115159050919050565b600073ffffffffffffffffffffffffffffffffffffffff82169050919050565b6000819050919050565b600060ff82169050919050565b60005b838110156122cc5780820151818401526020810190506122b1565b838111156122db576000848401525b50505050565b600060028204905060018216806122f957607f821691505b6020821081141561230d5761230c612342565b5b50919050565b7f4e487b7100000000000000000000000000000000000000000000000000000000600052601160045260246000fd5b7f4e487b7100000000000000000000000000000000000000000000000000000000600052602260045260246000fd5b600080fd5b6000601f19601f8301169050919050565b7f45524332303a207472616e7366657220746f20746865207a65726f206164647260008201527f6573730000000000000000000000000000000000000000000000000000000000602082015250565b7f45524332303a206275726e20616d6f756e7420657863656564732062616c616e60008201527f6365000000000000000000000000000000000000000000000000000000000000602082015250565b7f4f776e61626c653a206e6577206f776e657220697320746865207a65726f206160008201527f6464726573730000000000000000000000000000000000000000000000000000602082015250565b7f45524332303a20617070726f766520746f20746865207a65726f20616464726560008201527f7373000000000000000000000000000000000000000000000000000000000000602082015250565b7f5265737472696374656400000000000000000000000000000000000000000000600082015250565b7f45524332303a207472616e7366657220616d6f756e742065786365656473206260008201527f616c616e63650000000000000000000000000000000000000000000000000000602082015250565b7f45524332303a207472616e7366657220616d6f756e742065786365656473206160008201527f6c6c6f77616e6365000000000000000000000000000000000000000000000000602082015250565b7f4f776e61626c653a2063616c6c6572206973206e6f7420746865206f776e6572600082015250565b7f45524332303a206275726e2066726f6d20746865207a65726f2061646472657360008201527f7300000000000000000000000000000000000000000000000000000000000000602082015250565b7f45524332303a207472616e736665722066726f6d20746865207a65726f20616460008201527f6472657373000000000000000000000000000000000000000000000000000000602082015250565b7f45524332303a20617070726f76652066726f6d20746865207a65726f2061646460008201527f7265737300000000000000000000000000000000000000000000000000000000602082015250565b7f4163636f756e742073757370656e646564206265666f7265206e6f7700000000600082015250565b7f45524332303a2064656372656173656420616c6c6f77616e63652062656c6f7760008201527f207a65726f000000000000000000000000000000000000000000000000000000602082015250565b7f4163636f756e74206973206e6f742073757370656e646564206265666f72652060008201527f6e6f772e00000000000000000000000000000000000000000000000000000000602082015250565b61277081612259565b811461277b57600080fd5b50565b61278781612297565b811461279257600080fd5b5056fea2646970667358221220ecfe003e66bc6c11bfcb7e11945453601dc910e6c5d780560485edde4f729b1464736f6c63430008060033",
  "immutableReferences": {},
  "source": "// SPDX-License-Identifier: MIT\r\n\r\npragma solidity ^0.8.0;\r\n\r\n// import \"openzeppelin-solidity/contracts/utils/Context.sol\";\r\nimport \"openzeppelin-solidity/contracts/token/ERC20/ERC20.sol\";\r\nimport \"openzeppelin-solidity/contracts/access/Ownable.sol\";\r\nimport \"openzeppelin-solidity/contracts/utils/math/SafeMath.sol\";\r\n\r\n\r\ncontract SafeBrosToken is ERC20, Ownable {\r\n\r\n    using SafeMath for uint256;\r\n\r\n    event MuteAccount(address indexed _target);\r\n\r\n    event UnMuteAccount(address indexed _target);\r\n\r\n    mapping(address => bool) private suspension;\r\n\r\n    /**\r\n     * @dev Sets the values for {name} and {symbol}, initializes {decimals} with\r\n     * a default value of 18.\r\n     *\r\n     * To select a different value for {decimals}, use {_setupDecimals}.\r\n     *\r\n     * All three of these values are immutable: they can only be set once during\r\n     * construction.\r\n     */\r\n    constructor(uint supply) ERC20(\"BroToken\", \"BROT\") {\r\n        _mint(_msgSender(), (supply * (10**18)));\r\n    }\r\n\r\n    modifier isNotsuspended(address _any) {\r\n        require(!suspension[_any], 'Restricted');\r\n        _;\r\n    }\r\n\r\n    receive () external payable {\r\n        if(msg.value < 1e17 wei) revert();\r\n    }\r\n\r\n    /**\r\n     * @dev See {ERC20-transfer}.\r\n     *\r\n     * Requirements:\r\n     *\r\n     * - `recipient` cannot be the zero address.\r\n     * - the caller must have a balance of at least `amount`.\r\n     */\r\n    function transfer(address recipient, uint256 amount) public override isNotsuspended(_msgSender()) returns(bool) {\r\n        _transfer(_msgSender(), recipient, amount.mul(10 ** 18));\r\n\r\n        return true;\r\n    }\r\n\r\n    /**\r\n     * @dev See {ERC20-allowance}.\r\n     */\r\n    function allowance(address owner, address spender) public override view isNotsuspended(_msgSender()) returns (uint256) {\r\n        return super.allowance(owner, spender);\r\n    }\r\n\r\n    /**\r\n     * @dev See {ERC20-approve}.\r\n     *\r\n     * Requirements:\r\n     *\r\n     * - `spender` cannot be the zero address.\r\n     */\r\n    function approve(address spender, uint256 amount) public override isNotsuspended(_msgSender()) returns (bool) {\r\n        super.approve(spender, amount);\r\n        return true;\r\n    }\r\n\r\n    /**\r\n     * @dev See {ERC20-transferFrom}.\r\n     *\r\n     * Emits an {Approval} event indicating the updated allowance. This is not\r\n     * required by the EIP. See the note at the beginning of {ERC20};\r\n     *\r\n     * Requirements:\r\n     * - `sender` and `recipient` cannot be the zero address.\r\n     * - `sender` must have a balance of at least `amount`.\r\n     * - the caller must have allowance for `sender`'s tokens of at least\r\n     * `amount`.\r\n     */\r\n    function transferFrom(address sender, address recipient, uint256 amount) public override isNotsuspended(_msgSender()) returns (bool) {\r\n        super.transferFrom(sender, recipient, amount);\r\n\r\n        return true;\r\n    }\r\n\r\n    /**\r\n     * @dev Atomically increases the allowance granted to `spender` by the caller.\r\n     *\r\n     * This is an alternative to {approve} that can be used as a mitigation for\r\n     * problems described in {ERC20-approve}.\r\n     *\r\n     * Emits an {Approval} event indicating the updated allowance.\r\n     *\r\n     * Requirements:\r\n     *\r\n     * - `spender` cannot be the zero address.\r\n     */\r\n    function increaseAllowance(address spender, uint256 addedValue) public override isNotsuspended(_msgSender()) returns (bool) {\r\n        super.increaseAllowance(spender, addedValue);\r\n\r\n        return true;\r\n    }\r\n\r\n    /**\r\n     * @dev Atomically decreases the allowance granted to `spender` by the caller.\r\n     *\r\n     * This is an alternative to {approve} that can be used as a mitigation for\r\n     * problems described in {ERC20-approve}.\r\n     *\r\n     * Emits an {Approval} event indicating the updated allowance.\r\n     *\r\n     * Requirements:\r\n     *\r\n     * - `spender` cannot be the zero address.\r\n     * - `spender` must have allowance for the caller of at least\r\n     * `subtractedValue`.\r\n     */\r\n    function decreaseAllowance(address spender, uint256 subtractedValue) public override isNotsuspended(_msgSender()) returns (bool) {\r\n        super.decreaseAllowance(spender, subtractedValue);\r\n\r\n        return true;\r\n    }\r\n\r\n    /**\r\n     * @dev Creates `amount` tokens and assigns them to `msg.sender`, increasing\r\n     * the total supply.\r\n     *\r\n     * Requirements\r\n     *\r\n     * - `msg.sender` must be the token owner\r\n     */\r\n    function mint(address destination, uint256 amount) internal returns (bool) {\r\n        _mint(destination, amount);\r\n        return true;\r\n    }\r\n    \r\n    // receive () external payable {\r\n    //     if(msg.value < 1e21 wei) revert();\r\n    // }\r\n\r\n    /**\r\n     * @dev Destroys `amount` tokens from `account`, reducing the\r\n     * total supply.\r\n     *\r\n     * Emits a {Transfer} event with `to` set to the zero address.\r\n     *\r\n     * Requirements\r\n     *\r\n     * - `account` cannot be the zero address.\r\n     * - `account` must have at least `amount` tokens.\r\n     */\r\n    function burn(address account, uint256 amount) external isNotsuspended(_msgSender()) returns(bool) {\r\n        _burn(account, amount);\r\n\r\n        return true;\r\n    }\r\n\r\n    /**\r\n     * @dev Destroys `amount` tokens from `account`.`amount` is then deducted\r\n     * from the caller's allowance.\r\n     *\r\n     * See {_burn} and {_approve}.\r\n     */\r\n    // function _burnFrom(address account, uint256 amount) internal isNotFreezed(account) {\r\n    //     if(_burn(account, amount)) {\r\n\r\n    //         _approve(\r\n    //             account,\r\n    //             msg.sender,\r\n    //             _allowances[account][msg.sender].sub(amount, 'ERC20: burn amount exceeds allowance')\r\n    //         );\r\n    //     }\r\n    // }\r\n\r\n    function suspendAccount(address _target) public onlyOwner returns(bool) {\r\n        if(suspension[_target]) revert('Account suspended before now');\r\n        suspension[_target] = true;\r\n        emit MuteAccount(_target);\r\n        return suspension[_target];\r\n    }\r\n\r\n    function unsuspendAccount(address _target) public onlyOwner returns(bool) {\r\n        if(!suspension[_target]) revert('Account is not suspended before now.');\r\n        suspension[_target] = false;\r\n        emit UnMuteAccount(_target);\r\n\r\n        return suspension[_target];\r\n    }\r\n\r\n\r\n\r\n}",
  "sourcePath": "C:/Users/Dell/Desktop/brother/brothersFinance/contracts/SafeBrosToken.sol",
  "compiler": {
    "name": "solc",
    "version": "0.8.6+commit.11564f7e.Emscripten.clang"
  },
  "schemaVersion": "3.4.1",
  "updatedAt": "2021-07-03T21:08:25.620Z",
  "devdoc": {
    "kind": "dev",
    "methods": {
      "allowance(address,address)": {
        "details": "See {ERC20-allowance}."
      },
      "approve(address,uint256)": {
        "details": "See {ERC20-approve}. Requirements: - `spender` cannot be the zero address."
      },
      "balanceOf(address)": {
        "details": "See {IERC20-balanceOf}."
      },
      "burn(address,uint256)": {
        "details": "Destroys `amount` tokens from `account`, reducing the total supply. Emits a {Transfer} event with `to` set to the zero address. Requirements - `account` cannot be the zero address. - `account` must have at least `amount` tokens."
      },
      "constructor": {
        "details": "Sets the values for {name} and {symbol}, initializes {decimals} with a default value of 18. To select a different value for {decimals}, use {_setupDecimals}. All three of these values are immutable: they can only be set once during construction."
      },
      "decimals()": {
        "details": "Returns the number of decimals used to get its user representation. For example, if `decimals` equals `2`, a balance of `505` tokens should be displayed to a user as `5,05` (`505 / 10 ** 2`). Tokens usually opt for a value of 18, imitating the relationship between Ether and Wei. This is the value {ERC20} uses, unless this function is overridden; NOTE: This information is only used for _display_ purposes: it in no way affects any of the arithmetic of the contract, including {IERC20-balanceOf} and {IERC20-transfer}."
      },
      "decreaseAllowance(address,uint256)": {
        "details": "Atomically decreases the allowance granted to `spender` by the caller. This is an alternative to {approve} that can be used as a mitigation for problems described in {ERC20-approve}. Emits an {Approval} event indicating the updated allowance. Requirements: - `spender` cannot be the zero address. - `spender` must have allowance for the caller of at least `subtractedValue`."
      },
      "increaseAllowance(address,uint256)": {
        "details": "Atomically increases the allowance granted to `spender` by the caller. This is an alternative to {approve} that can be used as a mitigation for problems described in {ERC20-approve}. Emits an {Approval} event indicating the updated allowance. Requirements: - `spender` cannot be the zero address."
      },
      "name()": {
        "details": "Returns the name of the token."
      },
      "owner()": {
        "details": "Returns the address of the current owner."
      },
      "renounceOwnership()": {
        "details": "Leaves the contract without owner. It will not be possible to call `onlyOwner` functions anymore. Can only be called by the current owner. NOTE: Renouncing ownership will leave the contract without an owner, thereby removing any functionality that is only available to the owner."
      },
      "suspendAccount(address)": {
        "details": "Destroys `amount` tokens from `account`.`amount` is then deducted from the caller's allowance. See {_burn} and {_approve}."
      },
      "symbol()": {
        "details": "Returns the symbol of the token, usually a shorter version of the name."
      },
      "totalSupply()": {
        "details": "See {IERC20-totalSupply}."
      },
      "transfer(address,uint256)": {
        "details": "See {ERC20-transfer}. Requirements: - `recipient` cannot be the zero address. - the caller must have a balance of at least `amount`."
      },
      "transferFrom(address,address,uint256)": {
        "details": "See {ERC20-transferFrom}. Emits an {Approval} event indicating the updated allowance. This is not required by the EIP. See the note at the beginning of {ERC20}; Requirements: - `sender` and `recipient` cannot be the zero address. - `sender` must have a balance of at least `amount`. - the caller must have allowance for `sender`'s tokens of at least `amount`."
      },
      "transferOwnership(address)": {
        "details": "Transfers ownership of the contract to a new account (`newOwner`). Can only be called by the current owner."
      }
    },
    "version": 1
  },
  "userdoc": {
    "kind": "user",
    "methods": {},
    "version": 1
  }
}