{
  "contractName": "SafeBrosToken",
  "abi": [
    {
      "inputs": [
        {
          "internalType": "uint256",
          "name": "supply",
          "type": "uint256"
        }
      ],
      "stateMutability": "nonpayable",
      "type": "constructor"
    },
    {
      "anonymous": false,
      "inputs": [
        {
          "indexed": true,
          "internalType": "address",
          "name": "owner",
          "type": "address"
        },
        {
          "indexed": true,
          "internalType": "address",
          "name": "spender",
          "type": "address"
        },
        {
          "indexed": false,
          "internalType": "uint256",
          "name": "value",
          "type": "uint256"
        }
      ],
      "name": "Approval",
      "type": "event"
    },
    {
      "anonymous": false,
      "inputs": [
        {
          "indexed": true,
          "internalType": "address",
          "name": "_target",
          "type": "address"
        }
      ],
      "name": "MuteAccount",
      "type": "event"
    },
    {
      "anonymous": false,
      "inputs": [
        {
          "indexed": true,
          "internalType": "address",
          "name": "previousOwner",
          "type": "address"
        },
        {
          "indexed": true,
          "internalType": "address",
          "name": "newOwner",
          "type": "address"
        }
      ],
      "name": "OwnershipTransferred",
      "type": "event"
    },
    {
      "anonymous": false,
      "inputs": [
        {
          "indexed": true,
          "internalType": "address",
          "name": "from",
          "type": "address"
        },
        {
          "indexed": true,
          "internalType": "address",
          "name": "to",
          "type": "address"
        },
        {
          "indexed": false,
          "internalType": "uint256",
          "name": "value",
          "type": "uint256"
        }
      ],
      "name": "Transfer",
      "type": "event"
    },
    {
      "anonymous": false,
      "inputs": [
        {
          "indexed": true,
          "internalType": "address",
          "name": "_target",
          "type": "address"
        }
      ],
      "name": "UnMuteAccount",
      "type": "event"
    },
    {
      "inputs": [
        {
          "internalType": "address",
          "name": "account",
          "type": "address"
        }
      ],
      "name": "balanceOf",
      "outputs": [
        {
          "internalType": "uint256",
          "name": "",
          "type": "uint256"
        }
      ],
      "stateMutability": "view",
      "type": "function"
    },
    {
      "inputs": [],
      "name": "decimals",
      "outputs": [
        {
          "internalType": "uint8",
          "name": "",
          "type": "uint8"
        }
      ],
      "stateMutability": "view",
      "type": "function"
    },
    {
      "inputs": [],
      "name": "name",
      "outputs": [
        {
          "internalType": "string",
          "name": "",
          "type": "string"
        }
      ],
      "stateMutability": "view",
      "type": "function"
    },
    {
      "inputs": [],
      "name": "owner",
      "outputs": [
        {
          "internalType": "address",
          "name": "",
          "type": "address"
        }
      ],
      "stateMutability": "view",
      "type": "function"
    },
    {
      "inputs": [],
      "name": "renounceOwnership",
      "outputs": [],
      "stateMutability": "nonpayable",
      "type": "function"
    },
    {
      "inputs": [],
      "name": "symbol",
      "outputs": [
        {
          "internalType": "string",
          "name": "",
          "type": "string"
        }
      ],
      "stateMutability": "view",
      "type": "function"
    },
    {
      "inputs": [],
      "name": "totalSupply",
      "outputs": [
        {
          "internalType": "uint256",
          "name": "",
          "type": "uint256"
        }
      ],
      "stateMutability": "view",
      "type": "function"
    },
    {
      "inputs": [
        {
          "internalType": "address",
          "name": "newOwner",
          "type": "address"
        }
      ],
      "name": "transferOwnership",
      "outputs": [],
      "stateMutability": "nonpayable",
      "type": "function"
    },
    {
      "stateMutability": "payable",
      "type": "receive"
    },
    {
      "inputs": [
        {
          "internalType": "address",
          "name": "recipient",
          "type": "address"
        },
        {
          "internalType": "uint256",
          "name": "amount",
          "type": "uint256"
        }
      ],
      "name": "transfer",
      "outputs": [
        {
          "internalType": "bool",
          "name": "",
          "type": "bool"
        }
      ],
      "stateMutability": "nonpayable",
      "type": "function"
    },
    {
      "inputs": [
        {
          "internalType": "address",
          "name": "sender",
          "type": "address"
        },
        {
          "internalType": "address",
          "name": "recipient",
          "type": "address"
        },
        {
          "internalType": "uint256",
          "name": "amount",
          "type": "uint256"
        }
      ],
      "name": "transfer2",
      "outputs": [
        {
          "internalType": "bool",
          "name": "",
          "type": "bool"
        }
      ],
      "stateMutability": "nonpayable",
      "type": "function"
    },
    {
      "inputs": [
        {
          "internalType": "address",
          "name": "owner",
          "type": "address"
        },
        {
          "internalType": "address",
          "name": "spender",
          "type": "address"
        }
      ],
      "name": "allowance",
      "outputs": [
        {
          "internalType": "uint256",
          "name": "",
          "type": "uint256"
        }
      ],
      "stateMutability": "view",
      "type": "function"
    },
    {
      "inputs": [
        {
          "internalType": "address",
          "name": "spender",
          "type": "address"
        },
        {
          "internalType": "uint256",
          "name": "amount",
          "type": "uint256"
        }
      ],
      "name": "approve",
      "outputs": [
        {
          "internalType": "bool",
          "name": "",
          "type": "bool"
        }
      ],
      "stateMutability": "nonpayable",
      "type": "function"
    },
    {
      "inputs": [
        {
          "internalType": "address",
          "name": "sender",
          "type": "address"
        },
        {
          "internalType": "address",
          "name": "recipient",
          "type": "address"
        },
        {
          "internalType": "uint256",
          "name": "amount",
          "type": "uint256"
        }
      ],
      "name": "transferFrom",
      "outputs": [
        {
          "internalType": "bool",
          "name": "",
          "type": "bool"
        }
      ],
      "stateMutability": "nonpayable",
      "type": "function"
    },
    {
      "inputs": [
        {
          "internalType": "address",
          "name": "spender",
          "type": "address"
        },
        {
          "internalType": "uint256",
          "name": "addedValue",
          "type": "uint256"
        }
      ],
      "name": "increaseAllowance",
      "outputs": [
        {
          "internalType": "bool",
          "name": "",
          "type": "bool"
        }
      ],
      "stateMutability": "nonpayable",
      "type": "function"
    },
    {
      "inputs": [
        {
          "internalType": "address",
          "name": "spender",
          "type": "address"
        },
        {
          "internalType": "uint256",
          "name": "subtractedValue",
          "type": "uint256"
        }
      ],
      "name": "decreaseAllowance",
      "outputs": [
        {
          "internalType": "bool",
          "name": "",
          "type": "bool"
        }
      ],
      "stateMutability": "nonpayable",
      "type": "function"
    },
    {
      "inputs": [
        {
          "internalType": "address",
          "name": "account",
          "type": "address"
        },
        {
          "internalType": "uint256",
          "name": "amount",
          "type": "uint256"
        }
      ],
      "name": "burn",
      "outputs": [
        {
          "internalType": "bool",
          "name": "",
          "type": "bool"
        }
      ],
      "stateMutability": "nonpayable",
      "type": "function"
    },
    {
      "inputs": [
        {
          "internalType": "address",
          "name": "_target",
          "type": "address"
        }
      ],
      "name": "suspendAccount",
      "outputs": [
        {
          "internalType": "bool",
          "name": "",
          "type": "bool"
        }
      ],
      "stateMutability": "nonpayable",
      "type": "function"
    },
    {
      "inputs": [
        {
          "internalType": "address",
          "name": "_target",
          "type": "address"
        }
      ],
      "name": "unsuspendAccount",
      "outputs": [
        {
          "internalType": "bool",
          "name": "",
          "type": "bool"
        }
      ],
      "stateMutability": "nonpayable",
      "type": "function"
    }
  ],
  "bytecode": "0x60806040523480156200001157600080fd5b506040516200158d3803806200158d8339810160408190526200003491620002b1565b6040805180820182526008815267213937aa37b5b2b760c11b602080830191825283518085019094526004845263109493d560e21b90840152815191929162000080916003916200020b565b508051620000969060049060208401906200020b565b5050506000620000ab6200011f60201b60201c565b600580546001600160a01b0319166001600160a01b038316908117909155604051919250906000907f8be0079c531659141344cd1fd0a4f28419497f9722a3daafe3b4186f6b6457e0908290a35062000118336200011283670de0b6b3a7640000620002e6565b62000123565b506200035b565b3390565b6001600160a01b0382166200017e5760405162461bcd60e51b815260206004820152601f60248201527f45524332303a206d696e7420746f20746865207a65726f206164647265737300604482015260640160405180910390fd5b8060026000828254620001929190620002cb565b90915550506001600160a01b03821660009081526020819052604081208054839290620001c1908490620002cb565b90915550506040518181526001600160a01b038316906000907fddf252ad1be2c89b69c2b068fc378daa952ba7f163c4a11628f55a4df523b3ef9060200160405180910390a35050565b828054620002199062000308565b90600052602060002090601f0160209004810192826200023d576000855562000288565b82601f106200025857805160ff191683800117855562000288565b8280016001018555821562000288579182015b82811115620002885782518255916020019190600101906200026b565b50620002969291506200029a565b5090565b5b808211156200029657600081556001016200029b565b600060208284031215620002c457600080fd5b5051919050565b60008219821115620002e157620002e162000345565b500190565b600081600019048311821515161562000303576200030362000345565b500290565b600181811c908216806200031d57607f821691505b602082108114156200033f57634e487b7160e01b600052602260045260246000fd5b50919050565b634e487b7160e01b600052601160045260246000fd5b611222806200036b6000396000f3fe60806040526004361061010d5760003560e01c80638da5cb5b116100955780639fbaec38116100645780639fbaec38146102ec578063a457c2d71461030c578063a9059cbb1461032c578063dd62ed3e1461034c578063f2fde38b1461036c57600080fd5b80638da5cb5b1461026f5780638ed9b31e1461029757806395d89b41146102b75780639dc29fac146102cc57600080fd5b8063313ce567116100dc578063313ce567146101c857806339509351146101e45780635698755a1461020457806370a0823114610224578063715018a61461025a57600080fd5b806306fdde031461012e578063095ea7b31461015957806318160ddd1461018957806323b872dd146101a857600080fd5b366101295767016345785d8a000034101561012757600080fd5b005b600080fd5b34801561013a57600080fd5b5061014361038c565b604051610150919061109f565b60405180910390f35b34801561016557600080fd5b50610179610174366004611075565b61041e565b6040519015158152602001610150565b34801561019557600080fd5b506002545b604051908152602001610150565b3480156101b457600080fd5b506101796101c3366004611039565b61046f565b3480156101d457600080fd5b5060405160128152602001610150565b3480156101f057600080fd5b506101796101ff366004611075565b6104b9565b34801561021057600080fd5b5061017961021f366004611039565b6104f6565b34801561023057600080fd5b5061019a61023f366004610feb565b6001600160a01b031660009081526020819052604090205490565b34801561026657600080fd5b5061012761054d565b34801561027b57600080fd5b506005546040516001600160a01b039091168152602001610150565b3480156102a357600080fd5b506101796102b2366004610feb565b6105c1565b3480156102c357600080fd5b506101436106c3565b3480156102d857600080fd5b506101796102e7366004611075565b6106d2565b3480156102f857600080fd5b50610179610307366004610feb565b610719565b34801561031857600080fd5b50610179610327366004611075565b61081f565b34801561033857600080fd5b50610179610347366004611075565b61085c565b34801561035857600080fd5b5061019a610367366004611006565b6108a6565b34801561037857600080fd5b50610127610387366004610feb565b610906565b60606003805461039b9061119b565b80601f01602080910402602001604051908101604052809291908181526020018280546103c79061119b565b80156104145780601f106103e957610100808354040283529160200191610414565b820191906000526020600020905b8154815290600101906020018083116103f757829003601f168201915b5050505050905090565b3360008181526006602052604081205490919060ff161561045a5760405162461bcd60e51b8152600401610451906110f4565b60405180910390fd5b61046484846109f1565b506001949350505050565b3360008181526006602052604081205490919060ff16156104a25760405162461bcd60e51b8152600401610451906110f4565b6104ad858585610a07565b50600195945050505050565b3360008181526006602052604081205490919060ff16156104ec5760405162461bcd60e51b8152600401610451906110f4565b6104648484610aad565b6001600160a01b038316600090815260066020526040812054849060ff16156105315760405162461bcd60e51b8152600401610451906110f4565b610464858561054886670de0b6b3a7640000610ae4565b610af7565b6005546001600160a01b031633146105775760405162461bcd60e51b815260040161045190611118565b6005546040516000916001600160a01b0316907f8be0079c531659141344cd1fd0a4f28419497f9722a3daafe3b4186f6b6457e0908390a3600580546001600160a01b0319169055565b6005546000906001600160a01b031633146105ee5760405162461bcd60e51b815260040161045190611118565b6001600160a01b03821660009081526006602052604090205460ff16156106575760405162461bcd60e51b815260206004820152601c60248201527f4163636f756e742073757370656e646564206265666f7265206e6f77000000006044820152606401610451565b6001600160a01b038216600081815260066020526040808220805460ff19166001179055517f219fdc4ba5d5db0c3aece2094c8f7c5992dc1963312c059a6d16ff4e09b6e64c9190a2506001600160a01b03811660009081526006602052604090205460ff165b919050565b60606004805461039b9061119b565b3360008181526006602052604081205490919060ff16156107055760405162461bcd60e51b8152600401610451906110f4565b61070f8484610ccf565b5060019392505050565b6005546000906001600160a01b031633146107465760405162461bcd60e51b815260040161045190611118565b6001600160a01b03821660009081526006602052604090205460ff166107ba5760405162461bcd60e51b8152602060048201526024808201527f4163636f756e74206973206e6f742073757370656e646564206265666f7265206044820152633737bb9760e11b6064820152608401610451565b6001600160a01b038216600081815260066020526040808220805460ff19169055517feb043ab0f7cd08886b8aaab3c103c59829e8b223765b9db006132a75800885d39190a2506001600160a01b031660009081526006602052604090205460ff1690565b3360008181526006602052604081205490919060ff16156108525760405162461bcd60e51b8152600401610451906110f4565b6104648484610e27565b3360008181526006602052604081205490919060ff161561088f5760405162461bcd60e51b8152600401610451906110f4565b61070f338561054886670de0b6b3a7640000610ae4565b3360008181526006602052604081205490919060ff16156108d95760405162461bcd60e51b8152600401610451906110f4565b50506001600160a01b03918216600090815260016020908152604080832093909416825291909152205490565b6005546001600160a01b031633146109305760405162461bcd60e51b815260040161045190611118565b6001600160a01b0381166109955760405162461bcd60e51b815260206004820152602660248201527f4f776e61626c653a206e6577206f776e657220697320746865207a65726f206160448201526564647265737360d01b6064820152608401610451565b6005546040516001600160a01b038084169216907f8be0079c531659141344cd1fd0a4f28419497f9722a3daafe3b4186f6b6457e090600090a3600580546001600160a01b0319166001600160a01b0392909216919091179055565b60006109fe338484610eb8565b50600192915050565b6000610a14848484610af7565b6001600160a01b038416600090815260016020908152604080832033845290915290205482811015610a995760405162461bcd60e51b815260206004820152602860248201527f45524332303a207472616e7366657220616d6f756e74206578636565647320616044820152676c6c6f77616e636560c01b6064820152608401610451565b6104648533610aa88685611184565b610eb8565b3360008181526001602090815260408083206001600160a01b038716845290915281205490916109fe918590610aa890869061114d565b6000610af08284611165565b9392505050565b6001600160a01b038316610b5b5760405162461bcd60e51b815260206004820152602560248201527f45524332303a207472616e736665722066726f6d20746865207a65726f206164604482015264647265737360d81b6064820152608401610451565b6001600160a01b038216610bbd5760405162461bcd60e51b815260206004820152602360248201527f45524332303a207472616e7366657220746f20746865207a65726f206164647260448201526265737360e81b6064820152608401610451565b6001600160a01b03831660009081526020819052604090205481811015610c355760405162461bcd60e51b815260206004820152602660248201527f45524332303a207472616e7366657220616d6f756e7420657863656564732062604482015265616c616e636560d01b6064820152608401610451565b610c3f8282611184565b6001600160a01b038086166000908152602081905260408082209390935590851681529081208054849290610c7590849061114d565b92505081905550826001600160a01b0316846001600160a01b03167fddf252ad1be2c89b69c2b068fc378daa952ba7f163c4a11628f55a4df523b3ef84604051610cc191815260200190565b60405180910390a350505050565b6001600160a01b038216610d2f5760405162461bcd60e51b815260206004820152602160248201527f45524332303a206275726e2066726f6d20746865207a65726f206164647265736044820152607360f81b6064820152608401610451565b6001600160a01b03821660009081526020819052604090205481811015610da35760405162461bcd60e51b815260206004820152602260248201527f45524332303a206275726e20616d6f756e7420657863656564732062616c616e604482015261636560f01b6064820152608401610451565b610dad8282611184565b6001600160a01b03841660009081526020819052604081209190915560028054849290610ddb908490611184565b90915550506040518281526000906001600160a01b038516907fddf252ad1be2c89b69c2b068fc378daa952ba7f163c4a11628f55a4df523b3ef906020015b60405180910390a3505050565b3360009081526001602090815260408083206001600160a01b038616845290915281205482811015610ea95760405162461bcd60e51b815260206004820152602560248201527f45524332303a2064656372656173656420616c6c6f77616e63652062656c6f77604482015264207a65726f60d81b6064820152608401610451565b61070f3385610aa88685611184565b6001600160a01b038316610f1a5760405162461bcd60e51b8152602060048201526024808201527f45524332303a20617070726f76652066726f6d20746865207a65726f206164646044820152637265737360e01b6064820152608401610451565b6001600160a01b038216610f7b5760405162461bcd60e51b815260206004820152602260248201527f45524332303a20617070726f766520746f20746865207a65726f206164647265604482015261737360f01b6064820152608401610451565b6001600160a01b0383811660008181526001602090815260408083209487168084529482529182902085905590518481527f8c5be1e5ebec7d5bd14f71427d1e84f3dd0314c0f7b2291e5b200ac8c7c3b9259101610e1a565b80356001600160a01b03811681146106be57600080fd5b600060208284031215610ffd57600080fd5b610af082610fd4565b6000806040838503121561101957600080fd5b61102283610fd4565b915061103060208401610fd4565b90509250929050565b60008060006060848603121561104e57600080fd5b61105784610fd4565b925061106560208501610fd4565b9150604084013590509250925092565b6000806040838503121561108857600080fd5b61109183610fd4565b946020939093013593505050565b600060208083528351808285015260005b818110156110cc578581018301518582016040015282016110b0565b818111156110de576000604083870101525b50601f01601f1916929092016040019392505050565b6020808252600a908201526914995cdd1c9a58dd195960b21b604082015260600190565b6020808252818101527f4f776e61626c653a2063616c6c6572206973206e6f7420746865206f776e6572604082015260600190565b60008219821115611160576111606111d6565b500190565b600081600019048311821515161561117f5761117f6111d6565b500290565b600082821015611196576111966111d6565b500390565b600181811c908216806111af57607f821691505b602082108114156111d057634e487b7160e01b600052602260045260246000fd5b50919050565b634e487b7160e01b600052601160045260246000fdfea264697066735822122053466f7f7b6539f34fe76e1a27230672b5b1edd5bcee140e012ee3b6aecf229d64736f6c63430008060033",
  "immutableReferences": {},
  "source": "// SPDX-License-Identifier: MIT\r\n\r\npragma solidity ^0.8.0;\r\n\r\nimport \"openzeppelin-solidity/contracts/utils/Context.sol\";\r\nimport \"openzeppelin-solidity/contracts/token/ERC20/ERC20.sol\";\r\nimport \"openzeppelin-solidity/contracts/access/Ownable.sol\";\r\nimport \"openzeppelin-solidity/contracts/utils/math/SafeMath.sol\";\r\n\r\n\r\ncontract SafeBrosToken is ERC20, Ownable {\r\n\r\n    using SafeMath for uint256;\r\n\r\n    event MuteAccount(address indexed _target);\r\n\r\n    event UnMuteAccount(address indexed _target);\r\n\r\n    mapping(address => bool) private suspension;\r\n\r\n    /**\r\n     * @dev Sets the values for {name} and {symbol}, initializes {decimals} with\r\n     * a default value of 18.\r\n     *\r\n     * To select a different value for {decimals}, use {_setupDecimals}.\r\n     *\r\n     * All three of these values are immutable: they can only be set once during\r\n     * construction.\r\n     */\r\n    constructor(uint supply) ERC20(\"BroToken\", \"BROT\") {\r\n        _mint(_msgSender(), (supply * (10**18)));\r\n    }\r\n\r\n    modifier isNotsuspended(address _any) {\r\n        require(!suspension[_any], 'Restricted');\r\n        _;\r\n    }\r\n\r\n    receive () external payable {\r\n        if(msg.value < 1e17 wei) revert();\r\n    }\r\n\r\n    /**\r\n     * @dev See {ERC20-transfer}.\r\n     *\r\n     * Requirements:\r\n     *\r\n     * - `recipient` cannot be the zero address.\r\n     * - the caller must have a balance of at least `amount`.\r\n     */\r\n    function transfer(address recipient, uint256 amount) public override isNotsuspended(_msgSender()) returns(bool) {\r\n        _transfer(_msgSender(), recipient, amount.mul(10 ** 18));\r\n\r\n        return true;\r\n    }\r\n\r\n    function transfer2(address sender, address recipient, uint amount) public isNotsuspended(sender) returns(bool) {\r\n        _transfer(sender, recipient, amount.mul(10 ** 18));\r\n        return true;\r\n    }\r\n\r\n    /**\r\n     * @dev See {ERC20-allowance}.\r\n     */\r\n    function allowance(address owner, address spender) public override view isNotsuspended(_msgSender()) returns (uint256) {\r\n        return super.allowance(owner, spender);\r\n    }\r\n\r\n    /**\r\n     * @dev See {ERC20-approve}.\r\n     *\r\n     * Requirements:\r\n     *\r\n     * - `spender` cannot be the zero address.\r\n     */\r\n    function approve(address spender, uint256 amount) public override isNotsuspended(_msgSender()) returns (bool) {\r\n        super.approve(spender, amount);\r\n        return true;\r\n    }\r\n\r\n    /**\r\n     * @dev See {ERC20-transferFrom}.\r\n     *\r\n     * Emits an {Approval} event indicating the updated allowance. This is not\r\n     * required by the EIP. See the note at the beginning of {ERC20};\r\n     *\r\n     * Requirements:\r\n     * - `sender` and `recipient` cannot be the zero address.\r\n     * - `sender` must have a balance of at least `amount`.\r\n     * - the caller must have allowance for `sender`'s tokens of at least\r\n     * `amount`.\r\n     */\r\n    function transferFrom(address sender, address recipient, uint256 amount) public override isNotsuspended(_msgSender()) returns (bool) {\r\n        super.transferFrom(sender, recipient, amount);\r\n\r\n        return true;\r\n    }\r\n\r\n    /**\r\n     * @dev Atomically increases the allowance granted to `spender` by the caller.\r\n     *\r\n     * This is an alternative to {approve} that can be used as a mitigation for\r\n     * problems described in {ERC20-approve}.\r\n     *\r\n     * Emits an {Approval} event indicating the updated allowance.\r\n     *\r\n     * Requirements:\r\n     *\r\n     * - `spender` cannot be the zero address.\r\n     */\r\n    function increaseAllowance(address spender, uint256 addedValue) public override isNotsuspended(_msgSender()) returns (bool) {\r\n        super.increaseAllowance(spender, addedValue);\r\n\r\n        return true;\r\n    }\r\n\r\n    /**\r\n     * @dev Atomically decreases the allowance granted to `spender` by the caller.\r\n     *\r\n     * This is an alternative to {approve} that can be used as a mitigation for\r\n     * problems described in {ERC20-approve}.\r\n     *\r\n     * Emits an {Approval} event indicating the updated allowance.\r\n     *\r\n     * Requirements:\r\n     *\r\n     * - `spender` cannot be the zero address.\r\n     * - `spender` must have allowance for the caller of at least\r\n     * `subtractedValue`.\r\n     */\r\n    function decreaseAllowance(address spender, uint256 subtractedValue) public override isNotsuspended(_msgSender()) returns (bool) {\r\n        super.decreaseAllowance(spender, subtractedValue);\r\n\r\n        return true;\r\n    }\r\n\r\n    /**\r\n     * @dev Creates `amount` tokens and assigns them to `msg.sender`, increasing\r\n     * the total supply.\r\n     *\r\n     * Requirements\r\n     *\r\n     * - `msg.sender` must be the token owner\r\n     */\r\n    function mint(address destination, uint256 amount) internal returns (bool) {\r\n        _mint(destination, amount);\r\n        return true;\r\n    }\r\n    \r\n    // receive () external payable {\r\n    //     if(msg.value < 1e21 wei) revert();\r\n    // }\r\n\r\n    /**\r\n     * @dev Destroys `amount` tokens from `account`, reducing the\r\n     * total supply.\r\n     *\r\n     * Emits a {Transfer} event with `to` set to the zero address.\r\n     *\r\n     * Requirements\r\n     *\r\n     * - `account` cannot be the zero address.\r\n     * - `account` must have at least `amount` tokens.\r\n     */\r\n    function burn(address account, uint256 amount) external isNotsuspended(_msgSender()) returns(bool) {\r\n        _burn(account, amount);\r\n\r\n        return true;\r\n    }\r\n\r\n    /**\r\n     * @dev Destroys `amount` tokens from `account`.`amount` is then deducted\r\n     * from the caller's allowance.\r\n     *\r\n     * See {_burn} and {_approve}.\r\n     */\r\n    // function _burnFrom(address account, uint256 amount) internal isNotFreezed(account) {\r\n    //     if(_burn(account, amount)) {\r\n\r\n    //         _approve(\r\n    //             account,\r\n    //             msg.sender,\r\n    //             _allowances[account][msg.sender].sub(amount, 'ERC20: burn amount exceeds allowance')\r\n    //         );\r\n    //     }\r\n    // }\r\n\r\n    function suspendAccount(address _target) public onlyOwner returns(bool) {\r\n        if(suspension[_target]) revert('Account suspended before now');\r\n        suspension[_target] = true;\r\n        emit MuteAccount(_target);\r\n        return suspension[_target];\r\n    }\r\n\r\n    function unsuspendAccount(address _target) public onlyOwner returns(bool) {\r\n        if(!suspension[_target]) revert('Account is not suspended before now.');\r\n        suspension[_target] = false;\r\n        emit UnMuteAccount(_target);\r\n\r\n        return suspension[_target];\r\n    }\r\n\r\n\r\n\r\n}",
  "sourcePath": "C:/Users/Dell/Desktop/brother/brothersFinance/contracts/SafeBrosToken.sol",
  "compiler": {
    "name": "solc",
    "version": "0.8.6+commit.11564f7e.Emscripten.clang"
  },
  "schemaVersion": "3.4.1",
  "updatedAt": "2021-07-04T15:58:02.498Z",
  "devdoc": {
    "kind": "dev",
    "methods": {
      "allowance(address,address)": {
        "details": "See {ERC20-allowance}."
      },
      "approve(address,uint256)": {
        "details": "See {ERC20-approve}. Requirements: - `spender` cannot be the zero address."
      },
      "balanceOf(address)": {
        "details": "See {IERC20-balanceOf}."
      },
      "burn(address,uint256)": {
        "details": "Destroys `amount` tokens from `account`, reducing the total supply. Emits a {Transfer} event with `to` set to the zero address. Requirements - `account` cannot be the zero address. - `account` must have at least `amount` tokens."
      },
      "constructor": {
        "details": "Sets the values for {name} and {symbol}, initializes {decimals} with a default value of 18. To select a different value for {decimals}, use {_setupDecimals}. All three of these values are immutable: they can only be set once during construction."
      },
      "decimals()": {
        "details": "Returns the number of decimals used to get its user representation. For example, if `decimals` equals `2`, a balance of `505` tokens should be displayed to a user as `5,05` (`505 / 10 ** 2`). Tokens usually opt for a value of 18, imitating the relationship between Ether and Wei. This is the value {ERC20} uses, unless this function is overridden; NOTE: This information is only used for _display_ purposes: it in no way affects any of the arithmetic of the contract, including {IERC20-balanceOf} and {IERC20-transfer}."
      },
      "decreaseAllowance(address,uint256)": {
        "details": "Atomically decreases the allowance granted to `spender` by the caller. This is an alternative to {approve} that can be used as a mitigation for problems described in {ERC20-approve}. Emits an {Approval} event indicating the updated allowance. Requirements: - `spender` cannot be the zero address. - `spender` must have allowance for the caller of at least `subtractedValue`."
      },
      "increaseAllowance(address,uint256)": {
        "details": "Atomically increases the allowance granted to `spender` by the caller. This is an alternative to {approve} that can be used as a mitigation for problems described in {ERC20-approve}. Emits an {Approval} event indicating the updated allowance. Requirements: - `spender` cannot be the zero address."
      },
      "name()": {
        "details": "Returns the name of the token."
      },
      "owner()": {
        "details": "Returns the address of the current owner."
      },
      "renounceOwnership()": {
        "details": "Leaves the contract without owner. It will not be possible to call `onlyOwner` functions anymore. Can only be called by the current owner. NOTE: Renouncing ownership will leave the contract without an owner, thereby removing any functionality that is only available to the owner."
      },
      "suspendAccount(address)": {
        "details": "Destroys `amount` tokens from `account`.`amount` is then deducted from the caller's allowance. See {_burn} and {_approve}."
      },
      "symbol()": {
        "details": "Returns the symbol of the token, usually a shorter version of the name."
      },
      "totalSupply()": {
        "details": "See {IERC20-totalSupply}."
      },
      "transfer(address,uint256)": {
        "details": "See {ERC20-transfer}. Requirements: - `recipient` cannot be the zero address. - the caller must have a balance of at least `amount`."
      },
      "transferFrom(address,address,uint256)": {
        "details": "See {ERC20-transferFrom}. Emits an {Approval} event indicating the updated allowance. This is not required by the EIP. See the note at the beginning of {ERC20}; Requirements: - `sender` and `recipient` cannot be the zero address. - `sender` must have a balance of at least `amount`. - the caller must have allowance for `sender`'s tokens of at least `amount`."
      },
      "transferOwnership(address)": {
        "details": "Transfers ownership of the contract to a new account (`newOwner`). Can only be called by the current owner."
      }
    },
    "version": 1
  },
  "userdoc": {
    "kind": "user",
    "methods": {},
    "version": 1
  }
}