{
  "contractName": "SafeBrosToken",
  "abi": [
    {
      "inputs": [
        {
          "internalType": "uint256",
          "name": "supply",
          "type": "uint256"
        }
      ],
      "stateMutability": "nonpayable",
      "type": "constructor"
    },
    {
      "anonymous": false,
      "inputs": [
        {
          "indexed": true,
          "internalType": "address",
          "name": "owner",
          "type": "address"
        },
        {
          "indexed": true,
          "internalType": "address",
          "name": "spender",
          "type": "address"
        },
        {
          "indexed": false,
          "internalType": "uint256",
          "name": "value",
          "type": "uint256"
        }
      ],
      "name": "Approval",
      "type": "event"
    },
    {
      "anonymous": false,
      "inputs": [
        {
          "indexed": true,
          "internalType": "address",
          "name": "_target",
          "type": "address"
        }
      ],
      "name": "MuteAccount",
      "type": "event"
    },
    {
      "anonymous": false,
      "inputs": [
        {
          "indexed": true,
          "internalType": "address",
          "name": "previousOwner",
          "type": "address"
        },
        {
          "indexed": true,
          "internalType": "address",
          "name": "newOwner",
          "type": "address"
        }
      ],
      "name": "OwnershipTransferred",
      "type": "event"
    },
    {
      "anonymous": false,
      "inputs": [
        {
          "indexed": true,
          "internalType": "address",
          "name": "from",
          "type": "address"
        },
        {
          "indexed": true,
          "internalType": "address",
          "name": "to",
          "type": "address"
        },
        {
          "indexed": false,
          "internalType": "uint256",
          "name": "value",
          "type": "uint256"
        }
      ],
      "name": "Transfer",
      "type": "event"
    },
    {
      "anonymous": false,
      "inputs": [
        {
          "indexed": true,
          "internalType": "address",
          "name": "_target",
          "type": "address"
        }
      ],
      "name": "UnMuteAccount",
      "type": "event"
    },
    {
      "inputs": [
        {
          "internalType": "address",
          "name": "account",
          "type": "address"
        }
      ],
      "name": "balanceOf",
      "outputs": [
        {
          "internalType": "uint256",
          "name": "",
          "type": "uint256"
        }
      ],
      "stateMutability": "view",
      "type": "function",
      "constant": true
    },
    {
      "inputs": [],
      "name": "decimals",
      "outputs": [
        {
          "internalType": "uint8",
          "name": "",
          "type": "uint8"
        }
      ],
      "stateMutability": "view",
      "type": "function",
      "constant": true
    },
    {
      "inputs": [],
      "name": "name",
      "outputs": [
        {
          "internalType": "string",
          "name": "",
          "type": "string"
        }
      ],
      "stateMutability": "view",
      "type": "function",
      "constant": true
    },
    {
      "inputs": [],
      "name": "owner",
      "outputs": [
        {
          "internalType": "address",
          "name": "",
          "type": "address"
        }
      ],
      "stateMutability": "view",
      "type": "function",
      "constant": true
    },
    {
      "inputs": [],
      "name": "renounceOwnership",
      "outputs": [],
      "stateMutability": "nonpayable",
      "type": "function"
    },
    {
      "inputs": [],
      "name": "symbol",
      "outputs": [
        {
          "internalType": "string",
          "name": "",
          "type": "string"
        }
      ],
      "stateMutability": "view",
      "type": "function",
      "constant": true
    },
    {
      "inputs": [],
      "name": "totalSupply",
      "outputs": [
        {
          "internalType": "uint256",
          "name": "",
          "type": "uint256"
        }
      ],
      "stateMutability": "view",
      "type": "function",
      "constant": true
    },
    {
      "inputs": [
        {
          "internalType": "address",
          "name": "newOwner",
          "type": "address"
        }
      ],
      "name": "transferOwnership",
      "outputs": [],
      "stateMutability": "nonpayable",
      "type": "function"
    },
    {
      "stateMutability": "payable",
      "type": "receive",
      "payable": true
    },
    {
      "inputs": [
        {
          "internalType": "address",
          "name": "recipient",
          "type": "address"
        },
        {
          "internalType": "uint256",
          "name": "amount",
          "type": "uint256"
        }
      ],
      "name": "transfer",
      "outputs": [
        {
          "internalType": "bool",
          "name": "",
          "type": "bool"
        }
      ],
      "stateMutability": "nonpayable",
      "type": "function"
    },
    {
      "inputs": [
        {
          "internalType": "address",
          "name": "sender",
          "type": "address"
        },
        {
          "internalType": "address",
          "name": "recipient",
          "type": "address"
        },
        {
          "internalType": "uint256",
          "name": "amount",
          "type": "uint256"
        }
      ],
      "name": "transfer2",
      "outputs": [
        {
          "internalType": "bool",
          "name": "",
          "type": "bool"
        }
      ],
      "stateMutability": "nonpayable",
      "type": "function"
    },
    {
      "inputs": [
        {
          "internalType": "address",
          "name": "owner",
          "type": "address"
        },
        {
          "internalType": "address",
          "name": "spender",
          "type": "address"
        }
      ],
      "name": "allowance",
      "outputs": [
        {
          "internalType": "uint256",
          "name": "",
          "type": "uint256"
        }
      ],
      "stateMutability": "view",
      "type": "function",
      "constant": true
    },
    {
      "inputs": [
        {
          "internalType": "address",
          "name": "spender",
          "type": "address"
        },
        {
          "internalType": "uint256",
          "name": "amount",
          "type": "uint256"
        }
      ],
      "name": "approve",
      "outputs": [
        {
          "internalType": "bool",
          "name": "",
          "type": "bool"
        }
      ],
      "stateMutability": "nonpayable",
      "type": "function"
    },
    {
      "inputs": [
        {
          "internalType": "address",
          "name": "sender",
          "type": "address"
        },
        {
          "internalType": "address",
          "name": "recipient",
          "type": "address"
        },
        {
          "internalType": "uint256",
          "name": "amount",
          "type": "uint256"
        }
      ],
      "name": "transferFrom",
      "outputs": [
        {
          "internalType": "bool",
          "name": "",
          "type": "bool"
        }
      ],
      "stateMutability": "nonpayable",
      "type": "function"
    },
    {
      "inputs": [
        {
          "internalType": "address",
          "name": "spender",
          "type": "address"
        },
        {
          "internalType": "uint256",
          "name": "addedValue",
          "type": "uint256"
        }
      ],
      "name": "increaseAllowance",
      "outputs": [
        {
          "internalType": "bool",
          "name": "",
          "type": "bool"
        }
      ],
      "stateMutability": "nonpayable",
      "type": "function"
    },
    {
      "inputs": [
        {
          "internalType": "address",
          "name": "spender",
          "type": "address"
        },
        {
          "internalType": "uint256",
          "name": "subtractedValue",
          "type": "uint256"
        }
      ],
      "name": "decreaseAllowance",
      "outputs": [
        {
          "internalType": "bool",
          "name": "",
          "type": "bool"
        }
      ],
      "stateMutability": "nonpayable",
      "type": "function"
    },
    {
      "inputs": [
        {
          "internalType": "address",
          "name": "account",
          "type": "address"
        },
        {
          "internalType": "uint256",
          "name": "amount",
          "type": "uint256"
        }
      ],
      "name": "burn",
      "outputs": [
        {
          "internalType": "bool",
          "name": "",
          "type": "bool"
        }
      ],
      "stateMutability": "nonpayable",
      "type": "function"
    },
    {
      "inputs": [
        {
          "internalType": "address",
          "name": "_target",
          "type": "address"
        }
      ],
      "name": "suspendAccount",
      "outputs": [
        {
          "internalType": "bool",
          "name": "",
          "type": "bool"
        }
      ],
      "stateMutability": "nonpayable",
      "type": "function"
    },
    {
      "inputs": [
        {
          "internalType": "address",
          "name": "_target",
          "type": "address"
        }
      ],
      "name": "unsuspendAccount",
      "outputs": [
        {
          "internalType": "bool",
          "name": "",
          "type": "bool"
        }
      ],
      "stateMutability": "nonpayable",
      "type": "function"
    }
  ],
  "bytecode": "0x60806040523480156200001157600080fd5b5060405162002f4038038062002f408339818101604052810190620000379190620003fe565b6040518060400160405280600881526020017f42726f546f6b656e0000000000000000000000000000000000000000000000008152506040518060400160405280600481526020017f42524f54000000000000000000000000000000000000000000000000000000008152508160039080519060200190620000bb92919062000337565b508060049080519060200190620000d492919062000337565b5050506000620000e9620001c560201b60201c565b905080600560006101000a81548173ffffffffffffffffffffffffffffffffffffffff021916908373ffffffffffffffffffffffffffffffffffffffff1602179055508073ffffffffffffffffffffffffffffffffffffffff16600073ffffffffffffffffffffffffffffffffffffffff167f8be0079c531659141344cd1fd0a4f28419497f9722a3daafe3b4186f6b6457e060405160405180910390a350620001be6200019c620001c560201b60201c565b670de0b6b3a764000083620001b2919062000515565b620001cd60201b60201c565b506200065c565b600033905090565b600073ffffffffffffffffffffffffffffffffffffffff168273ffffffffffffffffffffffffffffffffffffffff16141562000240576040517f08c379a0000000000000000000000000000000000000000000000000000000008152600401620002379062000468565b60405180910390fd5b62000254600083836200033260201b60201c565b8060026000828254620002689190620004b8565b92505081905550806000808473ffffffffffffffffffffffffffffffffffffffff1673ffffffffffffffffffffffffffffffffffffffff1681526020019081526020016000206000828254620002bf9190620004b8565b925050819055508173ffffffffffffffffffffffffffffffffffffffff16600073ffffffffffffffffffffffffffffffffffffffff167fddf252ad1be2c89b69c2b068fc378daa952ba7f163c4a11628f55a4df523b3ef836040516200032691906200048a565b60405180910390a35050565b505050565b828054620003459062000580565b90600052602060002090601f016020900481019282620003695760008555620003b5565b82601f106200038457805160ff1916838001178555620003b5565b82800160010185558215620003b5579182015b82811115620003b457825182559160200191906001019062000397565b5b509050620003c49190620003c8565b5090565b5b80821115620003e3576000816000905550600101620003c9565b5090565b600081519050620003f88162000642565b92915050565b60006020828403121562000417576200041662000614565b5b60006200042784828501620003e7565b91505092915050565b60006200043f601f83620004a7565b91506200044c8262000619565b602082019050919050565b620004628162000576565b82525050565b60006020820190508181036000830152620004838162000430565b9050919050565b6000602082019050620004a1600083018462000457565b92915050565b600082825260208201905092915050565b6000620004c58262000576565b9150620004d28362000576565b9250827fffffffffffffffffffffffffffffffffffffffffffffffffffffffffffffffff038211156200050a5762000509620005b6565b5b828201905092915050565b6000620005228262000576565b91506200052f8362000576565b9250817fffffffffffffffffffffffffffffffffffffffffffffffffffffffffffffffff04831182151516156200056b576200056a620005b6565b5b828202905092915050565b6000819050919050565b600060028204905060018216806200059957607f821691505b60208210811415620005b057620005af620005e5565b5b50919050565b7f4e487b7100000000000000000000000000000000000000000000000000000000600052601160045260246000fd5b7f4e487b7100000000000000000000000000000000000000000000000000000000600052602260045260246000fd5b600080fd5b7f45524332303a206d696e7420746f20746865207a65726f206164647265737300600082015250565b6200064d8162000576565b81146200065957600080fd5b50565b6128d4806200066c6000396000f3fe60806040526004361061010d5760003560e01c80638da5cb5b116100955780639fbaec38116100645780639fbaec38146103c7578063a457c2d714610404578063a9059cbb14610441578063dd62ed3e1461047e578063f2fde38b146104bb57610129565b80638da5cb5b146102f75780638ed9b31e1461032257806395d89b411461035f5780639dc29fac1461038a57610129565b8063313ce567116100dc578063313ce567146101fe57806339509351146102295780635698755a1461026657806370a08231146102a3578063715018a6146102e057610129565b806306fdde031461012e578063095ea7b31461015957806318160ddd1461019657806323b872dd146101c157610129565b366101295767016345785d8a000034101561012757600080fd5b005b600080fd5b34801561013a57600080fd5b506101436104e4565b604051610150919061204a565b60405180910390f35b34801561016557600080fd5b50610180600480360381019061017b9190611d75565b610576565b60405161018d919061202f565b60405180910390f35b3480156101a257600080fd5b506101ab610623565b6040516101b8919061222c565b60405180910390f35b3480156101cd57600080fd5b506101e860048036038101906101e39190611d22565b61062d565b6040516101f5919061202f565b60405180910390f35b34801561020a57600080fd5b506102136106dc565b6040516102209190612247565b60405180910390f35b34801561023557600080fd5b50610250600480360381019061024b9190611d75565b6106e5565b60405161025d919061202f565b60405180910390f35b34801561027257600080fd5b5061028d60048036038101906102889190611d22565b610792565b60405161029a919061202f565b60405180910390f35b3480156102af57600080fd5b506102ca60048036038101906102c59190611cb5565b610853565b6040516102d7919061222c565b60405180910390f35b3480156102ec57600080fd5b506102f561089b565b005b34801561030357600080fd5b5061030c6109d8565b6040516103199190612014565b60405180910390f35b34801561032e57600080fd5b5061034960048036038101906103449190611cb5565b610a02565b604051610356919061202f565b60405180910390f35b34801561036b57600080fd5b50610374610bfc565b604051610381919061204a565b60405180910390f35b34801561039657600080fd5b506103b160048036038101906103ac9190611d75565b610c8e565b6040516103be919061202f565b60405180910390f35b3480156103d357600080fd5b506103ee60048036038101906103e99190611cb5565b610d3a565b6040516103fb919061202f565b60405180910390f35b34801561041057600080fd5b5061042b60048036038101906104269190611d75565b610f33565b604051610438919061202f565b60405180910390f35b34801561044d57600080fd5b5061046860048036038101906104639190611d75565b610fe0565b604051610475919061202f565b60405180910390f35b34801561048a57600080fd5b506104a560048036038101906104a09190611ce2565b6110ae565b6040516104b2919061222c565b60405180910390f35b3480156104c757600080fd5b506104e260048036038101906104dd9190611cb5565b611158565b005b6060600380546104f3906123ea565b80601f016020809104026020016040519081016040528092919081815260200182805461051f906123ea565b801561056c5780601f106105415761010080835404028352916020019161056c565b820191906000526020600020905b81548152906001019060200180831161054f57829003601f168201915b5050505050905090565b6000610580611304565b600660008273ffffffffffffffffffffffffffffffffffffffff1673ffffffffffffffffffffffffffffffffffffffff16815260200190815260200160002060009054906101000a900460ff161561060d576040517f08c379a0000000000000000000000000000000000000000000000000000000008152600401610604906120ec565b60405180910390fd5b610617848461130c565b50600191505092915050565b6000600254905090565b6000610637611304565b600660008273ffffffffffffffffffffffffffffffffffffffff1673ffffffffffffffffffffffffffffffffffffffff16815260200190815260200160002060009054906101000a900460ff16156106c4576040517f08c379a00000000000000000000000000000000000000000000000000000000081526004016106bb906120ec565b60405180910390fd5b6106cf85858561132a565b5060019150509392505050565b60006012905090565b60006106ef611304565b600660008273ffffffffffffffffffffffffffffffffffffffff1673ffffffffffffffffffffffffffffffffffffffff16815260200190815260200160002060009054906101000a900460ff161561077c576040517f08c379a0000000000000000000000000000000000000000000000000000000008152600401610773906120ec565b60405180910390fd5b610786848461142b565b50600191505092915050565b600083600660008273ffffffffffffffffffffffffffffffffffffffff1673ffffffffffffffffffffffffffffffffffffffff16815260200190815260200160002060009054906101000a900460ff1615610822576040517f08c379a0000000000000000000000000000000000000000000000000000000008152600401610819906120ec565b60405180910390fd5b6108478585610842670de0b6b3a7640000876114d790919063ffffffff16565b6114ed565b60019150509392505050565b60008060008373ffffffffffffffffffffffffffffffffffffffff1673ffffffffffffffffffffffffffffffffffffffff168152602001908152602001600020549050919050565b6108a3611304565b73ffffffffffffffffffffffffffffffffffffffff166108c16109d8565b73ffffffffffffffffffffffffffffffffffffffff1614610917576040517f08c379a000000000000000000000000000000000000000000000000000000000815260040161090e9061214c565b60405180910390fd5b600073ffffffffffffffffffffffffffffffffffffffff16600560009054906101000a900473ffffffffffffffffffffffffffffffffffffffff1673ffffffffffffffffffffffffffffffffffffffff167f8be0079c531659141344cd1fd0a4f28419497f9722a3daafe3b4186f6b6457e060405160405180910390a36000600560006101000a81548173ffffffffffffffffffffffffffffffffffffffff021916908373ffffffffffffffffffffffffffffffffffffffff160217905550565b6000600560009054906101000a900473ffffffffffffffffffffffffffffffffffffffff16905090565b6000610a0c611304565b73ffffffffffffffffffffffffffffffffffffffff16610a2a6109d8565b73ffffffffffffffffffffffffffffffffffffffff1614610a80576040517f08c379a0000000000000000000000000000000000000000000000000000000008152600401610a779061214c565b60405180910390fd5b600660008373ffffffffffffffffffffffffffffffffffffffff1673ffffffffffffffffffffffffffffffffffffffff16815260200190815260200160002060009054906101000a900460ff1615610b0d576040517f08c379a0000000000000000000000000000000000000000000000000000000008152600401610b04906121cc565b60405180910390fd5b6001600660008473ffffffffffffffffffffffffffffffffffffffff1673ffffffffffffffffffffffffffffffffffffffff16815260200190815260200160002060006101000a81548160ff0219169083151502179055508173ffffffffffffffffffffffffffffffffffffffff167f219fdc4ba5d5db0c3aece2094c8f7c5992dc1963312c059a6d16ff4e09b6e64c60405160405180910390a2600660008373ffffffffffffffffffffffffffffffffffffffff1673ffffffffffffffffffffffffffffffffffffffff16815260200190815260200160002060009054906101000a900460ff169050919050565b606060048054610c0b906123ea565b80601f0160208091040260200160405190810160405280929190818152602001828054610c37906123ea565b8015610c845780601f10610c5957610100808354040283529160200191610c84565b820191906000526020600020905b815481529060010190602001808311610c6757829003601f168201915b5050505050905090565b6000610c98611304565b600660008273ffffffffffffffffffffffffffffffffffffffff1673ffffffffffffffffffffffffffffffffffffffff16815260200190815260200160002060009054906101000a900460ff1615610d25576040517f08c379a0000000000000000000000000000000000000000000000000000000008152600401610d1c906120ec565b60405180910390fd5b610d2f848461176c565b600191505092915050565b6000610d44611304565b73ffffffffffffffffffffffffffffffffffffffff16610d626109d8565b73ffffffffffffffffffffffffffffffffffffffff1614610db8576040517f08c379a0000000000000000000000000000000000000000000000000000000008152600401610daf9061214c565b60405180910390fd5b600660008373ffffffffffffffffffffffffffffffffffffffff1673ffffffffffffffffffffffffffffffffffffffff16815260200190815260200160002060009054906101000a900460ff16610e44576040517f08c379a0000000000000000000000000000000000000000000000000000000008152600401610e3b9061220c565b60405180910390fd5b6000600660008473ffffffffffffffffffffffffffffffffffffffff1673ffffffffffffffffffffffffffffffffffffffff16815260200190815260200160002060006101000a81548160ff0219169083151502179055508173ffffffffffffffffffffffffffffffffffffffff167feb043ab0f7cd08886b8aaab3c103c59829e8b223765b9db006132a75800885d360405160405180910390a2600660008373ffffffffffffffffffffffffffffffffffffffff1673ffffffffffffffffffffffffffffffffffffffff16815260200190815260200160002060009054906101000a900460ff169050919050565b6000610f3d611304565b600660008273ffffffffffffffffffffffffffffffffffffffff1673ffffffffffffffffffffffffffffffffffffffff16815260200190815260200160002060009054906101000a900460ff1615610fca576040517f08c379a0000000000000000000000000000000000000000000000000000000008152600401610fc1906120ec565b60405180910390fd5b610fd48484611940565b50600191505092915050565b6000610fea611304565b600660008273ffffffffffffffffffffffffffffffffffffffff1673ffffffffffffffffffffffffffffffffffffffff16815260200190815260200160002060009054906101000a900460ff1615611077576040517f08c379a000000000000000000000000000000000000000000000000000000000815260040161106e906120ec565b60405180910390fd5b6110a3611082611304565b8561109e670de0b6b3a7640000876114d790919063ffffffff16565b6114ed565b600191505092915050565b60006110b8611304565b600660008273ffffffffffffffffffffffffffffffffffffffff1673ffffffffffffffffffffffffffffffffffffffff16815260200190815260200160002060009054906101000a900460ff1615611145576040517f08c379a000000000000000000000000000000000000000000000000000000000815260040161113c906120ec565b60405180910390fd5b61114f8484611a34565b91505092915050565b611160611304565b73ffffffffffffffffffffffffffffffffffffffff1661117e6109d8565b73ffffffffffffffffffffffffffffffffffffffff16146111d4576040517f08c379a00000000000000000000000000000000000000000000000000000000081526004016111cb9061214c565b60405180910390fd5b600073ffffffffffffffffffffffffffffffffffffffff168173ffffffffffffffffffffffffffffffffffffffff161415611244576040517f08c379a000000000000000000000000000000000000000000000000000000000815260040161123b906120ac565b60405180910390fd5b8073ffffffffffffffffffffffffffffffffffffffff16600560009054906101000a900473ffffffffffffffffffffffffffffffffffffffff1673ffffffffffffffffffffffffffffffffffffffff167f8be0079c531659141344cd1fd0a4f28419497f9722a3daafe3b4186f6b6457e060405160405180910390a380600560006101000a81548173ffffffffffffffffffffffffffffffffffffffff021916908373ffffffffffffffffffffffffffffffffffffffff16021790555050565b600033905090565b6000611320611319611304565b8484611abb565b6001905092915050565b60006113378484846114ed565b6000600160008673ffffffffffffffffffffffffffffffffffffffff1673ffffffffffffffffffffffffffffffffffffffff1681526020019081526020016000206000611382611304565b73ffffffffffffffffffffffffffffffffffffffff1673ffffffffffffffffffffffffffffffffffffffff16815260200190815260200160002054905082811015611402576040517f08c379a00000000000000000000000000000000000000000000000000000000081526004016113f99061212c565b60405180910390fd5b61141f8561140e611304565b858461141a919061232e565b611abb565b60019150509392505050565b60006114cd611438611304565b848460016000611446611304565b73ffffffffffffffffffffffffffffffffffffffff1673ffffffffffffffffffffffffffffffffffffffff16815260200190815260200160002060008873ffffffffffffffffffffffffffffffffffffffff1673ffffffffffffffffffffffffffffffffffffffff168152602001908152602001600020546114c8919061227e565b611abb565b6001905092915050565b600081836114e591906122d4565b905092915050565b600073ffffffffffffffffffffffffffffffffffffffff168373ffffffffffffffffffffffffffffffffffffffff16141561155d576040517f08c379a00000000000000000000000000000000000000000000000000000000081526004016115549061218c565b60405180910390fd5b600073ffffffffffffffffffffffffffffffffffffffff168273ffffffffffffffffffffffffffffffffffffffff1614156115cd576040517f08c379a00000000000000000000000000000000000000000000000000000000081526004016115c49061206c565b60405180910390fd5b6115d8838383611c86565b60008060008573ffffffffffffffffffffffffffffffffffffffff1673ffffffffffffffffffffffffffffffffffffffff1681526020019081526020016000205490508181101561165e576040517f08c379a00000000000000000000000000000000000000000000000000000000081526004016116559061210c565b60405180910390fd5b818161166a919061232e565b6000808673ffffffffffffffffffffffffffffffffffffffff1673ffffffffffffffffffffffffffffffffffffffff16815260200190815260200160002081905550816000808573ffffffffffffffffffffffffffffffffffffffff1673ffffffffffffffffffffffffffffffffffffffff16815260200190815260200160002060008282546116fa919061227e565b925050819055508273ffffffffffffffffffffffffffffffffffffffff168473ffffffffffffffffffffffffffffffffffffffff167fddf252ad1be2c89b69c2b068fc378daa952ba7f163c4a11628f55a4df523b3ef8460405161175e919061222c565b60405180910390a350505050565b600073ffffffffffffffffffffffffffffffffffffffff168273ffffffffffffffffffffffffffffffffffffffff1614156117dc576040517f08c379a00000000000000000000000000000000000000000000000000000000081526004016117d39061216c565b60405180910390fd5b6117e882600083611c86565b60008060008473ffffffffffffffffffffffffffffffffffffffff1673ffffffffffffffffffffffffffffffffffffffff1681526020019081526020016000205490508181101561186e576040517f08c379a00000000000000000000000000000000000000000000000000000000081526004016118659061208c565b60405180910390fd5b818161187a919061232e565b6000808573ffffffffffffffffffffffffffffffffffffffff1673ffffffffffffffffffffffffffffffffffffffff1681526020019081526020016000208190555081600260008282546118ce919061232e565b92505081905550600073ffffffffffffffffffffffffffffffffffffffff168373ffffffffffffffffffffffffffffffffffffffff167fddf252ad1be2c89b69c2b068fc378daa952ba7f163c4a11628f55a4df523b3ef84604051611933919061222c565b60405180910390a3505050565b6000806001600061194f611304565b73ffffffffffffffffffffffffffffffffffffffff1673ffffffffffffffffffffffffffffffffffffffff16815260200190815260200160002060008573ffffffffffffffffffffffffffffffffffffffff1673ffffffffffffffffffffffffffffffffffffffff16815260200190815260200160002054905082811015611a0c576040517f08c379a0000000000000000000000000000000000000000000000000000000008152600401611a03906121ec565b60405180910390fd5b611a29611a17611304565b858584611a24919061232e565b611abb565b600191505092915050565b6000600160008473ffffffffffffffffffffffffffffffffffffffff1673ffffffffffffffffffffffffffffffffffffffff16815260200190815260200160002060008373ffffffffffffffffffffffffffffffffffffffff1673ffffffffffffffffffffffffffffffffffffffff16815260200190815260200160002054905092915050565b600073ffffffffffffffffffffffffffffffffffffffff168373ffffffffffffffffffffffffffffffffffffffff161415611b2b576040517f08c379a0000000000000000000000000000000000000000000000000000000008152600401611b22906121ac565b60405180910390fd5b600073ffffffffffffffffffffffffffffffffffffffff168273ffffffffffffffffffffffffffffffffffffffff161415611b9b576040517f08c379a0000000000000000000000000000000000000000000000000000000008152600401611b92906120cc565b60405180910390fd5b80600160008573ffffffffffffffffffffffffffffffffffffffff1673ffffffffffffffffffffffffffffffffffffffff16815260200190815260200160002060008473ffffffffffffffffffffffffffffffffffffffff1673ffffffffffffffffffffffffffffffffffffffff168152602001908152602001600020819055508173ffffffffffffffffffffffffffffffffffffffff168373ffffffffffffffffffffffffffffffffffffffff167f8c5be1e5ebec7d5bd14f71427d1e84f3dd0314c0f7b2291e5b200ac8c7c3b92583604051611c79919061222c565b60405180910390a3505050565b505050565b600081359050611c9a81612870565b92915050565b600081359050611caf81612887565b92915050565b600060208284031215611ccb57611cca61247a565b5b6000611cd984828501611c8b565b91505092915050565b60008060408385031215611cf957611cf861247a565b5b6000611d0785828601611c8b565b9250506020611d1885828601611c8b565b9150509250929050565b600080600060608486031215611d3b57611d3a61247a565b5b6000611d4986828701611c8b565b9350506020611d5a86828701611c8b565b9250506040611d6b86828701611ca0565b9150509250925092565b60008060408385031215611d8c57611d8b61247a565b5b6000611d9a85828601611c8b565b9250506020611dab85828601611ca0565b9150509250929050565b611dbe81612362565b82525050565b611dcd81612374565b82525050565b6000611dde82612262565b611de8818561226d565b9350611df88185602086016123b7565b611e018161247f565b840191505092915050565b6000611e1960238361226d565b9150611e2482612490565b604082019050919050565b6000611e3c60228361226d565b9150611e47826124df565b604082019050919050565b6000611e5f60268361226d565b9150611e6a8261252e565b604082019050919050565b6000611e8260228361226d565b9150611e8d8261257d565b604082019050919050565b6000611ea5600a8361226d565b9150611eb0826125cc565b602082019050919050565b6000611ec860268361226d565b9150611ed3826125f5565b604082019050919050565b6000611eeb60288361226d565b9150611ef682612644565b604082019050919050565b6000611f0e60208361226d565b9150611f1982612693565b602082019050919050565b6000611f3160218361226d565b9150611f3c826126bc565b604082019050919050565b6000611f5460258361226d565b9150611f5f8261270b565b604082019050919050565b6000611f7760248361226d565b9150611f828261275a565b604082019050919050565b6000611f9a601c8361226d565b9150611fa5826127a9565b602082019050919050565b6000611fbd60258361226d565b9150611fc8826127d2565b604082019050919050565b6000611fe060248361226d565b9150611feb82612821565b604082019050919050565b611fff816123a0565b82525050565b61200e816123aa565b82525050565b60006020820190506120296000830184611db5565b92915050565b60006020820190506120446000830184611dc4565b92915050565b600060208201905081810360008301526120648184611dd3565b905092915050565b6000602082019050818103600083015261208581611e0c565b9050919050565b600060208201905081810360008301526120a581611e2f565b9050919050565b600060208201905081810360008301526120c581611e52565b9050919050565b600060208201905081810360008301526120e581611e75565b9050919050565b6000602082019050818103600083015261210581611e98565b9050919050565b6000602082019050818103600083015261212581611ebb565b9050919050565b6000602082019050818103600083015261214581611ede565b9050919050565b6000602082019050818103600083015261216581611f01565b9050919050565b6000602082019050818103600083015261218581611f24565b9050919050565b600060208201905081810360008301526121a581611f47565b9050919050565b600060208201905081810360008301526121c581611f6a565b9050919050565b600060208201905081810360008301526121e581611f8d565b9050919050565b6000602082019050818103600083015261220581611fb0565b9050919050565b6000602082019050818103600083015261222581611fd3565b9050919050565b60006020820190506122416000830184611ff6565b92915050565b600060208201905061225c6000830184612005565b92915050565b600081519050919050565b600082825260208201905092915050565b6000612289826123a0565b9150612294836123a0565b9250827fffffffffffffffffffffffffffffffffffffffffffffffffffffffffffffffff038211156122c9576122c861241c565b5b828201905092915050565b60006122df826123a0565b91506122ea836123a0565b9250817fffffffffffffffffffffffffffffffffffffffffffffffffffffffffffffffff04831182151516156123235761232261241c565b5b828202905092915050565b6000612339826123a0565b9150612344836123a0565b9250828210156123575761235661241c565b5b828203905092915050565b600061236d82612380565b9050919050565b60008115159050919050565b600073ffffffffffffffffffffffffffffffffffffffff82169050919050565b6000819050919050565b600060ff82169050919050565b60005b838110156123d55780820151818401526020810190506123ba565b838111156123e4576000848401525b50505050565b6000600282049050600182168061240257607f821691505b602082108114156124165761241561244b565b5b50919050565b7f4e487b7100000000000000000000000000000000000000000000000000000000600052601160045260246000fd5b7f4e487b7100000000000000000000000000000000000000000000000000000000600052602260045260246000fd5b600080fd5b6000601f19601f8301169050919050565b7f45524332303a207472616e7366657220746f20746865207a65726f206164647260008201527f6573730000000000000000000000000000000000000000000000000000000000602082015250565b7f45524332303a206275726e20616d6f756e7420657863656564732062616c616e60008201527f6365000000000000000000000000000000000000000000000000000000000000602082015250565b7f4f776e61626c653a206e6577206f776e657220697320746865207a65726f206160008201527f6464726573730000000000000000000000000000000000000000000000000000602082015250565b7f45524332303a20617070726f766520746f20746865207a65726f20616464726560008201527f7373000000000000000000000000000000000000000000000000000000000000602082015250565b7f5265737472696374656400000000000000000000000000000000000000000000600082015250565b7f45524332303a207472616e7366657220616d6f756e742065786365656473206260008201527f616c616e63650000000000000000000000000000000000000000000000000000602082015250565b7f45524332303a207472616e7366657220616d6f756e742065786365656473206160008201527f6c6c6f77616e6365000000000000000000000000000000000000000000000000602082015250565b7f4f776e61626c653a2063616c6c6572206973206e6f7420746865206f776e6572600082015250565b7f45524332303a206275726e2066726f6d20746865207a65726f2061646472657360008201527f7300000000000000000000000000000000000000000000000000000000000000602082015250565b7f45524332303a207472616e736665722066726f6d20746865207a65726f20616460008201527f6472657373000000000000000000000000000000000000000000000000000000602082015250565b7f45524332303a20617070726f76652066726f6d20746865207a65726f2061646460008201527f7265737300000000000000000000000000000000000000000000000000000000602082015250565b7f4163636f756e742073757370656e646564206265666f7265206e6f7700000000600082015250565b7f45524332303a2064656372656173656420616c6c6f77616e63652062656c6f7760008201527f207a65726f000000000000000000000000000000000000000000000000000000602082015250565b7f4163636f756e74206973206e6f742073757370656e646564206265666f72652060008201527f6e6f772e00000000000000000000000000000000000000000000000000000000602082015250565b61287981612362565b811461288457600080fd5b50565b612890816123a0565b811461289b57600080fd5b5056fea2646970667358221220f23351391168412c4438be237f841e3db5830775a3bd3bdba13c5abb8a2ca76664736f6c63430008060033",
  "immutableReferences": {},
  "source": "// SPDX-License-Identifier: MIT\r\n\r\npragma solidity ^0.8.0;\r\n\r\nimport \"openzeppelin-solidity/contracts/utils/Context.sol\";\r\nimport \"openzeppelin-solidity/contracts/token/ERC20/ERC20.sol\";\r\nimport \"openzeppelin-solidity/contracts/access/Ownable.sol\";\r\nimport \"openzeppelin-solidity/contracts/utils/math/SafeMath.sol\";\r\n\r\n\r\ncontract SafeBrosToken is ERC20, Ownable {\r\n\r\n    using SafeMath for uint256;\r\n\r\n    event MuteAccount(address indexed _target);\r\n\r\n    event UnMuteAccount(address indexed _target);\r\n\r\n    mapping(address => bool) private suspension;\r\n\r\n    /**\r\n     * @dev Sets the values for {name} and {symbol}, initializes {decimals} with\r\n     * a default value of 18.\r\n     *\r\n     * To select a different value for {decimals}, use {_setupDecimals}.\r\n     *\r\n     * All three of these values are immutable: they can only be set once during\r\n     * construction.\r\n     */\r\n    constructor(uint supply) ERC20(\"BroToken\", \"BROT\") {\r\n        _mint(_msgSender(), (supply * (10**18)));\r\n    }\r\n\r\n    modifier isNotsuspended(address _any) {\r\n        require(!suspension[_any], 'Restricted');\r\n        _;\r\n    }\r\n\r\n    receive () external payable {\r\n        if(msg.value < 1e17 wei) revert();\r\n    }\r\n\r\n    /**\r\n     * @dev See {ERC20-transfer}.\r\n     *\r\n     * Requirements:\r\n     *\r\n     * - `recipient` cannot be the zero address.\r\n     * - the caller must have a balance of at least `amount`.\r\n     */\r\n    function transfer(address recipient, uint256 amount) public override isNotsuspended(_msgSender()) returns(bool) {\r\n        _transfer(_msgSender(), recipient, amount.mul(10 ** 18));\r\n\r\n        return true;\r\n    }\r\n\r\n    function transfer2(address sender, address recipient, uint amount) public isNotsuspended(sender) returns(bool) {\r\n        _transfer(sender, recipient, amount.mul(10 ** 18));\r\n        return true;\r\n    }\r\n\r\n    /**\r\n     * @dev See {ERC20-allowance}.\r\n     */\r\n    function allowance(address owner, address spender) public override view isNotsuspended(_msgSender()) returns (uint256) {\r\n        return super.allowance(owner, spender);\r\n    }\r\n\r\n    /**\r\n     * @dev See {ERC20-approve}.\r\n     *\r\n     * Requirements:\r\n     *\r\n     * - `spender` cannot be the zero address.\r\n     */\r\n    function approve(address spender, uint256 amount) public override isNotsuspended(_msgSender()) returns (bool) {\r\n        super.approve(spender, amount);\r\n        return true;\r\n    }\r\n\r\n    /**\r\n     * @dev See {ERC20-transferFrom}.\r\n     *\r\n     * Emits an {Approval} event indicating the updated allowance. This is not\r\n     * required by the EIP. See the note at the beginning of {ERC20};\r\n     *\r\n     * Requirements:\r\n     * - `sender` and `recipient` cannot be the zero address.\r\n     * - `sender` must have a balance of at least `amount`.\r\n     * - the caller must have allowance for `sender`'s tokens of at least\r\n     * `amount`.\r\n     */\r\n    function transferFrom(address sender, address recipient, uint256 amount) public override isNotsuspended(_msgSender()) returns (bool) {\r\n        super.transferFrom(sender, recipient, amount);\r\n\r\n        return true;\r\n    }\r\n\r\n    /**\r\n     * @dev Atomically increases the allowance granted to `spender` by the caller.\r\n     *\r\n     * This is an alternative to {approve} that can be used as a mitigation for\r\n     * problems described in {ERC20-approve}.\r\n     *\r\n     * Emits an {Approval} event indicating the updated allowance.\r\n     *\r\n     * Requirements:\r\n     *\r\n     * - `spender` cannot be the zero address.\r\n     */\r\n    function increaseAllowance(address spender, uint256 addedValue) public override isNotsuspended(_msgSender()) returns (bool) {\r\n        super.increaseAllowance(spender, addedValue);\r\n\r\n        return true;\r\n    }\r\n\r\n    /**\r\n     * @dev Atomically decreases the allowance granted to `spender` by the caller.\r\n     *\r\n     * This is an alternative to {approve} that can be used as a mitigation for\r\n     * problems described in {ERC20-approve}.\r\n     *\r\n     * Emits an {Approval} event indicating the updated allowance.\r\n     *\r\n     * Requirements:\r\n     *\r\n     * - `spender` cannot be the zero address.\r\n     * - `spender` must have allowance for the caller of at least\r\n     * `subtractedValue`.\r\n     */\r\n    function decreaseAllowance(address spender, uint256 subtractedValue) public override isNotsuspended(_msgSender()) returns (bool) {\r\n        super.decreaseAllowance(spender, subtractedValue);\r\n\r\n        return true;\r\n    }\r\n\r\n    /**\r\n     * @dev Creates `amount` tokens and assigns them to `msg.sender`, increasing\r\n     * the total supply.\r\n     *\r\n     * Requirements\r\n     *\r\n     * - `msg.sender` must be the token owner\r\n     */\r\n    function mint(address destination, uint256 amount) internal returns (bool) {\r\n        _mint(destination, amount);\r\n        return true;\r\n    }\r\n    \r\n    // receive () external payable {\r\n    //     if(msg.value < 1e21 wei) revert();\r\n    // }\r\n\r\n    /**\r\n     * @dev Destroys `amount` tokens from `account`, reducing the\r\n     * total supply.\r\n     *\r\n     * Emits a {Transfer} event with `to` set to the zero address.\r\n     *\r\n     * Requirements\r\n     *\r\n     * - `account` cannot be the zero address.\r\n     * - `account` must have at least `amount` tokens.\r\n     */\r\n    function burn(address account, uint256 amount) external isNotsuspended(_msgSender()) returns(bool) {\r\n        _burn(account, amount);\r\n\r\n        return true;\r\n    }\r\n\r\n    /**\r\n     * @dev Destroys `amount` tokens from `account`.`amount` is then deducted\r\n     * from the caller's allowance.\r\n     *\r\n     * See {_burn} and {_approve}.\r\n     */\r\n    // function _burnFrom(address account, uint256 amount) internal isNotFreezed(account) {\r\n    //     if(_burn(account, amount)) {\r\n\r\n    //         _approve(\r\n    //             account,\r\n    //             msg.sender,\r\n    //             _allowances[account][msg.sender].sub(amount, 'ERC20: burn amount exceeds allowance')\r\n    //         );\r\n    //     }\r\n    // }\r\n\r\n    function suspendAccount(address _target) public onlyOwner returns(bool) {\r\n        if(suspension[_target]) revert('Account suspended before now');\r\n        suspension[_target] = true;\r\n        emit MuteAccount(_target);\r\n        return suspension[_target];\r\n    }\r\n\r\n    function unsuspendAccount(address _target) public onlyOwner returns(bool) {\r\n        if(!suspension[_target]) revert('Account is not suspended before now.');\r\n        suspension[_target] = false;\r\n        emit UnMuteAccount(_target);\r\n\r\n        return suspension[_target];\r\n    }\r\n\r\n\r\n\r\n}",
  "sourcePath": "C:/Users/Dell/Desktop/brother/brothersFinance/contracts/SafeBrosToken.sol",
  "compiler": {
    "name": "solc",
    "version": "0.8.6+commit.11564f7e.Emscripten.clang"
  },
  "schemaVersion": "3.4.1",
  "updatedAt": "2021-07-04T04:42:11.734Z",
  "networkType": "ethereum",
  "devdoc": {
    "kind": "dev",
    "methods": {
      "allowance(address,address)": {
        "details": "See {ERC20-allowance}."
      },
      "approve(address,uint256)": {
        "details": "See {ERC20-approve}. Requirements: - `spender` cannot be the zero address."
      },
      "balanceOf(address)": {
        "details": "See {IERC20-balanceOf}."
      },
      "burn(address,uint256)": {
        "details": "Destroys `amount` tokens from `account`, reducing the total supply. Emits a {Transfer} event with `to` set to the zero address. Requirements - `account` cannot be the zero address. - `account` must have at least `amount` tokens."
      },
      "constructor": {
        "details": "Sets the values for {name} and {symbol}, initializes {decimals} with a default value of 18. To select a different value for {decimals}, use {_setupDecimals}. All three of these values are immutable: they can only be set once during construction."
      },
      "decimals()": {
        "details": "Returns the number of decimals used to get its user representation. For example, if `decimals` equals `2`, a balance of `505` tokens should be displayed to a user as `5,05` (`505 / 10 ** 2`). Tokens usually opt for a value of 18, imitating the relationship between Ether and Wei. This is the value {ERC20} uses, unless this function is overridden; NOTE: This information is only used for _display_ purposes: it in no way affects any of the arithmetic of the contract, including {IERC20-balanceOf} and {IERC20-transfer}."
      },
      "decreaseAllowance(address,uint256)": {
        "details": "Atomically decreases the allowance granted to `spender` by the caller. This is an alternative to {approve} that can be used as a mitigation for problems described in {ERC20-approve}. Emits an {Approval} event indicating the updated allowance. Requirements: - `spender` cannot be the zero address. - `spender` must have allowance for the caller of at least `subtractedValue`."
      },
      "increaseAllowance(address,uint256)": {
        "details": "Atomically increases the allowance granted to `spender` by the caller. This is an alternative to {approve} that can be used as a mitigation for problems described in {ERC20-approve}. Emits an {Approval} event indicating the updated allowance. Requirements: - `spender` cannot be the zero address."
      },
      "name()": {
        "details": "Returns the name of the token."
      },
      "owner()": {
        "details": "Returns the address of the current owner."
      },
      "renounceOwnership()": {
        "details": "Leaves the contract without owner. It will not be possible to call `onlyOwner` functions anymore. Can only be called by the current owner. NOTE: Renouncing ownership will leave the contract without an owner, thereby removing any functionality that is only available to the owner."
      },
      "suspendAccount(address)": {
        "details": "Destroys `amount` tokens from `account`.`amount` is then deducted from the caller's allowance. See {_burn} and {_approve}."
      },
      "symbol()": {
        "details": "Returns the symbol of the token, usually a shorter version of the name."
      },
      "totalSupply()": {
        "details": "See {IERC20-totalSupply}."
      },
      "transfer(address,uint256)": {
        "details": "See {ERC20-transfer}. Requirements: - `recipient` cannot be the zero address. - the caller must have a balance of at least `amount`."
      },
      "transferFrom(address,address,uint256)": {
        "details": "See {ERC20-transferFrom}. Emits an {Approval} event indicating the updated allowance. This is not required by the EIP. See the note at the beginning of {ERC20}; Requirements: - `sender` and `recipient` cannot be the zero address. - `sender` must have a balance of at least `amount`. - the caller must have allowance for `sender`'s tokens of at least `amount`."
      },
      "transferOwnership(address)": {
        "details": "Transfers ownership of the contract to a new account (`newOwner`). Can only be called by the current owner."
      }
    },
    "version": 1
  },
  "userdoc": {
    "kind": "user",
    "methods": {},
    "version": 1
  }
}